{
	"contracts/StudentBook.sol": {
		"StudentBook": {
			"abi": [
				{
					"inputs": [],
					"stateMutability": "nonpayable",
					"type": "constructor"
				},
				{
					"inputs": [
						{
							"internalType": "address",
							"name": "_studentAddress",
							"type": "address"
						},
						{
							"internalType": "string",
							"name": "_name",
							"type": "string"
						},
						{
							"internalType": "uint8",
							"name": "_age",
							"type": "uint8"
						}
					],
					"name": "addStudent",
					"outputs": [],
					"stateMutability": "nonpayable",
					"type": "function"
				},
				{
					"inputs": [
						{
							"internalType": "uint256",
							"name": "_studentId",
							"type": "uint256"
						}
					],
					"name": "deleteStudent",
					"outputs": [],
					"stateMutability": "nonpayable",
					"type": "function"
				},
				{
					"inputs": [
						{
							"internalType": "uint256",
							"name": "_studentId",
							"type": "uint256"
						}
					],
					"name": "getStudent",
					"outputs": [
						{
							"components": [
								{
									"internalType": "address",
									"name": "studentAddress",
									"type": "address"
								},
								{
									"internalType": "string",
									"name": "name",
									"type": "string"
								},
								{
									"internalType": "uint8",
									"name": "age",
									"type": "uint8"
								},
								{
									"internalType": "uint256",
									"name": "studentId",
									"type": "uint256"
								}
							],
							"internalType": "struct StudentBook.Student",
							"name": "",
							"type": "tuple"
						}
					],
					"stateMutability": "view",
					"type": "function"
				},
				{
					"inputs": [],
					"name": "owner",
					"outputs": [
						{
							"internalType": "address",
							"name": "",
							"type": "address"
						}
					],
					"stateMutability": "view",
					"type": "function"
				},
				{
					"inputs": [
						{
							"internalType": "uint256",
							"name": "_studentId",
							"type": "uint256"
						},
						{
							"internalType": "uint8",
							"name": "_age",
							"type": "uint8"
						},
						{
							"internalType": "string",
							"name": "_name",
							"type": "string"
						},
						{
							"internalType": "address",
							"name": "_studentAddress",
							"type": "address"
						}
					],
					"name": "updateStude",
					"outputs": [],
					"stateMutability": "nonpayable",
					"type": "function"
				}
			],
			"devdoc": {
				"kind": "dev",
				"methods": {},
				"version": 1
			},
			"evm": {
				"assembly": "    /* \"contracts/StudentBook.sol\":57:2019  contract StudentBook {... */\n  mstore(0x40, 0x80)\n    /* \"contracts/StudentBook.sol\":238:287  constructor() {... */\n  callvalue\n  dup1\n  iszero\n  tag_1\n  jumpi\n  0x00\n  dup1\n  revert\ntag_1:\n  pop\n    /* \"contracts/StudentBook.sol\":270:280  msg.sender */\n  caller\n    /* \"contracts/StudentBook.sol\":262:267  owner */\n  0x00\n  dup1\n    /* \"contracts/StudentBook.sol\":262:280  owner = msg.sender */\n  0x0100\n  exp\n  dup2\n  sload\n  dup2\n  0xffffffffffffffffffffffffffffffffffffffff\n  mul\n  not\n  and\n  swap1\n  dup4\n  0xffffffffffffffffffffffffffffffffffffffff\n  and\n  mul\n  or\n  swap1\n  sstore\n  pop\n    /* \"contracts/StudentBook.sol\":57:2019  contract StudentBook {... */\n  dataSize(sub_0)\n  dup1\n  dataOffset(sub_0)\n  0x00\n  codecopy\n  0x00\n  return\nstop\n\nsub_0: assembly {\n        /* \"contracts/StudentBook.sol\":57:2019  contract StudentBook {... */\n      mstore(0x40, 0x80)\n      callvalue\n      dup1\n      iszero\n      tag_1\n      jumpi\n      0x00\n      dup1\n      revert\n    tag_1:\n      pop\n      jumpi(tag_2, lt(calldatasize, 0x04))\n      shr(0xe0, calldataload(0x00))\n      dup1\n      0x642f9163\n      eq\n      tag_3\n      jumpi\n      dup1\n      0x6d627fa8\n      eq\n      tag_4\n      jumpi\n      dup1\n      0x8da5cb5b\n      eq\n      tag_5\n      jumpi\n      dup1\n      0xb645307d\n      eq\n      tag_6\n      jumpi\n      dup1\n      0xe7c0994a\n      eq\n      tag_7\n      jumpi\n    tag_2:\n      0x00\n      dup1\n      revert\n        /* \"contracts/StudentBook.sol\":816:941  function getStudent(uint256 _studentId) public view returns (Student memory) {... */\n    tag_3:\n      tag_8\n      0x04\n      dup1\n      calldatasize\n      sub\n      dup2\n      add\n      swap1\n      tag_9\n      swap2\n      swap1\n      tag_10\n      jump\t// in\n    tag_9:\n      tag_11\n      jump\t// in\n    tag_8:\n      mload(0x40)\n      tag_12\n      swap2\n      swap1\n      tag_13\n      jump\t// in\n    tag_12:\n      mload(0x40)\n      dup1\n      swap2\n      sub\n      swap1\n      return\n        /* \"contracts/StudentBook.sol\":947:1455  function updateStude(uint256 _studentId, uint8 _age, string memory _name, address _studentAddress) public  {... */\n    tag_4:\n      tag_14\n      0x04\n      dup1\n      calldatasize\n      sub\n      dup2\n      add\n      swap1\n      tag_15\n      swap2\n      swap1\n      tag_16\n      jump\t// in\n    tag_15:\n      tag_17\n      jump\t// in\n    tag_14:\n      stop\n        /* \"contracts/StudentBook.sol\":84:104  address public owner */\n    tag_5:\n      tag_18\n      tag_19\n      jump\t// in\n    tag_18:\n      mload(0x40)\n      tag_20\n      swap2\n      swap1\n      tag_21\n      jump\t// in\n    tag_20:\n      mload(0x40)\n      dup1\n      swap2\n      sub\n      swap1\n      return\n        /* \"contracts/StudentBook.sol\":1461:1859  function deleteStudent(uint256 _studentId) public {... */\n    tag_6:\n      tag_22\n      0x04\n      dup1\n      calldatasize\n      sub\n      dup2\n      add\n      swap1\n      tag_23\n      swap2\n      swap1\n      tag_10\n      jump\t// in\n    tag_23:\n      tag_24\n      jump\t// in\n    tag_22:\n      stop\n        /* \"contracts/StudentBook.sol\":326:810  function addStudent(address _studentAddress, string memory _name, uint8 _age) public  {... */\n    tag_7:\n      tag_25\n      0x04\n      dup1\n      calldatasize\n      sub\n      dup2\n      add\n      swap1\n      tag_26\n      swap2\n      swap1\n      tag_27\n      jump\t// in\n    tag_26:\n      tag_28\n      jump\t// in\n    tag_25:\n      stop\n        /* \"contracts/StudentBook.sol\":816:941  function getStudent(uint256 _studentId) public view returns (Student memory) {... */\n    tag_11:\n        /* \"contracts/StudentBook.sol\":877:891  Student memory */\n      tag_29\n      tag_30\n      jump\t// in\n    tag_29:\n        /* \"contracts/StudentBook.sol\":910:918  students */\n      0x01\n        /* \"contracts/StudentBook.sol\":932:933  1 */\n      dup1\n        /* \"contracts/StudentBook.sol\":919:929  _studentId */\n      dup4\n        /* \"contracts/StudentBook.sol\":919:933  _studentId - 1 */\n      tag_32\n      swap2\n      swap1\n      tag_33\n      jump\t// in\n    tag_32:\n        /* \"contracts/StudentBook.sol\":910:934  students[_studentId - 1] */\n      dup2\n      sload\n      dup2\n      lt\n      tag_34\n      jumpi\n      tag_35\n      tag_36\n      jump\t// in\n    tag_35:\n    tag_34:\n      swap1\n      0x00\n      mstore\n      keccak256(0x00, 0x20)\n      swap1\n      0x04\n      mul\n      add\n        /* \"contracts/StudentBook.sol\":903:934  return students[_studentId - 1] */\n      mload(0x40)\n      dup1\n      0x80\n      add\n      0x40\n      mstore\n      swap1\n      dup2\n      0x00\n      dup3\n      add\n      0x00\n      swap1\n      sload\n      swap1\n      0x0100\n      exp\n      swap1\n      div\n      0xffffffffffffffffffffffffffffffffffffffff\n      and\n      0xffffffffffffffffffffffffffffffffffffffff\n      and\n      0xffffffffffffffffffffffffffffffffffffffff\n      and\n      dup2\n      mstore\n      0x20\n      add\n      0x01\n      dup3\n      add\n      dup1\n      sload\n      tag_38\n      swap1\n      tag_39\n      jump\t// in\n    tag_38:\n      dup1\n      0x1f\n      add\n      0x20\n      dup1\n      swap2\n      div\n      mul\n      0x20\n      add\n      mload(0x40)\n      swap1\n      dup2\n      add\n      0x40\n      mstore\n      dup1\n      swap3\n      swap2\n      swap1\n      dup2\n      dup2\n      mstore\n      0x20\n      add\n      dup3\n      dup1\n      sload\n      tag_40\n      swap1\n      tag_39\n      jump\t// in\n    tag_40:\n      dup1\n      iszero\n      tag_41\n      jumpi\n      dup1\n      0x1f\n      lt\n      tag_42\n      jumpi\n      0x0100\n      dup1\n      dup4\n      sload\n      div\n      mul\n      dup4\n      mstore\n      swap2\n      0x20\n      add\n      swap2\n      jump(tag_41)\n    tag_42:\n      dup3\n      add\n      swap2\n      swap1\n      0x00\n      mstore\n      keccak256(0x00, 0x20)\n      swap1\n    tag_43:\n      dup2\n      sload\n      dup2\n      mstore\n      swap1\n      0x01\n      add\n      swap1\n      0x20\n      add\n      dup1\n      dup4\n      gt\n      tag_43\n      jumpi\n      dup3\n      swap1\n      sub\n      0x1f\n      and\n      dup3\n      add\n      swap2\n    tag_41:\n      pop\n      pop\n      pop\n      pop\n      pop\n      dup2\n      mstore\n      0x20\n      add\n      0x02\n      dup3\n      add\n      0x00\n      swap1\n      sload\n      swap1\n      0x0100\n      exp\n      swap1\n      div\n      0xff\n      and\n      0xff\n      and\n      0xff\n      and\n      dup2\n      mstore\n      0x20\n      add\n      0x03\n      dup3\n      add\n      sload\n      dup2\n      mstore\n      pop\n      pop\n      swap1\n      pop\n        /* \"contracts/StudentBook.sol\":816:941  function getStudent(uint256 _studentId) public view returns (Student memory) {... */\n      swap2\n      swap1\n      pop\n      jump\t// out\n        /* \"contracts/StudentBook.sol\":947:1455  function updateStude(uint256 _studentId, uint8 _age, string memory _name, address _studentAddress) public  {... */\n    tag_17:\n        /* \"contracts/StudentBook.sol\":1081:1091  msg.sender */\n      caller\n        /* \"contracts/StudentBook.sol\":1072:1091  owner == msg.sender */\n      0xffffffffffffffffffffffffffffffffffffffff\n      and\n        /* \"contracts/StudentBook.sol\":1072:1077  owner */\n      0x00\n      dup1\n      sload\n      swap1\n      0x0100\n      exp\n      swap1\n      div\n      0xffffffffffffffffffffffffffffffffffffffff\n      and\n        /* \"contracts/StudentBook.sol\":1072:1091  owner == msg.sender */\n      0xffffffffffffffffffffffffffffffffffffffff\n      and\n      eq\n        /* \"contracts/StudentBook.sol\":1064:1117  require(owner == msg.sender, \"You are not permitted\") */\n      tag_45\n      jumpi\n      mload(0x40)\n      0x08c379a000000000000000000000000000000000000000000000000000000000\n      dup2\n      mstore\n      0x04\n      add\n      tag_46\n      swap1\n      tag_47\n      jump\t// in\n    tag_46:\n      mload(0x40)\n      dup1\n      swap2\n      sub\n      swap1\n      revert\n    tag_45:\n        /* \"contracts/StudentBook.sol\":1143:1145  18 */\n      0x12\n        /* \"contracts/StudentBook.sol\":1135:1139  _age */\n      dup4\n        /* \"contracts/StudentBook.sol\":1135:1145  _age >= 18 */\n      0xff\n      and\n      lt\n      iszero\n        /* \"contracts/StudentBook.sol\":1127:1178  require(_age >= 18, \"Grow up a bit and try again!\") */\n      tag_48\n      jumpi\n      mload(0x40)\n      0x08c379a000000000000000000000000000000000000000000000000000000000\n      dup2\n      mstore\n      0x04\n      add\n      tag_49\n      swap1\n      tag_50\n      jump\t// in\n    tag_49:\n      mload(0x40)\n      dup1\n      swap2\n      sub\n      swap1\n      revert\n    tag_48:\n        /* \"contracts/StudentBook.sol\":1209:1210  0 */\n      0x00\n        /* \"contracts/StudentBook.sol\":1196:1206  _studentId */\n      dup5\n        /* \"contracts/StudentBook.sol\":1196:1210  _studentId > 0 */\n      gt\n        /* \"contracts/StudentBook.sol\":1196:1243  _studentId > 0 && _studentId <= students.length */\n      dup1\n      iszero\n      tag_51\n      jumpi\n      pop\n        /* \"contracts/StudentBook.sol\":1228:1236  students */\n      0x01\n        /* \"contracts/StudentBook.sol\":1228:1243  students.length */\n      dup1\n      sload\n      swap1\n      pop\n        /* \"contracts/StudentBook.sol\":1214:1224  _studentId */\n      dup5\n        /* \"contracts/StudentBook.sol\":1214:1243  _studentId <= students.length */\n      gt\n      iszero\n        /* \"contracts/StudentBook.sol\":1196:1243  _studentId > 0 && _studentId <= students.length */\n    tag_51:\n        /* \"contracts/StudentBook.sol\":1188:1273  require(_studentId > 0 && _studentId <= students.length, \"This human does not exist\") */\n      tag_52\n      jumpi\n      mload(0x40)\n      0x08c379a000000000000000000000000000000000000000000000000000000000\n      dup2\n      mstore\n      0x04\n      add\n      tag_53\n      swap1\n      tag_54\n      jump\t// in\n    tag_53:\n      mload(0x40)\n      dup1\n      swap2\n      sub\n      swap1\n      revert\n    tag_52:\n        /* \"contracts/StudentBook.sol\":1284:1307  Student storage student */\n      0x00\n        /* \"contracts/StudentBook.sol\":1310:1318  students */\n      0x01\n        /* \"contracts/StudentBook.sol\":1337:1338  1 */\n      dup1\n        /* \"contracts/StudentBook.sol\":1319:1327  students */\n      dup1\n        /* \"contracts/StudentBook.sol\":1319:1334  students.length */\n      dup1\n      sload\n      swap1\n      pop\n        /* \"contracts/StudentBook.sol\":1319:1338  students.length - 1 */\n      tag_55\n      swap2\n      swap1\n      tag_33\n      jump\t// in\n    tag_55:\n        /* \"contracts/StudentBook.sol\":1310:1339  students[students.length - 1] */\n      dup2\n      sload\n      dup2\n      lt\n      tag_56\n      jumpi\n      tag_57\n      tag_36\n      jump\t// in\n    tag_57:\n    tag_56:\n      swap1\n      0x00\n      mstore\n      keccak256(0x00, 0x20)\n      swap1\n      0x04\n      mul\n      add\n        /* \"contracts/StudentBook.sol\":1284:1339  Student storage student = students[students.length - 1] */\n      swap1\n      pop\n        /* \"contracts/StudentBook.sol\":1374:1389  _studentAddress */\n      dup2\n        /* \"contracts/StudentBook.sol\":1349:1356  student */\n      dup2\n        /* \"contracts/StudentBook.sol\":1349:1371  student.studentAddress */\n      0x00\n      add\n      0x00\n        /* \"contracts/StudentBook.sol\":1349:1389  student.studentAddress = _studentAddress */\n      0x0100\n      exp\n      dup2\n      sload\n      dup2\n      0xffffffffffffffffffffffffffffffffffffffff\n      mul\n      not\n      and\n      swap1\n      dup4\n      0xffffffffffffffffffffffffffffffffffffffff\n      and\n      mul\n      or\n      swap1\n      sstore\n      pop\n        /* \"contracts/StudentBook.sol\":1414:1419  _name */\n      dup3\n        /* \"contracts/StudentBook.sol\":1399:1406  student */\n      dup2\n        /* \"contracts/StudentBook.sol\":1399:1411  student.name */\n      0x01\n      add\n        /* \"contracts/StudentBook.sol\":1399:1419  student.name = _name */\n      swap1\n      dup2\n      tag_59\n      swap2\n      swap1\n      tag_60\n      jump\t// in\n    tag_59:\n      pop\n        /* \"contracts/StudentBook.sol\":1443:1447  _age */\n      dup4\n        /* \"contracts/StudentBook.sol\":1429:1436  student */\n      dup2\n        /* \"contracts/StudentBook.sol\":1429:1440  student.age */\n      0x02\n      add\n      0x00\n        /* \"contracts/StudentBook.sol\":1429:1447  student.age = _age */\n      0x0100\n      exp\n      dup2\n      sload\n      dup2\n      0xff\n      mul\n      not\n      and\n      swap1\n      dup4\n      0xff\n      and\n      mul\n      or\n      swap1\n      sstore\n      pop\n        /* \"contracts/StudentBook.sol\":1054:1455  {... */\n      pop\n        /* \"contracts/StudentBook.sol\":947:1455  function updateStude(uint256 _studentId, uint8 _age, string memory _name, address _studentAddress) public  {... */\n      pop\n      pop\n      pop\n      pop\n      jump\t// out\n        /* \"contracts/StudentBook.sol\":84:104  address public owner */\n    tag_19:\n      0x00\n      dup1\n      sload\n      swap1\n      0x0100\n      exp\n      swap1\n      div\n      0xffffffffffffffffffffffffffffffffffffffff\n      and\n      dup2\n      jump\t// out\n        /* \"contracts/StudentBook.sol\":1461:1859  function deleteStudent(uint256 _studentId) public {... */\n    tag_24:\n        /* \"contracts/StudentBook.sol\":1538:1548  msg.sender */\n      caller\n        /* \"contracts/StudentBook.sol\":1529:1548  owner == msg.sender */\n      0xffffffffffffffffffffffffffffffffffffffff\n      and\n        /* \"contracts/StudentBook.sol\":1529:1534  owner */\n      0x00\n      dup1\n      sload\n      swap1\n      0x0100\n      exp\n      swap1\n      div\n      0xffffffffffffffffffffffffffffffffffffffff\n      and\n        /* \"contracts/StudentBook.sol\":1529:1548  owner == msg.sender */\n      0xffffffffffffffffffffffffffffffffffffffff\n      and\n      eq\n        /* \"contracts/StudentBook.sol\":1521:1574  require(owner == msg.sender, \"You are not permitted\") */\n      tag_62\n      jumpi\n      mload(0x40)\n      0x08c379a000000000000000000000000000000000000000000000000000000000\n      dup2\n      mstore\n      0x04\n      add\n      tag_63\n      swap1\n      tag_47\n      jump\t// in\n    tag_63:\n      mload(0x40)\n      dup1\n      swap2\n      sub\n      swap1\n      revert\n    tag_62:\n        /* \"contracts/StudentBook.sol\":1605:1606  0 */\n      0x00\n        /* \"contracts/StudentBook.sol\":1592:1602  _studentId */\n      dup2\n        /* \"contracts/StudentBook.sol\":1592:1606  _studentId > 0 */\n      gt\n        /* \"contracts/StudentBook.sol\":1592:1639  _studentId > 0 && _studentId <= students.length */\n      dup1\n      iszero\n      tag_64\n      jumpi\n      pop\n        /* \"contracts/StudentBook.sol\":1624:1632  students */\n      0x01\n        /* \"contracts/StudentBook.sol\":1624:1639  students.length */\n      dup1\n      sload\n      swap1\n      pop\n        /* \"contracts/StudentBook.sol\":1610:1620  _studentId */\n      dup2\n        /* \"contracts/StudentBook.sol\":1610:1639  _studentId <= students.length */\n      gt\n      iszero\n        /* \"contracts/StudentBook.sol\":1592:1639  _studentId > 0 && _studentId <= students.length */\n    tag_64:\n        /* \"contracts/StudentBook.sol\":1584:1669  require(_studentId > 0 && _studentId <= students.length, \"This human does not exist\") */\n      tag_65\n      jumpi\n      mload(0x40)\n      0x08c379a000000000000000000000000000000000000000000000000000000000\n      dup2\n      mstore\n      0x04\n      add\n      tag_66\n      swap1\n      tag_54\n      jump\t// in\n    tag_66:\n      mload(0x40)\n      dup1\n      swap2\n      sub\n      swap1\n      revert\n    tag_65:\n        /* \"contracts/StudentBook.sol\":1682:1695  uint256 index */\n      0x00\n        /* \"contracts/StudentBook.sol\":1711:1712  1 */\n      0x01\n        /* \"contracts/StudentBook.sol\":1698:1708  _studentId */\n      dup3\n        /* \"contracts/StudentBook.sol\":1698:1712  _studentId - 1 */\n      tag_67\n      swap2\n      swap1\n      tag_33\n      jump\t// in\n    tag_67:\n        /* \"contracts/StudentBook.sol\":1682:1712  uint256 index = _studentId - 1 */\n      swap1\n      pop\n        /* \"contracts/StudentBook.sol\":1753:1754  1 */\n      0x01\n        /* \"contracts/StudentBook.sol\":1735:1743  students */\n      dup1\n        /* \"contracts/StudentBook.sol\":1735:1750  students.length */\n      dup1\n      sload\n      swap1\n      pop\n        /* \"contracts/StudentBook.sol\":1735:1754  students.length - 1 */\n      tag_68\n      swap2\n      swap1\n      tag_33\n      jump\t// in\n    tag_68:\n        /* \"contracts/StudentBook.sol\":1726:1731  index */\n      dup2\n        /* \"contracts/StudentBook.sol\":1726:1754  index != students.length - 1 */\n      eq\n        /* \"contracts/StudentBook.sol\":1722:1828  if (index != students.length - 1) {... */\n      tag_69\n      jumpi\n        /* \"contracts/StudentBook.sol\":1788:1796  students */\n      0x01\n        /* \"contracts/StudentBook.sol\":1815:1816  1 */\n      dup1\n        /* \"contracts/StudentBook.sol\":1797:1805  students */\n      dup1\n        /* \"contracts/StudentBook.sol\":1797:1812  students.length */\n      dup1\n      sload\n      swap1\n      pop\n        /* \"contracts/StudentBook.sol\":1797:1816  students.length - 1 */\n      tag_70\n      swap2\n      swap1\n      tag_33\n      jump\t// in\n    tag_70:\n        /* \"contracts/StudentBook.sol\":1788:1817  students[students.length - 1] */\n      dup2\n      sload\n      dup2\n      lt\n      tag_71\n      jumpi\n      tag_72\n      tag_36\n      jump\t// in\n    tag_72:\n    tag_71:\n      swap1\n      0x00\n      mstore\n      keccak256(0x00, 0x20)\n      swap1\n      0x04\n      mul\n      add\n        /* \"contracts/StudentBook.sol\":1770:1778  students */\n      0x01\n        /* \"contracts/StudentBook.sol\":1779:1784  index */\n      dup3\n        /* \"contracts/StudentBook.sol\":1770:1785  students[index] */\n      dup2\n      sload\n      dup2\n      lt\n      tag_74\n      jumpi\n      tag_75\n      tag_36\n      jump\t// in\n    tag_75:\n    tag_74:\n      swap1\n      0x00\n      mstore\n      keccak256(0x00, 0x20)\n      swap1\n      0x04\n      mul\n      add\n        /* \"contracts/StudentBook.sol\":1770:1817  students[index] = students[students.length - 1] */\n      0x00\n      dup3\n      add\n      0x00\n      swap1\n      sload\n      swap1\n      0x0100\n      exp\n      swap1\n      div\n      0xffffffffffffffffffffffffffffffffffffffff\n      and\n      dup2\n      0x00\n      add\n      exp(0x0100, 0x00)\n      dup2\n      sload\n      dup2\n      0xffffffffffffffffffffffffffffffffffffffff\n      mul\n      not\n      and\n      swap1\n      dup4\n      0xffffffffffffffffffffffffffffffffffffffff\n      and\n      mul\n      or\n      swap1\n      sstore\n      pop\n      0x01\n      dup3\n      add\n      dup2\n      0x01\n      add\n      swap1\n      dup2\n      tag_77\n      swap2\n      swap1\n      tag_78\n      jump\t// in\n    tag_77:\n      pop\n      0x02\n      dup3\n      add\n      0x00\n      swap1\n      sload\n      swap1\n      0x0100\n      exp\n      swap1\n      div\n      0xff\n      and\n      dup2\n      0x02\n      add\n      exp(0x0100, 0x00)\n      dup2\n      sload\n      dup2\n      0xff\n      mul\n      not\n      and\n      swap1\n      dup4\n      0xff\n      and\n      mul\n      or\n      swap1\n      sstore\n      pop\n      0x03\n      dup3\n      add\n      sload\n      dup2\n      0x03\n      add\n      sstore\n      swap1\n      pop\n      pop\n        /* \"contracts/StudentBook.sol\":1722:1828  if (index != students.length - 1) {... */\n    tag_69:\n        /* \"contracts/StudentBook.sol\":1838:1846  students */\n      0x01\n        /* \"contracts/StudentBook.sol\":1838:1852  students.pop() */\n      dup1\n      sload\n      dup1\n      tag_79\n      jumpi\n      tag_80\n      tag_81\n      jump\t// in\n    tag_80:\n    tag_79:\n      0x01\n      swap1\n      sub\n      dup2\n      dup2\n      swap1\n      0x00\n      mstore\n      keccak256(0x00, 0x20)\n      swap1\n      0x04\n      mul\n      add\n      0x00\n      dup1\n      dup3\n      add\n      exp(0x0100, 0x00)\n      dup2\n      sload\n      swap1\n      0xffffffffffffffffffffffffffffffffffffffff\n      mul\n      not\n      and\n      swap1\n      sstore\n      0x01\n      dup3\n      add\n      0x00\n      tag_83\n      swap2\n      swap1\n      tag_84\n      jump\t// in\n    tag_83:\n      0x02\n      dup3\n      add\n      exp(0x0100, 0x00)\n      dup2\n      sload\n      swap1\n      0xff\n      mul\n      not\n      and\n      swap1\n      sstore\n      0x03\n      dup3\n      add\n      0x00\n      swap1\n      sstore\n      pop\n      pop\n      swap1\n      sstore\n        /* \"contracts/StudentBook.sol\":1511:1859  {... */\n      pop\n        /* \"contracts/StudentBook.sol\":1461:1859  function deleteStudent(uint256 _studentId) public {... */\n      pop\n      jump\t// out\n        /* \"contracts/StudentBook.sol\":326:810  function addStudent(address _studentAddress, string memory _name, uint8 _age) public  {... */\n    tag_28:\n        /* \"contracts/StudentBook.sol\":439:449  msg.sender */\n      caller\n        /* \"contracts/StudentBook.sol\":430:449  owner == msg.sender */\n      0xffffffffffffffffffffffffffffffffffffffff\n      and\n        /* \"contracts/StudentBook.sol\":430:435  owner */\n      0x00\n      dup1\n      sload\n      swap1\n      0x0100\n      exp\n      swap1\n      div\n      0xffffffffffffffffffffffffffffffffffffffff\n      and\n        /* \"contracts/StudentBook.sol\":430:449  owner == msg.sender */\n      0xffffffffffffffffffffffffffffffffffffffff\n      and\n      eq\n        /* \"contracts/StudentBook.sol\":422:476  require(owner == msg.sender, \"You are not permitted \") */\n      tag_86\n      jumpi\n      mload(0x40)\n      0x08c379a000000000000000000000000000000000000000000000000000000000\n      dup2\n      mstore\n      0x04\n      add\n      tag_87\n      swap1\n      tag_88\n      jump\t// in\n    tag_87:\n      mload(0x40)\n      dup1\n      swap2\n      sub\n      swap1\n      revert\n    tag_86:\n        /* \"contracts/StudentBook.sol\":502:504  18 */\n      0x12\n        /* \"contracts/StudentBook.sol\":494:498  _age */\n      dup2\n        /* \"contracts/StudentBook.sol\":494:504  _age >= 18 */\n      0xff\n      and\n      lt\n      iszero\n        /* \"contracts/StudentBook.sol\":486:537  require(_age >= 18, \"Grow up a bit and try again!\") */\n      tag_89\n      jumpi\n      mload(0x40)\n      0x08c379a000000000000000000000000000000000000000000000000000000000\n      dup2\n      mstore\n      0x04\n      add\n      tag_90\n      swap1\n      tag_50\n      jump\t// in\n    tag_90:\n      mload(0x40)\n      dup1\n      swap2\n      sub\n      swap1\n      revert\n    tag_89:\n        /* \"contracts/StudentBook.sol\":548:566  uint256 _studentId */\n      0x00\n        /* \"contracts/StudentBook.sol\":587:588  1 */\n      0x01\n        /* \"contracts/StudentBook.sol\":569:577  students */\n      dup1\n        /* \"contracts/StudentBook.sol\":569:584  students.length */\n      dup1\n      sload\n      swap1\n      pop\n        /* \"contracts/StudentBook.sol\":569:588  students.length + 1 */\n      tag_91\n      swap2\n      swap1\n      tag_92\n      jump\t// in\n    tag_91:\n        /* \"contracts/StudentBook.sol\":548:588  uint256 _studentId = students.length + 1 */\n      swap1\n      pop\n        /* \"contracts/StudentBook.sol\":598:620  Student memory student */\n      0x00\n        /* \"contracts/StudentBook.sol\":623:770  Student({... */\n      mload(0x40)\n      dup1\n      0x80\n      add\n      0x40\n      mstore\n      dup1\n        /* \"contracts/StudentBook.sol\":661:676  _studentAddress */\n      dup7\n        /* \"contracts/StudentBook.sol\":623:770  Student({... */\n      0xffffffffffffffffffffffffffffffffffffffff\n      and\n      dup2\n      mstore\n      0x20\n      add\n        /* \"contracts/StudentBook.sol\":696:701  _name */\n      dup6\n        /* \"contracts/StudentBook.sol\":623:770  Student({... */\n      dup2\n      mstore\n      0x20\n      add\n        /* \"contracts/StudentBook.sol\":720:724  _age */\n      dup5\n        /* \"contracts/StudentBook.sol\":623:770  Student({... */\n      0xff\n      and\n      dup2\n      mstore\n      0x20\n      add\n        /* \"contracts/StudentBook.sol\":749:759  _studentId */\n      dup4\n        /* \"contracts/StudentBook.sol\":623:770  Student({... */\n      dup2\n      mstore\n      pop\n        /* \"contracts/StudentBook.sol\":598:770  Student memory student = Student({... */\n      swap1\n      pop\n        /* \"contracts/StudentBook.sol\":781:789  students */\n      0x01\n        /* \"contracts/StudentBook.sol\":795:802  student */\n      dup2\n        /* \"contracts/StudentBook.sol\":781:803  students.push(student) */\n      swap1\n      dup1\n      0x01\n      dup2\n      sload\n      add\n      dup1\n      dup3\n      sstore\n      dup1\n      swap2\n      pop\n      pop\n      0x01\n      swap1\n      sub\n      swap1\n      0x00\n      mstore\n      keccak256(0x00, 0x20)\n      swap1\n      0x04\n      mul\n      add\n      0x00\n      swap1\n      swap2\n      swap1\n      swap2\n      swap1\n      swap2\n      pop\n      0x00\n      dup3\n      add\n      mload\n      dup2\n      0x00\n      add\n      exp(0x0100, 0x00)\n      dup2\n      sload\n      dup2\n      0xffffffffffffffffffffffffffffffffffffffff\n      mul\n      not\n      and\n      swap1\n      dup4\n      0xffffffffffffffffffffffffffffffffffffffff\n      and\n      mul\n      or\n      swap1\n      sstore\n      pop\n      0x20\n      dup3\n      add\n      mload\n      dup2\n      0x01\n      add\n      swap1\n      dup2\n      tag_94\n      swap2\n      swap1\n      tag_60\n      jump\t// in\n    tag_94:\n      pop\n      0x40\n      dup3\n      add\n      mload\n      dup2\n      0x02\n      add\n      exp(0x0100, 0x00)\n      dup2\n      sload\n      dup2\n      0xff\n      mul\n      not\n      and\n      swap1\n      dup4\n      0xff\n      and\n      mul\n      or\n      swap1\n      sstore\n      pop\n      0x60\n      dup3\n      add\n      mload\n      dup2\n      0x03\n      add\n      sstore\n      pop\n      pop\n        /* \"contracts/StudentBook.sol\":412:810  {... */\n      pop\n      pop\n        /* \"contracts/StudentBook.sol\":326:810  function addStudent(address _studentAddress, string memory _name, uint8 _age) public  {... */\n      pop\n      pop\n      pop\n      jump\t// out\n    tag_30:\n      mload(0x40)\n      dup1\n      0x80\n      add\n      0x40\n      mstore\n      dup1\n      and(0xffffffffffffffffffffffffffffffffffffffff, 0x00)\n      dup2\n      mstore\n      0x20\n      add\n      0x60\n      dup2\n      mstore\n      0x20\n      add\n      and(0xff, 0x00)\n      dup2\n      mstore\n      0x20\n      add\n      0x00\n      dup2\n      mstore\n      pop\n      swap1\n      jump\t// out\n    tag_84:\n      pop\n      dup1\n      sload\n      tag_95\n      swap1\n      tag_39\n      jump\t// in\n    tag_95:\n      0x00\n      dup3\n      sstore\n      dup1\n      0x1f\n      lt\n      tag_97\n      jumpi\n      pop\n      jump(tag_96)\n    tag_97:\n      0x1f\n      add\n      0x20\n      swap1\n      div\n      swap1\n      0x00\n      mstore\n      keccak256(0x00, 0x20)\n      swap1\n      dup2\n      add\n      swap1\n      tag_98\n      swap2\n      swap1\n      tag_99\n      jump\t// in\n    tag_98:\n    tag_96:\n      pop\n      jump\t// out\n    tag_99:\n    tag_100:\n      dup1\n      dup3\n      gt\n      iszero\n      tag_101\n      jumpi\n      0x00\n      dup2\n      0x00\n      swap1\n      sstore\n      pop\n      0x01\n      add\n      jump(tag_100)\n    tag_101:\n      pop\n      swap1\n      jump\t// out\n        /* \"#utility.yul\":7:82   */\n    tag_102:\n        /* \"#utility.yul\":40:46   */\n      0x00\n        /* \"#utility.yul\":73:75   */\n      0x40\n        /* \"#utility.yul\":67:76   */\n      mload\n        /* \"#utility.yul\":57:76   */\n      swap1\n      pop\n        /* \"#utility.yul\":7:82   */\n      swap1\n      jump\t// out\n        /* \"#utility.yul\":88:205   */\n    tag_103:\n        /* \"#utility.yul\":197:198   */\n      0x00\n        /* \"#utility.yul\":194:195   */\n      dup1\n        /* \"#utility.yul\":187:199   */\n      revert\n        /* \"#utility.yul\":211:328   */\n    tag_104:\n        /* \"#utility.yul\":320:321   */\n      0x00\n        /* \"#utility.yul\":317:318   */\n      dup1\n        /* \"#utility.yul\":310:322   */\n      revert\n        /* \"#utility.yul\":334:411   */\n    tag_105:\n        /* \"#utility.yul\":371:378   */\n      0x00\n        /* \"#utility.yul\":400:405   */\n      dup2\n        /* \"#utility.yul\":389:405   */\n      swap1\n      pop\n        /* \"#utility.yul\":334:411   */\n      swap2\n      swap1\n      pop\n      jump\t// out\n        /* \"#utility.yul\":417:539   */\n    tag_106:\n        /* \"#utility.yul\":490:514   */\n      tag_167\n        /* \"#utility.yul\":508:513   */\n      dup2\n        /* \"#utility.yul\":490:514   */\n      tag_105\n      jump\t// in\n    tag_167:\n        /* \"#utility.yul\":483:488   */\n      dup2\n        /* \"#utility.yul\":480:515   */\n      eq\n        /* \"#utility.yul\":470:533   */\n      tag_168\n      jumpi\n        /* \"#utility.yul\":529:530   */\n      0x00\n        /* \"#utility.yul\":526:527   */\n      dup1\n        /* \"#utility.yul\":519:531   */\n      revert\n        /* \"#utility.yul\":470:533   */\n    tag_168:\n        /* \"#utility.yul\":417:539   */\n      pop\n      jump\t// out\n        /* \"#utility.yul\":545:684   */\n    tag_107:\n        /* \"#utility.yul\":591:596   */\n      0x00\n        /* \"#utility.yul\":629:635   */\n      dup2\n        /* \"#utility.yul\":616:636   */\n      calldataload\n        /* \"#utility.yul\":607:636   */\n      swap1\n      pop\n        /* \"#utility.yul\":645:678   */\n      tag_170\n        /* \"#utility.yul\":672:677   */\n      dup2\n        /* \"#utility.yul\":645:678   */\n      tag_106\n      jump\t// in\n    tag_170:\n        /* \"#utility.yul\":545:684   */\n      swap3\n      swap2\n      pop\n      pop\n      jump\t// out\n        /* \"#utility.yul\":690:1019   */\n    tag_10:\n        /* \"#utility.yul\":749:755   */\n      0x00\n        /* \"#utility.yul\":798:800   */\n      0x20\n        /* \"#utility.yul\":786:795   */\n      dup3\n        /* \"#utility.yul\":777:784   */\n      dup5\n        /* \"#utility.yul\":773:796   */\n      sub\n        /* \"#utility.yul\":769:801   */\n      slt\n        /* \"#utility.yul\":766:885   */\n      iszero\n      tag_172\n      jumpi\n        /* \"#utility.yul\":804:883   */\n      tag_173\n      tag_103\n      jump\t// in\n    tag_173:\n        /* \"#utility.yul\":766:885   */\n    tag_172:\n        /* \"#utility.yul\":924:925   */\n      0x00\n        /* \"#utility.yul\":949:1002   */\n      tag_174\n        /* \"#utility.yul\":994:1001   */\n      dup5\n        /* \"#utility.yul\":985:991   */\n      dup3\n        /* \"#utility.yul\":974:983   */\n      dup6\n        /* \"#utility.yul\":970:992   */\n      add\n        /* \"#utility.yul\":949:1002   */\n      tag_107\n      jump\t// in\n    tag_174:\n        /* \"#utility.yul\":939:1002   */\n      swap2\n      pop\n        /* \"#utility.yul\":895:1012   */\n      pop\n        /* \"#utility.yul\":690:1019   */\n      swap3\n      swap2\n      pop\n      pop\n      jump\t// out\n        /* \"#utility.yul\":1025:1151   */\n    tag_108:\n        /* \"#utility.yul\":1062:1069   */\n      0x00\n        /* \"#utility.yul\":1102:1144   */\n      0xffffffffffffffffffffffffffffffffffffffff\n        /* \"#utility.yul\":1095:1100   */\n      dup3\n        /* \"#utility.yul\":1091:1145   */\n      and\n        /* \"#utility.yul\":1080:1145   */\n      swap1\n      pop\n        /* \"#utility.yul\":1025:1151   */\n      swap2\n      swap1\n      pop\n      jump\t// out\n        /* \"#utility.yul\":1157:1253   */\n    tag_109:\n        /* \"#utility.yul\":1194:1201   */\n      0x00\n        /* \"#utility.yul\":1223:1247   */\n      tag_177\n        /* \"#utility.yul\":1241:1246   */\n      dup3\n        /* \"#utility.yul\":1223:1247   */\n      tag_108\n      jump\t// in\n    tag_177:\n        /* \"#utility.yul\":1212:1247   */\n      swap1\n      pop\n        /* \"#utility.yul\":1157:1253   */\n      swap2\n      swap1\n      pop\n      jump\t// out\n        /* \"#utility.yul\":1259:1367   */\n    tag_110:\n        /* \"#utility.yul\":1336:1360   */\n      tag_179\n        /* \"#utility.yul\":1354:1359   */\n      dup2\n        /* \"#utility.yul\":1336:1360   */\n      tag_109\n      jump\t// in\n    tag_179:\n        /* \"#utility.yul\":1331:1334   */\n      dup3\n        /* \"#utility.yul\":1324:1361   */\n      mstore\n        /* \"#utility.yul\":1259:1367   */\n      pop\n      pop\n      jump\t// out\n        /* \"#utility.yul\":1373:1472   */\n    tag_111:\n        /* \"#utility.yul\":1425:1431   */\n      0x00\n        /* \"#utility.yul\":1459:1464   */\n      dup2\n        /* \"#utility.yul\":1453:1465   */\n      mload\n        /* \"#utility.yul\":1443:1465   */\n      swap1\n      pop\n        /* \"#utility.yul\":1373:1472   */\n      swap2\n      swap1\n      pop\n      jump\t// out\n        /* \"#utility.yul\":1478:1637   */\n    tag_112:\n        /* \"#utility.yul\":1552:1563   */\n      0x00\n        /* \"#utility.yul\":1586:1592   */\n      dup3\n        /* \"#utility.yul\":1581:1584   */\n      dup3\n        /* \"#utility.yul\":1574:1593   */\n      mstore\n        /* \"#utility.yul\":1626:1630   */\n      0x20\n        /* \"#utility.yul\":1621:1624   */\n      dup3\n        /* \"#utility.yul\":1617:1631   */\n      add\n        /* \"#utility.yul\":1602:1631   */\n      swap1\n      pop\n        /* \"#utility.yul\":1478:1637   */\n      swap3\n      swap2\n      pop\n      pop\n      jump\t// out\n        /* \"#utility.yul\":1643:1889   */\n    tag_113:\n        /* \"#utility.yul\":1724:1725   */\n      0x00\n        /* \"#utility.yul\":1734:1847   */\n    tag_183:\n        /* \"#utility.yul\":1748:1754   */\n      dup4\n        /* \"#utility.yul\":1745:1746   */\n      dup2\n        /* \"#utility.yul\":1742:1755   */\n      lt\n        /* \"#utility.yul\":1734:1847   */\n      iszero\n      tag_185\n      jumpi\n        /* \"#utility.yul\":1833:1834   */\n      dup1\n        /* \"#utility.yul\":1828:1831   */\n      dup3\n        /* \"#utility.yul\":1824:1835   */\n      add\n        /* \"#utility.yul\":1818:1836   */\n      mload\n        /* \"#utility.yul\":1814:1815   */\n      dup2\n        /* \"#utility.yul\":1809:1812   */\n      dup5\n        /* \"#utility.yul\":1805:1816   */\n      add\n        /* \"#utility.yul\":1798:1837   */\n      mstore\n        /* \"#utility.yul\":1770:1772   */\n      0x20\n        /* \"#utility.yul\":1767:1768   */\n      dup2\n        /* \"#utility.yul\":1763:1773   */\n      add\n        /* \"#utility.yul\":1758:1773   */\n      swap1\n      pop\n        /* \"#utility.yul\":1734:1847   */\n      jump(tag_183)\n    tag_185:\n        /* \"#utility.yul\":1881:1882   */\n      0x00\n        /* \"#utility.yul\":1872:1878   */\n      dup5\n        /* \"#utility.yul\":1867:1870   */\n      dup5\n        /* \"#utility.yul\":1863:1879   */\n      add\n        /* \"#utility.yul\":1856:1883   */\n      mstore\n        /* \"#utility.yul\":1705:1889   */\n      pop\n        /* \"#utility.yul\":1643:1889   */\n      pop\n      pop\n      pop\n      jump\t// out\n        /* \"#utility.yul\":1895:1997   */\n    tag_114:\n        /* \"#utility.yul\":1936:1942   */\n      0x00\n        /* \"#utility.yul\":1987:1989   */\n      0x1f\n        /* \"#utility.yul\":1983:1990   */\n      not\n        /* \"#utility.yul\":1978:1980   */\n      0x1f\n        /* \"#utility.yul\":1971:1976   */\n      dup4\n        /* \"#utility.yul\":1967:1981   */\n      add\n        /* \"#utility.yul\":1963:1991   */\n      and\n        /* \"#utility.yul\":1953:1991   */\n      swap1\n      pop\n        /* \"#utility.yul\":1895:1997   */\n      swap2\n      swap1\n      pop\n      jump\t// out\n        /* \"#utility.yul\":2003:2360   */\n    tag_115:\n        /* \"#utility.yul\":2081:2084   */\n      0x00\n        /* \"#utility.yul\":2109:2148   */\n      tag_188\n        /* \"#utility.yul\":2142:2147   */\n      dup3\n        /* \"#utility.yul\":2109:2148   */\n      tag_111\n      jump\t// in\n    tag_188:\n        /* \"#utility.yul\":2164:2225   */\n      tag_189\n        /* \"#utility.yul\":2218:2224   */\n      dup2\n        /* \"#utility.yul\":2213:2216   */\n      dup6\n        /* \"#utility.yul\":2164:2225   */\n      tag_112\n      jump\t// in\n    tag_189:\n        /* \"#utility.yul\":2157:2225   */\n      swap4\n      pop\n        /* \"#utility.yul\":2234:2299   */\n      tag_190\n        /* \"#utility.yul\":2292:2298   */\n      dup2\n        /* \"#utility.yul\":2287:2290   */\n      dup6\n        /* \"#utility.yul\":2280:2284   */\n      0x20\n        /* \"#utility.yul\":2273:2278   */\n      dup7\n        /* \"#utility.yul\":2269:2285   */\n      add\n        /* \"#utility.yul\":2234:2299   */\n      tag_113\n      jump\t// in\n    tag_190:\n        /* \"#utility.yul\":2324:2353   */\n      tag_191\n        /* \"#utility.yul\":2346:2352   */\n      dup2\n        /* \"#utility.yul\":2324:2353   */\n      tag_114\n      jump\t// in\n    tag_191:\n        /* \"#utility.yul\":2319:2322   */\n      dup5\n        /* \"#utility.yul\":2315:2354   */\n      add\n        /* \"#utility.yul\":2308:2354   */\n      swap2\n      pop\n        /* \"#utility.yul\":2085:2360   */\n      pop\n        /* \"#utility.yul\":2003:2360   */\n      swap3\n      swap2\n      pop\n      pop\n      jump\t// out\n        /* \"#utility.yul\":2366:2452   */\n    tag_116:\n        /* \"#utility.yul\":2401:2408   */\n      0x00\n        /* \"#utility.yul\":2441:2445   */\n      0xff\n        /* \"#utility.yul\":2434:2439   */\n      dup3\n        /* \"#utility.yul\":2430:2446   */\n      and\n        /* \"#utility.yul\":2419:2446   */\n      swap1\n      pop\n        /* \"#utility.yul\":2366:2452   */\n      swap2\n      swap1\n      pop\n      jump\t// out\n        /* \"#utility.yul\":2458:2560   */\n    tag_117:\n        /* \"#utility.yul\":2531:2553   */\n      tag_194\n        /* \"#utility.yul\":2547:2552   */\n      dup2\n        /* \"#utility.yul\":2531:2553   */\n      tag_116\n      jump\t// in\n    tag_194:\n        /* \"#utility.yul\":2526:2529   */\n      dup3\n        /* \"#utility.yul\":2519:2554   */\n      mstore\n        /* \"#utility.yul\":2458:2560   */\n      pop\n      pop\n      jump\t// out\n        /* \"#utility.yul\":2566:2674   */\n    tag_118:\n        /* \"#utility.yul\":2643:2667   */\n      tag_196\n        /* \"#utility.yul\":2661:2666   */\n      dup2\n        /* \"#utility.yul\":2643:2667   */\n      tag_105\n      jump\t// in\n    tag_196:\n        /* \"#utility.yul\":2638:2641   */\n      dup3\n        /* \"#utility.yul\":2631:2668   */\n      mstore\n        /* \"#utility.yul\":2566:2674   */\n      pop\n      pop\n      jump\t// out\n        /* \"#utility.yul\":2744:3704   */\n    tag_119:\n        /* \"#utility.yul\":2859:2862   */\n      0x00\n        /* \"#utility.yul\":2895:2899   */\n      0x80\n        /* \"#utility.yul\":2890:2893   */\n      dup4\n        /* \"#utility.yul\":2886:2900   */\n      add\n        /* \"#utility.yul\":2992:2996   */\n      0x00\n        /* \"#utility.yul\":2985:2990   */\n      dup4\n        /* \"#utility.yul\":2981:2997   */\n      add\n        /* \"#utility.yul\":2975:2998   */\n      mload\n        /* \"#utility.yul\":3011:3074   */\n      tag_198\n        /* \"#utility.yul\":3068:3072   */\n      0x00\n        /* \"#utility.yul\":3063:3066   */\n      dup7\n        /* \"#utility.yul\":3059:3073   */\n      add\n        /* \"#utility.yul\":3045:3057   */\n      dup3\n        /* \"#utility.yul\":3011:3074   */\n      tag_110\n      jump\t// in\n    tag_198:\n        /* \"#utility.yul\":2910:3084   */\n      pop\n        /* \"#utility.yul\":3166:3170   */\n      0x20\n        /* \"#utility.yul\":3159:3164   */\n      dup4\n        /* \"#utility.yul\":3155:3171   */\n      add\n        /* \"#utility.yul\":3149:3172   */\n      mload\n        /* \"#utility.yul\":3219:3222   */\n      dup5\n        /* \"#utility.yul\":3213:3217   */\n      dup3\n        /* \"#utility.yul\":3209:3223   */\n      sub\n        /* \"#utility.yul\":3202:3206   */\n      0x20\n        /* \"#utility.yul\":3197:3200   */\n      dup7\n        /* \"#utility.yul\":3193:3207   */\n      add\n        /* \"#utility.yul\":3186:3224   */\n      mstore\n        /* \"#utility.yul\":3245:3318   */\n      tag_199\n        /* \"#utility.yul\":3313:3317   */\n      dup3\n        /* \"#utility.yul\":3299:3311   */\n      dup3\n        /* \"#utility.yul\":3245:3318   */\n      tag_115\n      jump\t// in\n    tag_199:\n        /* \"#utility.yul\":3237:3318   */\n      swap2\n      pop\n        /* \"#utility.yul\":3094:3329   */\n      pop\n        /* \"#utility.yul\":3410:3414   */\n      0x40\n        /* \"#utility.yul\":3403:3408   */\n      dup4\n        /* \"#utility.yul\":3399:3415   */\n      add\n        /* \"#utility.yul\":3393:3416   */\n      mload\n        /* \"#utility.yul\":3429:3488   */\n      tag_200\n        /* \"#utility.yul\":3482:3486   */\n      0x40\n        /* \"#utility.yul\":3477:3480   */\n      dup7\n        /* \"#utility.yul\":3473:3487   */\n      add\n        /* \"#utility.yul\":3459:3471   */\n      dup3\n        /* \"#utility.yul\":3429:3488   */\n      tag_117\n      jump\t// in\n    tag_200:\n        /* \"#utility.yul\":3339:3498   */\n      pop\n        /* \"#utility.yul\":3585:3589   */\n      0x60\n        /* \"#utility.yul\":3578:3583   */\n      dup4\n        /* \"#utility.yul\":3574:3590   */\n      add\n        /* \"#utility.yul\":3568:3591   */\n      mload\n        /* \"#utility.yul\":3604:3667   */\n      tag_201\n        /* \"#utility.yul\":3661:3665   */\n      0x60\n        /* \"#utility.yul\":3656:3659   */\n      dup7\n        /* \"#utility.yul\":3652:3666   */\n      add\n        /* \"#utility.yul\":3638:3650   */\n      dup3\n        /* \"#utility.yul\":3604:3667   */\n      tag_118\n      jump\t// in\n    tag_201:\n        /* \"#utility.yul\":3508:3677   */\n      pop\n        /* \"#utility.yul\":3694:3698   */\n      dup1\n        /* \"#utility.yul\":3687:3698   */\n      swap2\n      pop\n        /* \"#utility.yul\":2864:3704   */\n      pop\n        /* \"#utility.yul\":2744:3704   */\n      swap3\n      swap2\n      pop\n      pop\n      jump\t// out\n        /* \"#utility.yul\":3710:4075   */\n    tag_13:\n        /* \"#utility.yul\":3849:3853   */\n      0x00\n        /* \"#utility.yul\":3887:3889   */\n      0x20\n        /* \"#utility.yul\":3876:3885   */\n      dup3\n        /* \"#utility.yul\":3872:3890   */\n      add\n        /* \"#utility.yul\":3864:3890   */\n      swap1\n      pop\n        /* \"#utility.yul\":3936:3945   */\n      dup2\n        /* \"#utility.yul\":3930:3934   */\n      dup2\n        /* \"#utility.yul\":3926:3946   */\n      sub\n        /* \"#utility.yul\":3922:3923   */\n      0x00\n        /* \"#utility.yul\":3911:3920   */\n      dup4\n        /* \"#utility.yul\":3907:3924   */\n      add\n        /* \"#utility.yul\":3900:3947   */\n      mstore\n        /* \"#utility.yul\":3964:4068   */\n      tag_203\n        /* \"#utility.yul\":4063:4067   */\n      dup2\n        /* \"#utility.yul\":4054:4060   */\n      dup5\n        /* \"#utility.yul\":3964:4068   */\n      tag_119\n      jump\t// in\n    tag_203:\n        /* \"#utility.yul\":3956:4068   */\n      swap1\n      pop\n        /* \"#utility.yul\":3710:4075   */\n      swap3\n      swap2\n      pop\n      pop\n      jump\t// out\n        /* \"#utility.yul\":4081:4199   */\n    tag_120:\n        /* \"#utility.yul\":4152:4174   */\n      tag_205\n        /* \"#utility.yul\":4168:4173   */\n      dup2\n        /* \"#utility.yul\":4152:4174   */\n      tag_116\n      jump\t// in\n    tag_205:\n        /* \"#utility.yul\":4145:4150   */\n      dup2\n        /* \"#utility.yul\":4142:4175   */\n      eq\n        /* \"#utility.yul\":4132:4193   */\n      tag_206\n      jumpi\n        /* \"#utility.yul\":4189:4190   */\n      0x00\n        /* \"#utility.yul\":4186:4187   */\n      dup1\n        /* \"#utility.yul\":4179:4191   */\n      revert\n        /* \"#utility.yul\":4132:4193   */\n    tag_206:\n        /* \"#utility.yul\":4081:4199   */\n      pop\n      jump\t// out\n        /* \"#utility.yul\":4205:4340   */\n    tag_121:\n        /* \"#utility.yul\":4249:4254   */\n      0x00\n        /* \"#utility.yul\":4287:4293   */\n      dup2\n        /* \"#utility.yul\":4274:4294   */\n      calldataload\n        /* \"#utility.yul\":4265:4294   */\n      swap1\n      pop\n        /* \"#utility.yul\":4303:4334   */\n      tag_208\n        /* \"#utility.yul\":4328:4333   */\n      dup2\n        /* \"#utility.yul\":4303:4334   */\n      tag_120\n      jump\t// in\n    tag_208:\n        /* \"#utility.yul\":4205:4340   */\n      swap3\n      swap2\n      pop\n      pop\n      jump\t// out\n        /* \"#utility.yul\":4346:4463   */\n    tag_122:\n        /* \"#utility.yul\":4455:4456   */\n      0x00\n        /* \"#utility.yul\":4452:4453   */\n      dup1\n        /* \"#utility.yul\":4445:4457   */\n      revert\n        /* \"#utility.yul\":4469:4586   */\n    tag_123:\n        /* \"#utility.yul\":4578:4579   */\n      0x00\n        /* \"#utility.yul\":4575:4576   */\n      dup1\n        /* \"#utility.yul\":4568:4580   */\n      revert\n        /* \"#utility.yul\":4592:4772   */\n    tag_124:\n        /* \"#utility.yul\":4640:4717   */\n      0x4e487b7100000000000000000000000000000000000000000000000000000000\n        /* \"#utility.yul\":4637:4638   */\n      0x00\n        /* \"#utility.yul\":4630:4718   */\n      mstore\n        /* \"#utility.yul\":4737:4741   */\n      0x41\n        /* \"#utility.yul\":4734:4735   */\n      0x04\n        /* \"#utility.yul\":4727:4742   */\n      mstore\n        /* \"#utility.yul\":4761:4765   */\n      0x24\n        /* \"#utility.yul\":4758:4759   */\n      0x00\n        /* \"#utility.yul\":4751:4766   */\n      revert\n        /* \"#utility.yul\":4778:5059   */\n    tag_125:\n        /* \"#utility.yul\":4861:4888   */\n      tag_213\n        /* \"#utility.yul\":4883:4887   */\n      dup3\n        /* \"#utility.yul\":4861:4888   */\n      tag_114\n      jump\t// in\n    tag_213:\n        /* \"#utility.yul\":4853:4859   */\n      dup2\n        /* \"#utility.yul\":4849:4889   */\n      add\n        /* \"#utility.yul\":4991:4997   */\n      dup2\n        /* \"#utility.yul\":4979:4989   */\n      dup2\n        /* \"#utility.yul\":4976:4998   */\n      lt\n        /* \"#utility.yul\":4955:4973   */\n      0xffffffffffffffff\n        /* \"#utility.yul\":4943:4953   */\n      dup3\n        /* \"#utility.yul\":4940:4974   */\n      gt\n        /* \"#utility.yul\":4937:4999   */\n      or\n        /* \"#utility.yul\":4934:5022   */\n      iszero\n      tag_214\n      jumpi\n        /* \"#utility.yul\":5002:5020   */\n      tag_215\n      tag_124\n      jump\t// in\n    tag_215:\n        /* \"#utility.yul\":4934:5022   */\n    tag_214:\n        /* \"#utility.yul\":5042:5052   */\n      dup1\n        /* \"#utility.yul\":5038:5040   */\n      0x40\n        /* \"#utility.yul\":5031:5053   */\n      mstore\n        /* \"#utility.yul\":4821:5059   */\n      pop\n        /* \"#utility.yul\":4778:5059   */\n      pop\n      pop\n      jump\t// out\n        /* \"#utility.yul\":5065:5194   */\n    tag_126:\n        /* \"#utility.yul\":5099:5105   */\n      0x00\n        /* \"#utility.yul\":5126:5146   */\n      tag_217\n      tag_102\n      jump\t// in\n    tag_217:\n        /* \"#utility.yul\":5116:5146   */\n      swap1\n      pop\n        /* \"#utility.yul\":5155:5188   */\n      tag_218\n        /* \"#utility.yul\":5183:5187   */\n      dup3\n        /* \"#utility.yul\":5175:5181   */\n      dup3\n        /* \"#utility.yul\":5155:5188   */\n      tag_125\n      jump\t// in\n    tag_218:\n        /* \"#utility.yul\":5065:5194   */\n      swap2\n      swap1\n      pop\n      jump\t// out\n        /* \"#utility.yul\":5200:5508   */\n    tag_127:\n        /* \"#utility.yul\":5262:5266   */\n      0x00\n        /* \"#utility.yul\":5352:5370   */\n      0xffffffffffffffff\n        /* \"#utility.yul\":5344:5350   */\n      dup3\n        /* \"#utility.yul\":5341:5371   */\n      gt\n        /* \"#utility.yul\":5338:5394   */\n      iszero\n      tag_220\n      jumpi\n        /* \"#utility.yul\":5374:5392   */\n      tag_221\n      tag_124\n      jump\t// in\n    tag_221:\n        /* \"#utility.yul\":5338:5394   */\n    tag_220:\n        /* \"#utility.yul\":5412:5441   */\n      tag_222\n        /* \"#utility.yul\":5434:5440   */\n      dup3\n        /* \"#utility.yul\":5412:5441   */\n      tag_114\n      jump\t// in\n    tag_222:\n        /* \"#utility.yul\":5404:5441   */\n      swap1\n      pop\n        /* \"#utility.yul\":5496:5500   */\n      0x20\n        /* \"#utility.yul\":5490:5494   */\n      dup2\n        /* \"#utility.yul\":5486:5501   */\n      add\n        /* \"#utility.yul\":5478:5501   */\n      swap1\n      pop\n        /* \"#utility.yul\":5200:5508   */\n      swap2\n      swap1\n      pop\n      jump\t// out\n        /* \"#utility.yul\":5514:5660   */\n    tag_128:\n        /* \"#utility.yul\":5611:5617   */\n      dup3\n        /* \"#utility.yul\":5606:5609   */\n      dup2\n        /* \"#utility.yul\":5601:5604   */\n      dup4\n        /* \"#utility.yul\":5588:5618   */\n      calldatacopy\n        /* \"#utility.yul\":5652:5653   */\n      0x00\n        /* \"#utility.yul\":5643:5649   */\n      dup4\n        /* \"#utility.yul\":5638:5641   */\n      dup4\n        /* \"#utility.yul\":5634:5650   */\n      add\n        /* \"#utility.yul\":5627:5654   */\n      mstore\n        /* \"#utility.yul\":5514:5660   */\n      pop\n      pop\n      pop\n      jump\t// out\n        /* \"#utility.yul\":5666:6091   */\n    tag_129:\n        /* \"#utility.yul\":5744:5749   */\n      0x00\n        /* \"#utility.yul\":5769:5835   */\n      tag_225\n        /* \"#utility.yul\":5785:5834   */\n      tag_226\n        /* \"#utility.yul\":5827:5833   */\n      dup5\n        /* \"#utility.yul\":5785:5834   */\n      tag_127\n      jump\t// in\n    tag_226:\n        /* \"#utility.yul\":5769:5835   */\n      tag_126\n      jump\t// in\n    tag_225:\n        /* \"#utility.yul\":5760:5835   */\n      swap1\n      pop\n        /* \"#utility.yul\":5858:5864   */\n      dup3\n        /* \"#utility.yul\":5851:5856   */\n      dup2\n        /* \"#utility.yul\":5844:5865   */\n      mstore\n        /* \"#utility.yul\":5896:5900   */\n      0x20\n        /* \"#utility.yul\":5889:5894   */\n      dup2\n        /* \"#utility.yul\":5885:5901   */\n      add\n        /* \"#utility.yul\":5934:5937   */\n      dup5\n        /* \"#utility.yul\":5925:5931   */\n      dup5\n        /* \"#utility.yul\":5920:5923   */\n      dup5\n        /* \"#utility.yul\":5916:5932   */\n      add\n        /* \"#utility.yul\":5913:5938   */\n      gt\n        /* \"#utility.yul\":5910:6022   */\n      iszero\n      tag_227\n      jumpi\n        /* \"#utility.yul\":5941:6020   */\n      tag_228\n      tag_123\n      jump\t// in\n    tag_228:\n        /* \"#utility.yul\":5910:6022   */\n    tag_227:\n        /* \"#utility.yul\":6031:6085   */\n      tag_229\n        /* \"#utility.yul\":6078:6084   */\n      dup5\n        /* \"#utility.yul\":6073:6076   */\n      dup3\n        /* \"#utility.yul\":6068:6071   */\n      dup6\n        /* \"#utility.yul\":6031:6085   */\n      tag_128\n      jump\t// in\n    tag_229:\n        /* \"#utility.yul\":5750:6091   */\n      pop\n        /* \"#utility.yul\":5666:6091   */\n      swap4\n      swap3\n      pop\n      pop\n      pop\n      jump\t// out\n        /* \"#utility.yul\":6111:6451   */\n    tag_130:\n        /* \"#utility.yul\":6167:6172   */\n      0x00\n        /* \"#utility.yul\":6216:6219   */\n      dup3\n        /* \"#utility.yul\":6209:6213   */\n      0x1f\n        /* \"#utility.yul\":6201:6207   */\n      dup4\n        /* \"#utility.yul\":6197:6214   */\n      add\n        /* \"#utility.yul\":6193:6220   */\n      slt\n        /* \"#utility.yul\":6183:6305   */\n      tag_231\n      jumpi\n        /* \"#utility.yul\":6224:6303   */\n      tag_232\n      tag_122\n      jump\t// in\n    tag_232:\n        /* \"#utility.yul\":6183:6305   */\n    tag_231:\n        /* \"#utility.yul\":6341:6347   */\n      dup2\n        /* \"#utility.yul\":6328:6348   */\n      calldataload\n        /* \"#utility.yul\":6366:6445   */\n      tag_233\n        /* \"#utility.yul\":6441:6444   */\n      dup5\n        /* \"#utility.yul\":6433:6439   */\n      dup3\n        /* \"#utility.yul\":6426:6430   */\n      0x20\n        /* \"#utility.yul\":6418:6424   */\n      dup7\n        /* \"#utility.yul\":6414:6431   */\n      add\n        /* \"#utility.yul\":6366:6445   */\n      tag_129\n      jump\t// in\n    tag_233:\n        /* \"#utility.yul\":6357:6445   */\n      swap2\n      pop\n        /* \"#utility.yul\":6173:6451   */\n      pop\n        /* \"#utility.yul\":6111:6451   */\n      swap3\n      swap2\n      pop\n      pop\n      jump\t// out\n        /* \"#utility.yul\":6457:6579   */\n    tag_131:\n        /* \"#utility.yul\":6530:6554   */\n      tag_235\n        /* \"#utility.yul\":6548:6553   */\n      dup2\n        /* \"#utility.yul\":6530:6554   */\n      tag_109\n      jump\t// in\n    tag_235:\n        /* \"#utility.yul\":6523:6528   */\n      dup2\n        /* \"#utility.yul\":6520:6555   */\n      eq\n        /* \"#utility.yul\":6510:6573   */\n      tag_236\n      jumpi\n        /* \"#utility.yul\":6569:6570   */\n      0x00\n        /* \"#utility.yul\":6566:6567   */\n      dup1\n        /* \"#utility.yul\":6559:6571   */\n      revert\n        /* \"#utility.yul\":6510:6573   */\n    tag_236:\n        /* \"#utility.yul\":6457:6579   */\n      pop\n      jump\t// out\n        /* \"#utility.yul\":6585:6724   */\n    tag_132:\n        /* \"#utility.yul\":6631:6636   */\n      0x00\n        /* \"#utility.yul\":6669:6675   */\n      dup2\n        /* \"#utility.yul\":6656:6676   */\n      calldataload\n        /* \"#utility.yul\":6647:6676   */\n      swap1\n      pop\n        /* \"#utility.yul\":6685:6718   */\n      tag_238\n        /* \"#utility.yul\":6712:6717   */\n      dup2\n        /* \"#utility.yul\":6685:6718   */\n      tag_131\n      jump\t// in\n    tag_238:\n        /* \"#utility.yul\":6585:6724   */\n      swap3\n      swap2\n      pop\n      pop\n      jump\t// out\n        /* \"#utility.yul\":6730:7671   */\n    tag_16:\n        /* \"#utility.yul\":6824:6830   */\n      0x00\n        /* \"#utility.yul\":6832:6838   */\n      dup1\n        /* \"#utility.yul\":6840:6846   */\n      0x00\n        /* \"#utility.yul\":6848:6854   */\n      dup1\n        /* \"#utility.yul\":6897:6900   */\n      0x80\n        /* \"#utility.yul\":6885:6894   */\n      dup6\n        /* \"#utility.yul\":6876:6883   */\n      dup8\n        /* \"#utility.yul\":6872:6895   */\n      sub\n        /* \"#utility.yul\":6868:6901   */\n      slt\n        /* \"#utility.yul\":6865:6985   */\n      iszero\n      tag_240\n      jumpi\n        /* \"#utility.yul\":6904:6983   */\n      tag_241\n      tag_103\n      jump\t// in\n    tag_241:\n        /* \"#utility.yul\":6865:6985   */\n    tag_240:\n        /* \"#utility.yul\":7024:7025   */\n      0x00\n        /* \"#utility.yul\":7049:7102   */\n      tag_242\n        /* \"#utility.yul\":7094:7101   */\n      dup8\n        /* \"#utility.yul\":7085:7091   */\n      dup3\n        /* \"#utility.yul\":7074:7083   */\n      dup9\n        /* \"#utility.yul\":7070:7092   */\n      add\n        /* \"#utility.yul\":7049:7102   */\n      tag_107\n      jump\t// in\n    tag_242:\n        /* \"#utility.yul\":7039:7102   */\n      swap5\n      pop\n        /* \"#utility.yul\":6995:7112   */\n      pop\n        /* \"#utility.yul\":7151:7153   */\n      0x20\n        /* \"#utility.yul\":7177:7228   */\n      tag_243\n        /* \"#utility.yul\":7220:7227   */\n      dup8\n        /* \"#utility.yul\":7211:7217   */\n      dup3\n        /* \"#utility.yul\":7200:7209   */\n      dup9\n        /* \"#utility.yul\":7196:7218   */\n      add\n        /* \"#utility.yul\":7177:7228   */\n      tag_121\n      jump\t// in\n    tag_243:\n        /* \"#utility.yul\":7167:7228   */\n      swap4\n      pop\n        /* \"#utility.yul\":7122:7238   */\n      pop\n        /* \"#utility.yul\":7305:7307   */\n      0x40\n        /* \"#utility.yul\":7294:7303   */\n      dup6\n        /* \"#utility.yul\":7290:7308   */\n      add\n        /* \"#utility.yul\":7277:7309   */\n      calldataload\n        /* \"#utility.yul\":7336:7354   */\n      0xffffffffffffffff\n        /* \"#utility.yul\":7328:7334   */\n      dup2\n        /* \"#utility.yul\":7325:7355   */\n      gt\n        /* \"#utility.yul\":7322:7439   */\n      iszero\n      tag_244\n      jumpi\n        /* \"#utility.yul\":7358:7437   */\n      tag_245\n      tag_104\n      jump\t// in\n    tag_245:\n        /* \"#utility.yul\":7322:7439   */\n    tag_244:\n        /* \"#utility.yul\":7463:7526   */\n      tag_246\n        /* \"#utility.yul\":7518:7525   */\n      dup8\n        /* \"#utility.yul\":7509:7515   */\n      dup3\n        /* \"#utility.yul\":7498:7507   */\n      dup9\n        /* \"#utility.yul\":7494:7516   */\n      add\n        /* \"#utility.yul\":7463:7526   */\n      tag_130\n      jump\t// in\n    tag_246:\n        /* \"#utility.yul\":7453:7526   */\n      swap3\n      pop\n        /* \"#utility.yul\":7248:7536   */\n      pop\n        /* \"#utility.yul\":7575:7577   */\n      0x60\n        /* \"#utility.yul\":7601:7654   */\n      tag_247\n        /* \"#utility.yul\":7646:7653   */\n      dup8\n        /* \"#utility.yul\":7637:7643   */\n      dup3\n        /* \"#utility.yul\":7626:7635   */\n      dup9\n        /* \"#utility.yul\":7622:7644   */\n      add\n        /* \"#utility.yul\":7601:7654   */\n      tag_132\n      jump\t// in\n    tag_247:\n        /* \"#utility.yul\":7591:7654   */\n      swap2\n      pop\n        /* \"#utility.yul\":7546:7664   */\n      pop\n        /* \"#utility.yul\":6730:7671   */\n      swap3\n      swap6\n      swap2\n      swap5\n      pop\n      swap3\n      pop\n      jump\t// out\n        /* \"#utility.yul\":7677:7795   */\n    tag_133:\n        /* \"#utility.yul\":7764:7788   */\n      tag_249\n        /* \"#utility.yul\":7782:7787   */\n      dup2\n        /* \"#utility.yul\":7764:7788   */\n      tag_109\n      jump\t// in\n    tag_249:\n        /* \"#utility.yul\":7759:7762   */\n      dup3\n        /* \"#utility.yul\":7752:7789   */\n      mstore\n        /* \"#utility.yul\":7677:7795   */\n      pop\n      pop\n      jump\t// out\n        /* \"#utility.yul\":7801:8023   */\n    tag_21:\n        /* \"#utility.yul\":7894:7898   */\n      0x00\n        /* \"#utility.yul\":7932:7934   */\n      0x20\n        /* \"#utility.yul\":7921:7930   */\n      dup3\n        /* \"#utility.yul\":7917:7935   */\n      add\n        /* \"#utility.yul\":7909:7935   */\n      swap1\n      pop\n        /* \"#utility.yul\":7945:8016   */\n      tag_251\n        /* \"#utility.yul\":8013:8014   */\n      0x00\n        /* \"#utility.yul\":8002:8011   */\n      dup4\n        /* \"#utility.yul\":7998:8015   */\n      add\n        /* \"#utility.yul\":7989:7995   */\n      dup5\n        /* \"#utility.yul\":7945:8016   */\n      tag_133\n      jump\t// in\n    tag_251:\n        /* \"#utility.yul\":7801:8023   */\n      swap3\n      swap2\n      pop\n      pop\n      jump\t// out\n        /* \"#utility.yul\":8029:8824   */\n    tag_27:\n        /* \"#utility.yul\":8114:8120   */\n      0x00\n        /* \"#utility.yul\":8122:8128   */\n      dup1\n        /* \"#utility.yul\":8130:8136   */\n      0x00\n        /* \"#utility.yul\":8179:8181   */\n      0x60\n        /* \"#utility.yul\":8167:8176   */\n      dup5\n        /* \"#utility.yul\":8158:8165   */\n      dup7\n        /* \"#utility.yul\":8154:8177   */\n      sub\n        /* \"#utility.yul\":8150:8182   */\n      slt\n        /* \"#utility.yul\":8147:8266   */\n      iszero\n      tag_253\n      jumpi\n        /* \"#utility.yul\":8185:8264   */\n      tag_254\n      tag_103\n      jump\t// in\n    tag_254:\n        /* \"#utility.yul\":8147:8266   */\n    tag_253:\n        /* \"#utility.yul\":8305:8306   */\n      0x00\n        /* \"#utility.yul\":8330:8383   */\n      tag_255\n        /* \"#utility.yul\":8375:8382   */\n      dup7\n        /* \"#utility.yul\":8366:8372   */\n      dup3\n        /* \"#utility.yul\":8355:8364   */\n      dup8\n        /* \"#utility.yul\":8351:8373   */\n      add\n        /* \"#utility.yul\":8330:8383   */\n      tag_132\n      jump\t// in\n    tag_255:\n        /* \"#utility.yul\":8320:8383   */\n      swap4\n      pop\n        /* \"#utility.yul\":8276:8393   */\n      pop\n        /* \"#utility.yul\":8460:8462   */\n      0x20\n        /* \"#utility.yul\":8449:8458   */\n      dup5\n        /* \"#utility.yul\":8445:8463   */\n      add\n        /* \"#utility.yul\":8432:8464   */\n      calldataload\n        /* \"#utility.yul\":8491:8509   */\n      0xffffffffffffffff\n        /* \"#utility.yul\":8483:8489   */\n      dup2\n        /* \"#utility.yul\":8480:8510   */\n      gt\n        /* \"#utility.yul\":8477:8594   */\n      iszero\n      tag_256\n      jumpi\n        /* \"#utility.yul\":8513:8592   */\n      tag_257\n      tag_104\n      jump\t// in\n    tag_257:\n        /* \"#utility.yul\":8477:8594   */\n    tag_256:\n        /* \"#utility.yul\":8618:8681   */\n      tag_258\n        /* \"#utility.yul\":8673:8680   */\n      dup7\n        /* \"#utility.yul\":8664:8670   */\n      dup3\n        /* \"#utility.yul\":8653:8662   */\n      dup8\n        /* \"#utility.yul\":8649:8671   */\n      add\n        /* \"#utility.yul\":8618:8681   */\n      tag_130\n      jump\t// in\n    tag_258:\n        /* \"#utility.yul\":8608:8681   */\n      swap3\n      pop\n        /* \"#utility.yul\":8403:8691   */\n      pop\n        /* \"#utility.yul\":8730:8732   */\n      0x40\n        /* \"#utility.yul\":8756:8807   */\n      tag_259\n        /* \"#utility.yul\":8799:8806   */\n      dup7\n        /* \"#utility.yul\":8790:8796   */\n      dup3\n        /* \"#utility.yul\":8779:8788   */\n      dup8\n        /* \"#utility.yul\":8775:8797   */\n      add\n        /* \"#utility.yul\":8756:8807   */\n      tag_121\n      jump\t// in\n    tag_259:\n        /* \"#utility.yul\":8746:8807   */\n      swap2\n      pop\n        /* \"#utility.yul\":8701:8817   */\n      pop\n        /* \"#utility.yul\":8029:8824   */\n      swap3\n      pop\n      swap3\n      pop\n      swap3\n      jump\t// out\n        /* \"#utility.yul\":8830:9010   */\n    tag_134:\n        /* \"#utility.yul\":8878:8955   */\n      0x4e487b7100000000000000000000000000000000000000000000000000000000\n        /* \"#utility.yul\":8875:8876   */\n      0x00\n        /* \"#utility.yul\":8868:8956   */\n      mstore\n        /* \"#utility.yul\":8975:8979   */\n      0x11\n        /* \"#utility.yul\":8972:8973   */\n      0x04\n        /* \"#utility.yul\":8965:8980   */\n      mstore\n        /* \"#utility.yul\":8999:9003   */\n      0x24\n        /* \"#utility.yul\":8996:8997   */\n      0x00\n        /* \"#utility.yul\":8989:9004   */\n      revert\n        /* \"#utility.yul\":9016:9210   */\n    tag_33:\n        /* \"#utility.yul\":9056:9060   */\n      0x00\n        /* \"#utility.yul\":9076:9096   */\n      tag_262\n        /* \"#utility.yul\":9094:9095   */\n      dup3\n        /* \"#utility.yul\":9076:9096   */\n      tag_105\n      jump\t// in\n    tag_262:\n        /* \"#utility.yul\":9071:9096   */\n      swap2\n      pop\n        /* \"#utility.yul\":9110:9130   */\n      tag_263\n        /* \"#utility.yul\":9128:9129   */\n      dup4\n        /* \"#utility.yul\":9110:9130   */\n      tag_105\n      jump\t// in\n    tag_263:\n        /* \"#utility.yul\":9105:9130   */\n      swap3\n      pop\n        /* \"#utility.yul\":9154:9155   */\n      dup3\n        /* \"#utility.yul\":9151:9152   */\n      dup3\n        /* \"#utility.yul\":9147:9156   */\n      sub\n        /* \"#utility.yul\":9139:9156   */\n      swap1\n      pop\n        /* \"#utility.yul\":9178:9179   */\n      dup2\n        /* \"#utility.yul\":9172:9176   */\n      dup2\n        /* \"#utility.yul\":9169:9180   */\n      gt\n        /* \"#utility.yul\":9166:9203   */\n      iszero\n      tag_264\n      jumpi\n        /* \"#utility.yul\":9183:9201   */\n      tag_265\n      tag_134\n      jump\t// in\n    tag_265:\n        /* \"#utility.yul\":9166:9203   */\n    tag_264:\n        /* \"#utility.yul\":9016:9210   */\n      swap3\n      swap2\n      pop\n      pop\n      jump\t// out\n        /* \"#utility.yul\":9216:9396   */\n    tag_36:\n        /* \"#utility.yul\":9264:9341   */\n      0x4e487b7100000000000000000000000000000000000000000000000000000000\n        /* \"#utility.yul\":9261:9262   */\n      0x00\n        /* \"#utility.yul\":9254:9342   */\n      mstore\n        /* \"#utility.yul\":9361:9365   */\n      0x32\n        /* \"#utility.yul\":9358:9359   */\n      0x04\n        /* \"#utility.yul\":9351:9366   */\n      mstore\n        /* \"#utility.yul\":9385:9389   */\n      0x24\n        /* \"#utility.yul\":9382:9383   */\n      0x00\n        /* \"#utility.yul\":9375:9390   */\n      revert\n        /* \"#utility.yul\":9402:9582   */\n    tag_135:\n        /* \"#utility.yul\":9450:9527   */\n      0x4e487b7100000000000000000000000000000000000000000000000000000000\n        /* \"#utility.yul\":9447:9448   */\n      0x00\n        /* \"#utility.yul\":9440:9528   */\n      mstore\n        /* \"#utility.yul\":9547:9551   */\n      0x22\n        /* \"#utility.yul\":9544:9545   */\n      0x04\n        /* \"#utility.yul\":9537:9552   */\n      mstore\n        /* \"#utility.yul\":9571:9575   */\n      0x24\n        /* \"#utility.yul\":9568:9569   */\n      0x00\n        /* \"#utility.yul\":9561:9576   */\n      revert\n        /* \"#utility.yul\":9588:9908   */\n    tag_39:\n        /* \"#utility.yul\":9632:9638   */\n      0x00\n        /* \"#utility.yul\":9669:9670   */\n      0x02\n        /* \"#utility.yul\":9663:9667   */\n      dup3\n        /* \"#utility.yul\":9659:9671   */\n      div\n        /* \"#utility.yul\":9649:9671   */\n      swap1\n      pop\n        /* \"#utility.yul\":9716:9717   */\n      0x01\n        /* \"#utility.yul\":9710:9714   */\n      dup3\n        /* \"#utility.yul\":9706:9718   */\n      and\n        /* \"#utility.yul\":9737:9755   */\n      dup1\n        /* \"#utility.yul\":9727:9808   */\n      tag_269\n      jumpi\n        /* \"#utility.yul\":9793:9797   */\n      0x7f\n        /* \"#utility.yul\":9785:9791   */\n      dup3\n        /* \"#utility.yul\":9781:9798   */\n      and\n        /* \"#utility.yul\":9771:9798   */\n      swap2\n      pop\n        /* \"#utility.yul\":9727:9808   */\n    tag_269:\n        /* \"#utility.yul\":9855:9857   */\n      0x20\n        /* \"#utility.yul\":9847:9853   */\n      dup3\n        /* \"#utility.yul\":9844:9858   */\n      lt\n        /* \"#utility.yul\":9824:9842   */\n      dup2\n        /* \"#utility.yul\":9821:9859   */\n      sub\n        /* \"#utility.yul\":9818:9902   */\n      tag_270\n      jumpi\n        /* \"#utility.yul\":9874:9892   */\n      tag_271\n      tag_135\n      jump\t// in\n    tag_271:\n        /* \"#utility.yul\":9818:9902   */\n    tag_270:\n        /* \"#utility.yul\":9639:9908   */\n      pop\n        /* \"#utility.yul\":9588:9908   */\n      swap2\n      swap1\n      pop\n      jump\t// out\n        /* \"#utility.yul\":9914:10083   */\n    tag_136:\n        /* \"#utility.yul\":9998:10009   */\n      0x00\n        /* \"#utility.yul\":10032:10038   */\n      dup3\n        /* \"#utility.yul\":10027:10030   */\n      dup3\n        /* \"#utility.yul\":10020:10039   */\n      mstore\n        /* \"#utility.yul\":10072:10076   */\n      0x20\n        /* \"#utility.yul\":10067:10070   */\n      dup3\n        /* \"#utility.yul\":10063:10077   */\n      add\n        /* \"#utility.yul\":10048:10077   */\n      swap1\n      pop\n        /* \"#utility.yul\":9914:10083   */\n      swap3\n      swap2\n      pop\n      pop\n      jump\t// out\n        /* \"#utility.yul\":10089:10260   */\n    tag_137:\n        /* \"#utility.yul\":10229:10252   */\n      0x596f7520617265206e6f74207065726d69747465640000000000000000000000\n        /* \"#utility.yul\":10225:10226   */\n      0x00\n        /* \"#utility.yul\":10217:10223   */\n      dup3\n        /* \"#utility.yul\":10213:10227   */\n      add\n        /* \"#utility.yul\":10206:10253   */\n      mstore\n        /* \"#utility.yul\":10089:10260   */\n      pop\n      jump\t// out\n        /* \"#utility.yul\":10266:10632   */\n    tag_138:\n        /* \"#utility.yul\":10408:10411   */\n      0x00\n        /* \"#utility.yul\":10429:10496   */\n      tag_275\n        /* \"#utility.yul\":10493:10495   */\n      0x15\n        /* \"#utility.yul\":10488:10491   */\n      dup4\n        /* \"#utility.yul\":10429:10496   */\n      tag_136\n      jump\t// in\n    tag_275:\n        /* \"#utility.yul\":10422:10496   */\n      swap2\n      pop\n        /* \"#utility.yul\":10505:10598   */\n      tag_276\n        /* \"#utility.yul\":10594:10597   */\n      dup3\n        /* \"#utility.yul\":10505:10598   */\n      tag_137\n      jump\t// in\n    tag_276:\n        /* \"#utility.yul\":10623:10625   */\n      0x20\n        /* \"#utility.yul\":10618:10621   */\n      dup3\n        /* \"#utility.yul\":10614:10626   */\n      add\n        /* \"#utility.yul\":10607:10626   */\n      swap1\n      pop\n        /* \"#utility.yul\":10266:10632   */\n      swap2\n      swap1\n      pop\n      jump\t// out\n        /* \"#utility.yul\":10638:11057   */\n    tag_47:\n        /* \"#utility.yul\":10804:10808   */\n      0x00\n        /* \"#utility.yul\":10842:10844   */\n      0x20\n        /* \"#utility.yul\":10831:10840   */\n      dup3\n        /* \"#utility.yul\":10827:10845   */\n      add\n        /* \"#utility.yul\":10819:10845   */\n      swap1\n      pop\n        /* \"#utility.yul\":10891:10900   */\n      dup2\n        /* \"#utility.yul\":10885:10889   */\n      dup2\n        /* \"#utility.yul\":10881:10901   */\n      sub\n        /* \"#utility.yul\":10877:10878   */\n      0x00\n        /* \"#utility.yul\":10866:10875   */\n      dup4\n        /* \"#utility.yul\":10862:10879   */\n      add\n        /* \"#utility.yul\":10855:10902   */\n      mstore\n        /* \"#utility.yul\":10919:11050   */\n      tag_278\n        /* \"#utility.yul\":11045:11049   */\n      dup2\n        /* \"#utility.yul\":10919:11050   */\n      tag_138\n      jump\t// in\n    tag_278:\n        /* \"#utility.yul\":10911:11050   */\n      swap1\n      pop\n        /* \"#utility.yul\":10638:11057   */\n      swap2\n      swap1\n      pop\n      jump\t// out\n        /* \"#utility.yul\":11063:11241   */\n    tag_139:\n        /* \"#utility.yul\":11203:11233   */\n      0x47726f7720757020612062697420616e642074727920616761696e2100000000\n        /* \"#utility.yul\":11199:11200   */\n      0x00\n        /* \"#utility.yul\":11191:11197   */\n      dup3\n        /* \"#utility.yul\":11187:11201   */\n      add\n        /* \"#utility.yul\":11180:11234   */\n      mstore\n        /* \"#utility.yul\":11063:11241   */\n      pop\n      jump\t// out\n        /* \"#utility.yul\":11247:11613   */\n    tag_140:\n        /* \"#utility.yul\":11389:11392   */\n      0x00\n        /* \"#utility.yul\":11410:11477   */\n      tag_281\n        /* \"#utility.yul\":11474:11476   */\n      0x1c\n        /* \"#utility.yul\":11469:11472   */\n      dup4\n        /* \"#utility.yul\":11410:11477   */\n      tag_136\n      jump\t// in\n    tag_281:\n        /* \"#utility.yul\":11403:11477   */\n      swap2\n      pop\n        /* \"#utility.yul\":11486:11579   */\n      tag_282\n        /* \"#utility.yul\":11575:11578   */\n      dup3\n        /* \"#utility.yul\":11486:11579   */\n      tag_139\n      jump\t// in\n    tag_282:\n        /* \"#utility.yul\":11604:11606   */\n      0x20\n        /* \"#utility.yul\":11599:11602   */\n      dup3\n        /* \"#utility.yul\":11595:11607   */\n      add\n        /* \"#utility.yul\":11588:11607   */\n      swap1\n      pop\n        /* \"#utility.yul\":11247:11613   */\n      swap2\n      swap1\n      pop\n      jump\t// out\n        /* \"#utility.yul\":11619:12038   */\n    tag_50:\n        /* \"#utility.yul\":11785:11789   */\n      0x00\n        /* \"#utility.yul\":11823:11825   */\n      0x20\n        /* \"#utility.yul\":11812:11821   */\n      dup3\n        /* \"#utility.yul\":11808:11826   */\n      add\n        /* \"#utility.yul\":11800:11826   */\n      swap1\n      pop\n        /* \"#utility.yul\":11872:11881   */\n      dup2\n        /* \"#utility.yul\":11866:11870   */\n      dup2\n        /* \"#utility.yul\":11862:11882   */\n      sub\n        /* \"#utility.yul\":11858:11859   */\n      0x00\n        /* \"#utility.yul\":11847:11856   */\n      dup4\n        /* \"#utility.yul\":11843:11860   */\n      add\n        /* \"#utility.yul\":11836:11883   */\n      mstore\n        /* \"#utility.yul\":11900:12031   */\n      tag_284\n        /* \"#utility.yul\":12026:12030   */\n      dup2\n        /* \"#utility.yul\":11900:12031   */\n      tag_140\n      jump\t// in\n    tag_284:\n        /* \"#utility.yul\":11892:12031   */\n      swap1\n      pop\n        /* \"#utility.yul\":11619:12038   */\n      swap2\n      swap1\n      pop\n      jump\t// out\n        /* \"#utility.yul\":12044:12219   */\n    tag_141:\n        /* \"#utility.yul\":12184:12211   */\n      0x546869732068756d616e20646f6573206e6f7420657869737400000000000000\n        /* \"#utility.yul\":12180:12181   */\n      0x00\n        /* \"#utility.yul\":12172:12178   */\n      dup3\n        /* \"#utility.yul\":12168:12182   */\n      add\n        /* \"#utility.yul\":12161:12212   */\n      mstore\n        /* \"#utility.yul\":12044:12219   */\n      pop\n      jump\t// out\n        /* \"#utility.yul\":12225:12591   */\n    tag_142:\n        /* \"#utility.yul\":12367:12370   */\n      0x00\n        /* \"#utility.yul\":12388:12455   */\n      tag_287\n        /* \"#utility.yul\":12452:12454   */\n      0x19\n        /* \"#utility.yul\":12447:12450   */\n      dup4\n        /* \"#utility.yul\":12388:12455   */\n      tag_136\n      jump\t// in\n    tag_287:\n        /* \"#utility.yul\":12381:12455   */\n      swap2\n      pop\n        /* \"#utility.yul\":12464:12557   */\n      tag_288\n        /* \"#utility.yul\":12553:12556   */\n      dup3\n        /* \"#utility.yul\":12464:12557   */\n      tag_141\n      jump\t// in\n    tag_288:\n        /* \"#utility.yul\":12582:12584   */\n      0x20\n        /* \"#utility.yul\":12577:12580   */\n      dup3\n        /* \"#utility.yul\":12573:12585   */\n      add\n        /* \"#utility.yul\":12566:12585   */\n      swap1\n      pop\n        /* \"#utility.yul\":12225:12591   */\n      swap2\n      swap1\n      pop\n      jump\t// out\n        /* \"#utility.yul\":12597:13016   */\n    tag_54:\n        /* \"#utility.yul\":12763:12767   */\n      0x00\n        /* \"#utility.yul\":12801:12803   */\n      0x20\n        /* \"#utility.yul\":12790:12799   */\n      dup3\n        /* \"#utility.yul\":12786:12804   */\n      add\n        /* \"#utility.yul\":12778:12804   */\n      swap1\n      pop\n        /* \"#utility.yul\":12850:12859   */\n      dup2\n        /* \"#utility.yul\":12844:12848   */\n      dup2\n        /* \"#utility.yul\":12840:12860   */\n      sub\n        /* \"#utility.yul\":12836:12837   */\n      0x00\n        /* \"#utility.yul\":12825:12834   */\n      dup4\n        /* \"#utility.yul\":12821:12838   */\n      add\n        /* \"#utility.yul\":12814:12861   */\n      mstore\n        /* \"#utility.yul\":12878:13009   */\n      tag_290\n        /* \"#utility.yul\":13004:13008   */\n      dup2\n        /* \"#utility.yul\":12878:13009   */\n      tag_142\n      jump\t// in\n    tag_290:\n        /* \"#utility.yul\":12870:13009   */\n      swap1\n      pop\n        /* \"#utility.yul\":12597:13016   */\n      swap2\n      swap1\n      pop\n      jump\t// out\n        /* \"#utility.yul\":13022:13163   */\n    tag_143:\n        /* \"#utility.yul\":13071:13075   */\n      0x00\n        /* \"#utility.yul\":13094:13097   */\n      dup2\n        /* \"#utility.yul\":13086:13097   */\n      swap1\n      pop\n        /* \"#utility.yul\":13117:13120   */\n      dup2\n        /* \"#utility.yul\":13114:13115   */\n      0x00\n        /* \"#utility.yul\":13107:13121   */\n      mstore\n        /* \"#utility.yul\":13151:13155   */\n      0x20\n        /* \"#utility.yul\":13148:13149   */\n      0x00\n        /* \"#utility.yul\":13138:13156   */\n      keccak256\n        /* \"#utility.yul\":13130:13156   */\n      swap1\n      pop\n        /* \"#utility.yul\":13022:13163   */\n      swap2\n      swap1\n      pop\n      jump\t// out\n        /* \"#utility.yul\":13169:13262   */\n    tag_144:\n        /* \"#utility.yul\":13206:13212   */\n      0x00\n        /* \"#utility.yul\":13253:13255   */\n      0x20\n        /* \"#utility.yul\":13248:13250   */\n      0x1f\n        /* \"#utility.yul\":13241:13246   */\n      dup4\n        /* \"#utility.yul\":13237:13251   */\n      add\n        /* \"#utility.yul\":13233:13256   */\n      div\n        /* \"#utility.yul\":13223:13256   */\n      swap1\n      pop\n        /* \"#utility.yul\":13169:13262   */\n      swap2\n      swap1\n      pop\n      jump\t// out\n        /* \"#utility.yul\":13268:13375   */\n    tag_145:\n        /* \"#utility.yul\":13312:13320   */\n      0x00\n        /* \"#utility.yul\":13362:13367   */\n      dup3\n        /* \"#utility.yul\":13356:13360   */\n      dup3\n        /* \"#utility.yul\":13352:13368   */\n      shl\n        /* \"#utility.yul\":13331:13368   */\n      swap1\n      pop\n        /* \"#utility.yul\":13268:13375   */\n      swap3\n      swap2\n      pop\n      pop\n      jump\t// out\n        /* \"#utility.yul\":13381:13774   */\n    tag_146:\n        /* \"#utility.yul\":13450:13456   */\n      0x00\n        /* \"#utility.yul\":13500:13501   */\n      0x08\n        /* \"#utility.yul\":13488:13498   */\n      dup4\n        /* \"#utility.yul\":13484:13502   */\n      mul\n        /* \"#utility.yul\":13523:13620   */\n      tag_295\n        /* \"#utility.yul\":13553:13619   */\n      0xffffffffffffffffffffffffffffffffffffffffffffffffffffffffffffffff\n        /* \"#utility.yul\":13542:13551   */\n      dup3\n        /* \"#utility.yul\":13523:13620   */\n      tag_145\n      jump\t// in\n    tag_295:\n        /* \"#utility.yul\":13641:13680   */\n      tag_296\n        /* \"#utility.yul\":13671:13679   */\n      dup7\n        /* \"#utility.yul\":13660:13669   */\n      dup4\n        /* \"#utility.yul\":13641:13680   */\n      tag_145\n      jump\t// in\n    tag_296:\n        /* \"#utility.yul\":13629:13680   */\n      swap6\n      pop\n        /* \"#utility.yul\":13713:13717   */\n      dup1\n        /* \"#utility.yul\":13709:13718   */\n      not\n        /* \"#utility.yul\":13702:13707   */\n      dup5\n        /* \"#utility.yul\":13698:13719   */\n      and\n        /* \"#utility.yul\":13689:13719   */\n      swap4\n      pop\n        /* \"#utility.yul\":13762:13766   */\n      dup1\n        /* \"#utility.yul\":13752:13760   */\n      dup7\n        /* \"#utility.yul\":13748:13767   */\n      and\n        /* \"#utility.yul\":13741:13746   */\n      dup5\n        /* \"#utility.yul\":13738:13768   */\n      or\n        /* \"#utility.yul\":13728:13768   */\n      swap3\n      pop\n        /* \"#utility.yul\":13457:13774   */\n      pop\n      pop\n        /* \"#utility.yul\":13381:13774   */\n      swap4\n      swap3\n      pop\n      pop\n      pop\n      jump\t// out\n        /* \"#utility.yul\":13780:13840   */\n    tag_147:\n        /* \"#utility.yul\":13808:13811   */\n      0x00\n        /* \"#utility.yul\":13829:13834   */\n      dup2\n        /* \"#utility.yul\":13822:13834   */\n      swap1\n      pop\n        /* \"#utility.yul\":13780:13840   */\n      swap2\n      swap1\n      pop\n      jump\t// out\n        /* \"#utility.yul\":13846:13988   */\n    tag_148:\n        /* \"#utility.yul\":13896:13905   */\n      0x00\n        /* \"#utility.yul\":13929:13982   */\n      tag_299\n        /* \"#utility.yul\":13947:13981   */\n      tag_300\n        /* \"#utility.yul\":13956:13980   */\n      tag_301\n        /* \"#utility.yul\":13974:13979   */\n      dup5\n        /* \"#utility.yul\":13956:13980   */\n      tag_105\n      jump\t// in\n    tag_301:\n        /* \"#utility.yul\":13947:13981   */\n      tag_147\n      jump\t// in\n    tag_300:\n        /* \"#utility.yul\":13929:13982   */\n      tag_105\n      jump\t// in\n    tag_299:\n        /* \"#utility.yul\":13916:13982   */\n      swap1\n      pop\n        /* \"#utility.yul\":13846:13988   */\n      swap2\n      swap1\n      pop\n      jump\t// out\n        /* \"#utility.yul\":13994:14069   */\n    tag_149:\n        /* \"#utility.yul\":14037:14040   */\n      0x00\n        /* \"#utility.yul\":14058:14063   */\n      dup2\n        /* \"#utility.yul\":14051:14063   */\n      swap1\n      pop\n        /* \"#utility.yul\":13994:14069   */\n      swap2\n      swap1\n      pop\n      jump\t// out\n        /* \"#utility.yul\":14075:14344   */\n    tag_150:\n        /* \"#utility.yul\":14185:14224   */\n      tag_304\n        /* \"#utility.yul\":14216:14223   */\n      dup4\n        /* \"#utility.yul\":14185:14224   */\n      tag_148\n      jump\t// in\n    tag_304:\n        /* \"#utility.yul\":14246:14337   */\n      tag_305\n        /* \"#utility.yul\":14295:14336   */\n      tag_306\n        /* \"#utility.yul\":14319:14335   */\n      dup3\n        /* \"#utility.yul\":14295:14336   */\n      tag_149\n      jump\t// in\n    tag_306:\n        /* \"#utility.yul\":14287:14293   */\n      dup5\n        /* \"#utility.yul\":14280:14284   */\n      dup5\n        /* \"#utility.yul\":14274:14285   */\n      sload\n        /* \"#utility.yul\":14246:14337   */\n      tag_146\n      jump\t// in\n    tag_305:\n        /* \"#utility.yul\":14240:14244   */\n      dup3\n        /* \"#utility.yul\":14233:14338   */\n      sstore\n        /* \"#utility.yul\":14151:14344   */\n      pop\n        /* \"#utility.yul\":14075:14344   */\n      pop\n      pop\n      pop\n      jump\t// out\n        /* \"#utility.yul\":14350:14423   */\n    tag_151:\n        /* \"#utility.yul\":14395:14398   */\n      0x00\n        /* \"#utility.yul\":14350:14423   */\n      swap1\n      jump\t// out\n        /* \"#utility.yul\":14429:14618   */\n    tag_152:\n        /* \"#utility.yul\":14506:14538   */\n      tag_309\n      tag_151\n      jump\t// in\n    tag_309:\n        /* \"#utility.yul\":14547:14612   */\n      tag_310\n        /* \"#utility.yul\":14605:14611   */\n      dup2\n        /* \"#utility.yul\":14597:14603   */\n      dup5\n        /* \"#utility.yul\":14591:14595   */\n      dup5\n        /* \"#utility.yul\":14547:14612   */\n      tag_150\n      jump\t// in\n    tag_310:\n        /* \"#utility.yul\":14482:14618   */\n      pop\n        /* \"#utility.yul\":14429:14618   */\n      pop\n      pop\n      jump\t// out\n        /* \"#utility.yul\":14624:14810   */\n    tag_153:\n        /* \"#utility.yul\":14684:14804   */\n    tag_312:\n        /* \"#utility.yul\":14701:14704   */\n      dup2\n        /* \"#utility.yul\":14694:14699   */\n      dup2\n        /* \"#utility.yul\":14691:14705   */\n      lt\n        /* \"#utility.yul\":14684:14804   */\n      iszero\n      tag_314\n      jumpi\n        /* \"#utility.yul\":14755:14794   */\n      tag_315\n        /* \"#utility.yul\":14792:14793   */\n      0x00\n        /* \"#utility.yul\":14785:14790   */\n      dup3\n        /* \"#utility.yul\":14755:14794   */\n      tag_152\n      jump\t// in\n    tag_315:\n        /* \"#utility.yul\":14728:14729   */\n      0x01\n        /* \"#utility.yul\":14721:14726   */\n      dup2\n        /* \"#utility.yul\":14717:14730   */\n      add\n        /* \"#utility.yul\":14708:14730   */\n      swap1\n      pop\n        /* \"#utility.yul\":14684:14804   */\n      jump(tag_312)\n    tag_314:\n        /* \"#utility.yul\":14624:14810   */\n      pop\n      pop\n      jump\t// out\n        /* \"#utility.yul\":14816:15359   */\n    tag_154:\n        /* \"#utility.yul\":14917:14919   */\n      0x1f\n        /* \"#utility.yul\":14912:14915   */\n      dup3\n        /* \"#utility.yul\":14909:14920   */\n      gt\n        /* \"#utility.yul\":14906:15352   */\n      iszero\n      tag_317\n      jumpi\n        /* \"#utility.yul\":14951:14989   */\n      tag_318\n        /* \"#utility.yul\":14983:14988   */\n      dup2\n        /* \"#utility.yul\":14951:14989   */\n      tag_143\n      jump\t// in\n    tag_318:\n        /* \"#utility.yul\":15035:15064   */\n      tag_319\n        /* \"#utility.yul\":15053:15063   */\n      dup5\n        /* \"#utility.yul\":15035:15064   */\n      tag_144\n      jump\t// in\n    tag_319:\n        /* \"#utility.yul\":15025:15033   */\n      dup2\n        /* \"#utility.yul\":15021:15065   */\n      add\n        /* \"#utility.yul\":15218:15220   */\n      0x20\n        /* \"#utility.yul\":15206:15216   */\n      dup6\n        /* \"#utility.yul\":15203:15221   */\n      lt\n        /* \"#utility.yul\":15200:15249   */\n      iszero\n      tag_320\n      jumpi\n        /* \"#utility.yul\":15239:15247   */\n      dup2\n        /* \"#utility.yul\":15224:15247   */\n      swap1\n      pop\n        /* \"#utility.yul\":15200:15249   */\n    tag_320:\n        /* \"#utility.yul\":15262:15342   */\n      tag_321\n        /* \"#utility.yul\":15318:15340   */\n      tag_322\n        /* \"#utility.yul\":15336:15339   */\n      dup6\n        /* \"#utility.yul\":15318:15340   */\n      tag_144\n      jump\t// in\n    tag_322:\n        /* \"#utility.yul\":15308:15316   */\n      dup4\n        /* \"#utility.yul\":15304:15341   */\n      add\n        /* \"#utility.yul\":15291:15302   */\n      dup3\n        /* \"#utility.yul\":15262:15342   */\n      tag_153\n      jump\t// in\n    tag_321:\n        /* \"#utility.yul\":14921:15352   */\n      pop\n      pop\n        /* \"#utility.yul\":14906:15352   */\n    tag_317:\n        /* \"#utility.yul\":14816:15359   */\n      pop\n      pop\n      pop\n      jump\t// out\n        /* \"#utility.yul\":15365:15482   */\n    tag_155:\n        /* \"#utility.yul\":15419:15427   */\n      0x00\n        /* \"#utility.yul\":15469:15474   */\n      dup3\n        /* \"#utility.yul\":15463:15467   */\n      dup3\n        /* \"#utility.yul\":15459:15475   */\n      shr\n        /* \"#utility.yul\":15438:15475   */\n      swap1\n      pop\n        /* \"#utility.yul\":15365:15482   */\n      swap3\n      swap2\n      pop\n      pop\n      jump\t// out\n        /* \"#utility.yul\":15488:15657   */\n    tag_156:\n        /* \"#utility.yul\":15532:15538   */\n      0x00\n        /* \"#utility.yul\":15565:15616   */\n      tag_325\n        /* \"#utility.yul\":15613:15614   */\n      0x00\n        /* \"#utility.yul\":15609:15615   */\n      not\n        /* \"#utility.yul\":15601:15606   */\n      dup5\n        /* \"#utility.yul\":15598:15599   */\n      0x08\n        /* \"#utility.yul\":15594:15607   */\n      mul\n        /* \"#utility.yul\":15565:15616   */\n      tag_155\n      jump\t// in\n    tag_325:\n        /* \"#utility.yul\":15561:15617   */\n      not\n        /* \"#utility.yul\":15646:15650   */\n      dup1\n        /* \"#utility.yul\":15640:15644   */\n      dup4\n        /* \"#utility.yul\":15636:15651   */\n      and\n        /* \"#utility.yul\":15626:15651   */\n      swap2\n      pop\n        /* \"#utility.yul\":15539:15657   */\n      pop\n        /* \"#utility.yul\":15488:15657   */\n      swap3\n      swap2\n      pop\n      pop\n      jump\t// out\n        /* \"#utility.yul\":15662:15957   */\n    tag_157:\n        /* \"#utility.yul\":15738:15742   */\n      0x00\n        /* \"#utility.yul\":15884:15913   */\n      tag_327\n        /* \"#utility.yul\":15909:15912   */\n      dup4\n        /* \"#utility.yul\":15903:15907   */\n      dup4\n        /* \"#utility.yul\":15884:15913   */\n      tag_156\n      jump\t// in\n    tag_327:\n        /* \"#utility.yul\":15876:15913   */\n      swap2\n      pop\n        /* \"#utility.yul\":15946:15949   */\n      dup3\n        /* \"#utility.yul\":15943:15944   */\n      0x02\n        /* \"#utility.yul\":15939:15950   */\n      mul\n        /* \"#utility.yul\":15933:15937   */\n      dup3\n        /* \"#utility.yul\":15930:15951   */\n      or\n        /* \"#utility.yul\":15922:15951   */\n      swap1\n      pop\n        /* \"#utility.yul\":15662:15957   */\n      swap3\n      swap2\n      pop\n      pop\n      jump\t// out\n        /* \"#utility.yul\":15962:17357   */\n    tag_60:\n        /* \"#utility.yul\":16079:16116   */\n      tag_329\n        /* \"#utility.yul\":16112:16115   */\n      dup3\n        /* \"#utility.yul\":16079:16116   */\n      tag_111\n      jump\t// in\n    tag_329:\n        /* \"#utility.yul\":16181:16199   */\n      0xffffffffffffffff\n        /* \"#utility.yul\":16173:16179   */\n      dup2\n        /* \"#utility.yul\":16170:16200   */\n      gt\n        /* \"#utility.yul\":16167:16223   */\n      iszero\n      tag_330\n      jumpi\n        /* \"#utility.yul\":16203:16221   */\n      tag_331\n      tag_124\n      jump\t// in\n    tag_331:\n        /* \"#utility.yul\":16167:16223   */\n    tag_330:\n        /* \"#utility.yul\":16247:16285   */\n      tag_332\n        /* \"#utility.yul\":16279:16283   */\n      dup3\n        /* \"#utility.yul\":16273:16284   */\n      sload\n        /* \"#utility.yul\":16247:16285   */\n      tag_39\n      jump\t// in\n    tag_332:\n        /* \"#utility.yul\":16332:16399   */\n      tag_333\n        /* \"#utility.yul\":16392:16398   */\n      dup3\n        /* \"#utility.yul\":16384:16390   */\n      dup3\n        /* \"#utility.yul\":16378:16382   */\n      dup6\n        /* \"#utility.yul\":16332:16399   */\n      tag_154\n      jump\t// in\n    tag_333:\n        /* \"#utility.yul\":16426:16427   */\n      0x00\n        /* \"#utility.yul\":16450:16454   */\n      0x20\n        /* \"#utility.yul\":16437:16454   */\n      swap1\n      pop\n        /* \"#utility.yul\":16482:16484   */\n      0x1f\n        /* \"#utility.yul\":16474:16480   */\n      dup4\n        /* \"#utility.yul\":16471:16485   */\n      gt\n        /* \"#utility.yul\":16499:16500   */\n      0x01\n        /* \"#utility.yul\":16494:17112   */\n      dup2\n      eq\n      tag_335\n      jumpi\n        /* \"#utility.yul\":17156:17157   */\n      0x00\n        /* \"#utility.yul\":17173:17179   */\n      dup5\n        /* \"#utility.yul\":17170:17247   */\n      iszero\n      tag_336\n      jumpi\n        /* \"#utility.yul\":17222:17231   */\n      dup3\n        /* \"#utility.yul\":17217:17220   */\n      dup8\n        /* \"#utility.yul\":17213:17232   */\n      add\n        /* \"#utility.yul\":17207:17233   */\n      mload\n        /* \"#utility.yul\":17198:17233   */\n      swap1\n      pop\n        /* \"#utility.yul\":17170:17247   */\n    tag_336:\n        /* \"#utility.yul\":17273:17340   */\n      tag_337\n        /* \"#utility.yul\":17333:17339   */\n      dup6\n        /* \"#utility.yul\":17326:17331   */\n      dup3\n        /* \"#utility.yul\":17273:17340   */\n      tag_157\n      jump\t// in\n    tag_337:\n        /* \"#utility.yul\":17267:17271   */\n      dup7\n        /* \"#utility.yul\":17260:17341   */\n      sstore\n        /* \"#utility.yul\":17129:17351   */\n      pop\n        /* \"#utility.yul\":16464:17351   */\n      jump(tag_334)\n        /* \"#utility.yul\":16494:17112   */\n    tag_335:\n        /* \"#utility.yul\":16546:16550   */\n      0x1f\n        /* \"#utility.yul\":16542:16551   */\n      not\n        /* \"#utility.yul\":16534:16540   */\n      dup5\n        /* \"#utility.yul\":16530:16552   */\n      and\n        /* \"#utility.yul\":16580:16617   */\n      tag_338\n        /* \"#utility.yul\":16612:16616   */\n      dup7\n        /* \"#utility.yul\":16580:16617   */\n      tag_143\n      jump\t// in\n    tag_338:\n        /* \"#utility.yul\":16639:16640   */\n      0x00\n        /* \"#utility.yul\":16653:16861   */\n    tag_339:\n        /* \"#utility.yul\":16667:16674   */\n      dup3\n        /* \"#utility.yul\":16664:16665   */\n      dup2\n        /* \"#utility.yul\":16661:16675   */\n      lt\n        /* \"#utility.yul\":16653:16861   */\n      iszero\n      tag_341\n      jumpi\n        /* \"#utility.yul\":16746:16755   */\n      dup5\n        /* \"#utility.yul\":16741:16744   */\n      dup10\n        /* \"#utility.yul\":16737:16756   */\n      add\n        /* \"#utility.yul\":16731:16757   */\n      mload\n        /* \"#utility.yul\":16723:16729   */\n      dup3\n        /* \"#utility.yul\":16716:16758   */\n      sstore\n        /* \"#utility.yul\":16797:16798   */\n      0x01\n        /* \"#utility.yul\":16789:16795   */\n      dup3\n        /* \"#utility.yul\":16785:16799   */\n      add\n        /* \"#utility.yul\":16775:16799   */\n      swap2\n      pop\n        /* \"#utility.yul\":16844:16846   */\n      0x20\n        /* \"#utility.yul\":16833:16842   */\n      dup6\n        /* \"#utility.yul\":16829:16847   */\n      add\n        /* \"#utility.yul\":16816:16847   */\n      swap5\n      pop\n        /* \"#utility.yul\":16690:16694   */\n      0x20\n        /* \"#utility.yul\":16687:16688   */\n      dup2\n        /* \"#utility.yul\":16683:16695   */\n      add\n        /* \"#utility.yul\":16678:16695   */\n      swap1\n      pop\n        /* \"#utility.yul\":16653:16861   */\n      jump(tag_339)\n    tag_341:\n        /* \"#utility.yul\":16889:16895   */\n      dup7\n        /* \"#utility.yul\":16880:16887   */\n      dup4\n        /* \"#utility.yul\":16877:16896   */\n      lt\n        /* \"#utility.yul\":16874:17053   */\n      iszero\n      tag_342\n      jumpi\n        /* \"#utility.yul\":16947:16956   */\n      dup5\n        /* \"#utility.yul\":16942:16945   */\n      dup10\n        /* \"#utility.yul\":16938:16957   */\n      add\n        /* \"#utility.yul\":16932:16958   */\n      mload\n        /* \"#utility.yul\":16990:17038   */\n      tag_343\n        /* \"#utility.yul\":17032:17036   */\n      0x1f\n        /* \"#utility.yul\":17024:17030   */\n      dup10\n        /* \"#utility.yul\":17020:17037   */\n      and\n        /* \"#utility.yul\":17009:17018   */\n      dup3\n        /* \"#utility.yul\":16990:17038   */\n      tag_156\n      jump\t// in\n    tag_343:\n        /* \"#utility.yul\":16982:16988   */\n      dup4\n        /* \"#utility.yul\":16975:17039   */\n      sstore\n        /* \"#utility.yul\":16897:17053   */\n      pop\n        /* \"#utility.yul\":16874:17053   */\n    tag_342:\n        /* \"#utility.yul\":17099:17100   */\n      0x01\n        /* \"#utility.yul\":17095:17096   */\n      0x02\n        /* \"#utility.yul\":17087:17093   */\n      dup9\n        /* \"#utility.yul\":17083:17097   */\n      mul\n        /* \"#utility.yul\":17079:17101   */\n      add\n        /* \"#utility.yul\":17073:17077   */\n      dup9\n        /* \"#utility.yul\":17066:17102   */\n      sstore\n        /* \"#utility.yul\":16501:17112   */\n      pop\n      pop\n      pop\n        /* \"#utility.yul\":16464:17351   */\n    tag_334:\n      pop\n        /* \"#utility.yul\":16054:17357   */\n      pop\n      pop\n      pop\n        /* \"#utility.yul\":15962:17357   */\n      pop\n      pop\n      jump\t// out\n        /* \"#utility.yul\":17363:17512   */\n    tag_158:\n        /* \"#utility.yul\":17412:17418   */\n      0x00\n        /* \"#utility.yul\":17446:17451   */\n      dup2\n        /* \"#utility.yul\":17440:17452   */\n      sload\n        /* \"#utility.yul\":17430:17452   */\n      swap1\n      pop\n        /* \"#utility.yul\":17472:17505   */\n      tag_345\n        /* \"#utility.yul\":17498:17504   */\n      dup2\n        /* \"#utility.yul\":17472:17505   */\n      tag_39\n      jump\t// in\n    tag_345:\n        /* \"#utility.yul\":17462:17505   */\n      swap1\n      pop\n        /* \"#utility.yul\":17363:17512   */\n      swap2\n      swap1\n      pop\n      jump\t// out\n        /* \"#utility.yul\":17518:18969   */\n    tag_78:\n        /* \"#utility.yul\":17629:17632   */\n      dup2\n        /* \"#utility.yul\":17623:17627   */\n      dup2\n        /* \"#utility.yul\":17620:17633   */\n      sub\n        /* \"#utility.yul\":17617:17643   */\n      tag_347\n      jumpi\n        /* \"#utility.yul\":17636:17641   */\n      pop\n      pop\n      jump(tag_346)\n        /* \"#utility.yul\":17617:17643   */\n    tag_347:\n        /* \"#utility.yul\":17667:17701   */\n      tag_348\n        /* \"#utility.yul\":17697:17700   */\n      dup3\n        /* \"#utility.yul\":17667:17701   */\n      tag_158\n      jump\t// in\n    tag_348:\n        /* \"#utility.yul\":17766:17784   */\n      0xffffffffffffffff\n        /* \"#utility.yul\":17758:17764   */\n      dup2\n        /* \"#utility.yul\":17755:17785   */\n      gt\n        /* \"#utility.yul\":17752:17808   */\n      iszero\n      tag_349\n      jumpi\n        /* \"#utility.yul\":17788:17806   */\n      tag_350\n      tag_124\n      jump\t// in\n    tag_350:\n        /* \"#utility.yul\":17752:17808   */\n    tag_349:\n        /* \"#utility.yul\":17832:17870   */\n      tag_351\n        /* \"#utility.yul\":17864:17868   */\n      dup3\n        /* \"#utility.yul\":17858:17869   */\n      sload\n        /* \"#utility.yul\":17832:17870   */\n      tag_39\n      jump\t// in\n    tag_351:\n        /* \"#utility.yul\":17917:17984   */\n      tag_352\n        /* \"#utility.yul\":17977:17983   */\n      dup3\n        /* \"#utility.yul\":17969:17975   */\n      dup3\n        /* \"#utility.yul\":17963:17967   */\n      dup6\n        /* \"#utility.yul\":17917:17984   */\n      tag_154\n      jump\t// in\n    tag_352:\n        /* \"#utility.yul\":18011:18012   */\n      0x00\n        /* \"#utility.yul\":18040:18042   */\n      0x1f\n        /* \"#utility.yul\":18032:18038   */\n      dup4\n        /* \"#utility.yul\":18029:18043   */\n      gt\n        /* \"#utility.yul\":18057:18058   */\n      0x01\n        /* \"#utility.yul\":18052:18724   */\n      dup2\n      eq\n      tag_354\n      jumpi\n        /* \"#utility.yul\":18768:18769   */\n      0x00\n        /* \"#utility.yul\":18785:18791   */\n      dup5\n        /* \"#utility.yul\":18782:18859   */\n      iszero\n      tag_355\n      jumpi\n        /* \"#utility.yul\":18834:18843   */\n      dup3\n        /* \"#utility.yul\":18829:18832   */\n      dup8\n        /* \"#utility.yul\":18825:18844   */\n      add\n        /* \"#utility.yul\":18819:18845   */\n      sload\n        /* \"#utility.yul\":18810:18845   */\n      swap1\n      pop\n        /* \"#utility.yul\":18782:18859   */\n    tag_355:\n        /* \"#utility.yul\":18885:18952   */\n      tag_356\n        /* \"#utility.yul\":18945:18951   */\n      dup6\n        /* \"#utility.yul\":18938:18943   */\n      dup3\n        /* \"#utility.yul\":18885:18952   */\n      tag_157\n      jump\t// in\n    tag_356:\n        /* \"#utility.yul\":18879:18883   */\n      dup7\n        /* \"#utility.yul\":18872:18953   */\n      sstore\n        /* \"#utility.yul\":18741:18963   */\n      pop\n        /* \"#utility.yul\":18022:18963   */\n      jump(tag_353)\n        /* \"#utility.yul\":18052:18724   */\n    tag_354:\n        /* \"#utility.yul\":18104:18108   */\n      0x1f\n        /* \"#utility.yul\":18100:18109   */\n      not\n        /* \"#utility.yul\":18092:18098   */\n      dup5\n        /* \"#utility.yul\":18088:18110   */\n      and\n        /* \"#utility.yul\":18130:18166   */\n      tag_357\n        /* \"#utility.yul\":18162:18165   */\n      dup8\n        /* \"#utility.yul\":18130:18166   */\n      tag_143\n      jump\t// in\n    tag_357:\n        /* \"#utility.yul\":18123:18166   */\n      swap7\n      pop\n        /* \"#utility.yul\":18193:18230   */\n      tag_358\n        /* \"#utility.yul\":18225:18229   */\n      dup7\n        /* \"#utility.yul\":18193:18230   */\n      tag_143\n      jump\t// in\n    tag_358:\n        /* \"#utility.yul\":18252:18253   */\n      0x00\n        /* \"#utility.yul\":18266:18473   */\n    tag_359:\n        /* \"#utility.yul\":18280:18287   */\n      dup3\n        /* \"#utility.yul\":18277:18278   */\n      dup2\n        /* \"#utility.yul\":18274:18288   */\n      lt\n        /* \"#utility.yul\":18266:18473   */\n      iszero\n      tag_361\n      jumpi\n        /* \"#utility.yul\":18359:18368   */\n      dup5\n        /* \"#utility.yul\":18354:18357   */\n      dup10\n        /* \"#utility.yul\":18350:18369   */\n      add\n        /* \"#utility.yul\":18344:18370   */\n      sload\n        /* \"#utility.yul\":18336:18342   */\n      dup3\n        /* \"#utility.yul\":18329:18371   */\n      sstore\n        /* \"#utility.yul\":18410:18411   */\n      0x01\n        /* \"#utility.yul\":18402:18408   */\n      dup3\n        /* \"#utility.yul\":18398:18412   */\n      add\n        /* \"#utility.yul\":18388:18412   */\n      swap2\n      pop\n        /* \"#utility.yul\":18457:18458   */\n      0x01\n        /* \"#utility.yul\":18446:18455   */\n      dup6\n        /* \"#utility.yul\":18442:18459   */\n      add\n        /* \"#utility.yul\":18429:18459   */\n      swap5\n      pop\n        /* \"#utility.yul\":18303:18307   */\n      0x20\n        /* \"#utility.yul\":18300:18301   */\n      dup2\n        /* \"#utility.yul\":18296:18308   */\n      add\n        /* \"#utility.yul\":18291:18308   */\n      swap1\n      pop\n        /* \"#utility.yul\":18266:18473   */\n      jump(tag_359)\n    tag_361:\n        /* \"#utility.yul\":18501:18507   */\n      dup7\n        /* \"#utility.yul\":18492:18499   */\n      dup4\n        /* \"#utility.yul\":18489:18508   */\n      lt\n        /* \"#utility.yul\":18486:18665   */\n      iszero\n      tag_362\n      jumpi\n        /* \"#utility.yul\":18559:18568   */\n      dup5\n        /* \"#utility.yul\":18554:18557   */\n      dup10\n        /* \"#utility.yul\":18550:18569   */\n      add\n        /* \"#utility.yul\":18544:18570   */\n      sload\n        /* \"#utility.yul\":18602:18650   */\n      tag_363\n        /* \"#utility.yul\":18644:18648   */\n      0x1f\n        /* \"#utility.yul\":18636:18642   */\n      dup10\n        /* \"#utility.yul\":18632:18649   */\n      and\n        /* \"#utility.yul\":18621:18630   */\n      dup3\n        /* \"#utility.yul\":18602:18650   */\n      tag_156\n      jump\t// in\n    tag_363:\n        /* \"#utility.yul\":18594:18600   */\n      dup4\n        /* \"#utility.yul\":18587:18651   */\n      sstore\n        /* \"#utility.yul\":18509:18665   */\n      pop\n        /* \"#utility.yul\":18486:18665   */\n    tag_362:\n        /* \"#utility.yul\":18711:18712   */\n      0x01\n        /* \"#utility.yul\":18707:18708   */\n      0x02\n        /* \"#utility.yul\":18699:18705   */\n      dup9\n        /* \"#utility.yul\":18695:18709   */\n      mul\n        /* \"#utility.yul\":18691:18713   */\n      add\n        /* \"#utility.yul\":18685:18689   */\n      dup9\n        /* \"#utility.yul\":18678:18714   */\n      sstore\n        /* \"#utility.yul\":18059:18724   */\n      pop\n      pop\n      pop\n        /* \"#utility.yul\":18022:18963   */\n    tag_353:\n      pop\n        /* \"#utility.yul\":17607:18969   */\n      pop\n      pop\n      pop\n        /* \"#utility.yul\":17518:18969   */\n      pop\n      pop\n    tag_346:\n      jump\t// out\n        /* \"#utility.yul\":18975:19155   */\n    tag_81:\n        /* \"#utility.yul\":19023:19100   */\n      0x4e487b7100000000000000000000000000000000000000000000000000000000\n        /* \"#utility.yul\":19020:19021   */\n      0x00\n        /* \"#utility.yul\":19013:19101   */\n      mstore\n        /* \"#utility.yul\":19120:19124   */\n      0x31\n        /* \"#utility.yul\":19117:19118   */\n      0x04\n        /* \"#utility.yul\":19110:19125   */\n      mstore\n        /* \"#utility.yul\":19144:19148   */\n      0x24\n        /* \"#utility.yul\":19141:19142   */\n      0x00\n        /* \"#utility.yul\":19134:19149   */\n      revert\n        /* \"#utility.yul\":19161:19333   */\n    tag_159:\n        /* \"#utility.yul\":19301:19325   */\n      0x596f7520617265206e6f74207065726d69747465642000000000000000000000\n        /* \"#utility.yul\":19297:19298   */\n      0x00\n        /* \"#utility.yul\":19289:19295   */\n      dup3\n        /* \"#utility.yul\":19285:19299   */\n      add\n        /* \"#utility.yul\":19278:19326   */\n      mstore\n        /* \"#utility.yul\":19161:19333   */\n      pop\n      jump\t// out\n        /* \"#utility.yul\":19339:19705   */\n    tag_160:\n        /* \"#utility.yul\":19481:19484   */\n      0x00\n        /* \"#utility.yul\":19502:19569   */\n      tag_367\n        /* \"#utility.yul\":19566:19568   */\n      0x16\n        /* \"#utility.yul\":19561:19564   */\n      dup4\n        /* \"#utility.yul\":19502:19569   */\n      tag_136\n      jump\t// in\n    tag_367:\n        /* \"#utility.yul\":19495:19569   */\n      swap2\n      pop\n        /* \"#utility.yul\":19578:19671   */\n      tag_368\n        /* \"#utility.yul\":19667:19670   */\n      dup3\n        /* \"#utility.yul\":19578:19671   */\n      tag_159\n      jump\t// in\n    tag_368:\n        /* \"#utility.yul\":19696:19698   */\n      0x20\n        /* \"#utility.yul\":19691:19694   */\n      dup3\n        /* \"#utility.yul\":19687:19699   */\n      add\n        /* \"#utility.yul\":19680:19699   */\n      swap1\n      pop\n        /* \"#utility.yul\":19339:19705   */\n      swap2\n      swap1\n      pop\n      jump\t// out\n        /* \"#utility.yul\":19711:20130   */\n    tag_88:\n        /* \"#utility.yul\":19877:19881   */\n      0x00\n        /* \"#utility.yul\":19915:19917   */\n      0x20\n        /* \"#utility.yul\":19904:19913   */\n      dup3\n        /* \"#utility.yul\":19900:19918   */\n      add\n        /* \"#utility.yul\":19892:19918   */\n      swap1\n      pop\n        /* \"#utility.yul\":19964:19973   */\n      dup2\n        /* \"#utility.yul\":19958:19962   */\n      dup2\n        /* \"#utility.yul\":19954:19974   */\n      sub\n        /* \"#utility.yul\":19950:19951   */\n      0x00\n        /* \"#utility.yul\":19939:19948   */\n      dup4\n        /* \"#utility.yul\":19935:19952   */\n      add\n        /* \"#utility.yul\":19928:19975   */\n      mstore\n        /* \"#utility.yul\":19992:20123   */\n      tag_370\n        /* \"#utility.yul\":20118:20122   */\n      dup2\n        /* \"#utility.yul\":19992:20123   */\n      tag_160\n      jump\t// in\n    tag_370:\n        /* \"#utility.yul\":19984:20123   */\n      swap1\n      pop\n        /* \"#utility.yul\":19711:20130   */\n      swap2\n      swap1\n      pop\n      jump\t// out\n        /* \"#utility.yul\":20136:20327   */\n    tag_92:\n        /* \"#utility.yul\":20176:20179   */\n      0x00\n        /* \"#utility.yul\":20195:20215   */\n      tag_372\n        /* \"#utility.yul\":20213:20214   */\n      dup3\n        /* \"#utility.yul\":20195:20215   */\n      tag_105\n      jump\t// in\n    tag_372:\n        /* \"#utility.yul\":20190:20215   */\n      swap2\n      pop\n        /* \"#utility.yul\":20229:20249   */\n      tag_373\n        /* \"#utility.yul\":20247:20248   */\n      dup4\n        /* \"#utility.yul\":20229:20249   */\n      tag_105\n      jump\t// in\n    tag_373:\n        /* \"#utility.yul\":20224:20249   */\n      swap3\n      pop\n        /* \"#utility.yul\":20272:20273   */\n      dup3\n        /* \"#utility.yul\":20269:20270   */\n      dup3\n        /* \"#utility.yul\":20265:20274   */\n      add\n        /* \"#utility.yul\":20258:20274   */\n      swap1\n      pop\n        /* \"#utility.yul\":20293:20296   */\n      dup1\n        /* \"#utility.yul\":20290:20291   */\n      dup3\n        /* \"#utility.yul\":20287:20297   */\n      gt\n        /* \"#utility.yul\":20284:20320   */\n      iszero\n      tag_374\n      jumpi\n        /* \"#utility.yul\":20300:20318   */\n      tag_375\n      tag_134\n      jump\t// in\n    tag_375:\n        /* \"#utility.yul\":20284:20320   */\n    tag_374:\n        /* \"#utility.yul\":20136:20327   */\n      swap3\n      swap2\n      pop\n      pop\n      jump\t// out\n\n    auxdata: 0xa2646970667358221220a25bca99938d7cd1f24eee097e90e3662963aa32eab2b5c6c434338a02c1b10a64736f6c63430008180033\n}\n",
				"bytecode": {
					"linkReferences": {},
					"object": "608060405234801561000f575f80fd5b50335f806101000a81548173ffffffffffffffffffffffffffffffffffffffff021916908373ffffffffffffffffffffffffffffffffffffffff16021790555061143c8061005c5f395ff3fe608060405234801561000f575f80fd5b5060043610610055575f3560e01c8063642f9163146100595780636d627fa8146100895780638da5cb5b146100a5578063b645307d146100c3578063e7c0994a146100df575b5f80fd5b610073600480360381019061006e9190610974565b6100fb565b6040516100809190610af2565b60405180910390f35b6100a3600480360381019061009e9190610c92565b61024a565b005b6100ad610419565b6040516100ba9190610d21565b60405180910390f35b6100dd60048036038101906100d89190610974565b61043c565b005b6100f960048036038101906100f49190610d3a565b6106bf565b005b61010361089a565b600180836101119190610dd3565b8154811061012257610121610e06565b5b905f5260205f2090600402016040518060800160405290815f82015f9054906101000a900473ffffffffffffffffffffffffffffffffffffffff1673ffffffffffffffffffffffffffffffffffffffff1673ffffffffffffffffffffffffffffffffffffffff16815260200160018201805461019d90610e60565b80601f01602080910402602001604051908101604052809291908181526020018280546101c990610e60565b80156102145780601f106101eb57610100808354040283529160200191610214565b820191905f5260205f20905b8154815290600101906020018083116101f757829003601f168201915b50505050508152602001600282015f9054906101000a900460ff1660ff1660ff1681526020016003820154815250509050919050565b3373ffffffffffffffffffffffffffffffffffffffff165f8054906101000a900473ffffffffffffffffffffffffffffffffffffffff1673ffffffffffffffffffffffffffffffffffffffff16146102d7576040517f08c379a00000000000000000000000000000000000000000000000000000000081526004016102ce90610eea565b60405180910390fd5b60128360ff16101561031e576040517f08c379a000000000000000000000000000000000000000000000000000000000815260040161031590610f52565b60405180910390fd5b5f8411801561033257506001805490508411155b610371576040517f08c379a000000000000000000000000000000000000000000000000000000000815260040161036890610fba565b60405180910390fd5b5f60018080805490506103849190610dd3565b8154811061039557610394610e06565b5b905f5260205f209060040201905081815f015f6101000a81548173ffffffffffffffffffffffffffffffffffffffff021916908373ffffffffffffffffffffffffffffffffffffffff160217905550828160010190816103f59190611175565b5083816002015f6101000a81548160ff021916908360ff1602179055505050505050565b5f8054906101000a900473ffffffffffffffffffffffffffffffffffffffff1681565b3373ffffffffffffffffffffffffffffffffffffffff165f8054906101000a900473ffffffffffffffffffffffffffffffffffffffff1673ffffffffffffffffffffffffffffffffffffffff16146104c9576040517f08c379a00000000000000000000000000000000000000000000000000000000081526004016104c090610eea565b60405180910390fd5b5f811180156104dd57506001805490508111155b61051c576040517f08c379a000000000000000000000000000000000000000000000000000000000815260040161051390610fba565b60405180910390fd5b5f60018261052a9190610dd3565b90506001808054905061053d9190610dd3565b81146106445760018080805490506105559190610dd3565b8154811061056657610565610e06565b5b905f5260205f2090600402016001828154811061058657610585610e06565b5b905f5260205f2090600402015f82015f9054906101000a900473ffffffffffffffffffffffffffffffffffffffff16815f015f6101000a81548173ffffffffffffffffffffffffffffffffffffffff021916908373ffffffffffffffffffffffffffffffffffffffff160217905550600182018160010190816106099190611259565b50600282015f9054906101000a900460ff16816002015f6101000a81548160ff021916908360ff160217905550600382015481600301559050505b60018054806106565761065561133e565b5b600190038181905f5260205f2090600402015f8082015f6101000a81549073ffffffffffffffffffffffffffffffffffffffff0219169055600182015f61069d91906108d8565b600282015f6101000a81549060ff0219169055600382015f9055505090555050565b3373ffffffffffffffffffffffffffffffffffffffff165f8054906101000a900473ffffffffffffffffffffffffffffffffffffffff1673ffffffffffffffffffffffffffffffffffffffff161461074c576040517f08c379a0000000000000000000000000000000000000000000000000000000008152600401610743906113b5565b60405180910390fd5b60128160ff161015610793576040517f08c379a000000000000000000000000000000000000000000000000000000000815260040161078a90610f52565b60405180910390fd5b5f600180805490506107a591906113d3565b90505f60405180608001604052808673ffffffffffffffffffffffffffffffffffffffff1681526020018581526020018460ff168152602001838152509050600181908060018154018082558091505060019003905f5260205f2090600402015f909190919091505f820151815f015f6101000a81548173ffffffffffffffffffffffffffffffffffffffff021916908373ffffffffffffffffffffffffffffffffffffffff16021790555060208201518160010190816108669190611175565b506040820151816002015f6101000a81548160ff021916908360ff1602179055506060820151816003015550505050505050565b60405180608001604052805f73ffffffffffffffffffffffffffffffffffffffff168152602001606081526020015f60ff1681526020015f81525090565b5080546108e490610e60565b5f825580601f106108f55750610912565b601f0160209004905f5260205f20908101906109119190610915565b5b50565b5b8082111561092c575f815f905550600101610916565b5090565b5f604051905090565b5f80fd5b5f80fd5b5f819050919050565b61095381610941565b811461095d575f80fd5b50565b5f8135905061096e8161094a565b92915050565b5f6020828403121561098957610988610939565b5b5f61099684828501610960565b91505092915050565b5f73ffffffffffffffffffffffffffffffffffffffff82169050919050565b5f6109c88261099f565b9050919050565b6109d8816109be565b82525050565b5f81519050919050565b5f82825260208201905092915050565b5f5b83811015610a155780820151818401526020810190506109fa565b5f8484015250505050565b5f601f19601f8301169050919050565b5f610a3a826109de565b610a4481856109e8565b9350610a548185602086016109f8565b610a5d81610a20565b840191505092915050565b5f60ff82169050919050565b610a7d81610a68565b82525050565b610a8c81610941565b82525050565b5f608083015f830151610aa75f8601826109cf565b5060208301518482036020860152610abf8282610a30565b9150506040830151610ad46040860182610a74565b506060830151610ae76060860182610a83565b508091505092915050565b5f6020820190508181035f830152610b0a8184610a92565b905092915050565b610b1b81610a68565b8114610b25575f80fd5b50565b5f81359050610b3681610b12565b92915050565b5f80fd5b5f80fd5b7f4e487b71000000000000000000000000000000000000000000000000000000005f52604160045260245ffd5b610b7a82610a20565b810181811067ffffffffffffffff82111715610b9957610b98610b44565b5b80604052505050565b5f610bab610930565b9050610bb78282610b71565b919050565b5f67ffffffffffffffff821115610bd657610bd5610b44565b5b610bdf82610a20565b9050602081019050919050565b828183375f83830152505050565b5f610c0c610c0784610bbc565b610ba2565b905082815260208101848484011115610c2857610c27610b40565b5b610c33848285610bec565b509392505050565b5f82601f830112610c4f57610c4e610b3c565b5b8135610c5f848260208601610bfa565b91505092915050565b610c71816109be565b8114610c7b575f80fd5b50565b5f81359050610c8c81610c68565b92915050565b5f805f8060808587031215610caa57610ca9610939565b5b5f610cb787828801610960565b9450506020610cc887828801610b28565b935050604085013567ffffffffffffffff811115610ce957610ce861093d565b5b610cf587828801610c3b565b9250506060610d0687828801610c7e565b91505092959194509250565b610d1b816109be565b82525050565b5f602082019050610d345f830184610d12565b92915050565b5f805f60608486031215610d5157610d50610939565b5b5f610d5e86828701610c7e565b935050602084013567ffffffffffffffff811115610d7f57610d7e61093d565b5b610d8b86828701610c3b565b9250506040610d9c86828701610b28565b9150509250925092565b7f4e487b71000000000000000000000000000000000000000000000000000000005f52601160045260245ffd5b5f610ddd82610941565b9150610de883610941565b9250828203905081811115610e0057610dff610da6565b5b92915050565b7f4e487b71000000000000000000000000000000000000000000000000000000005f52603260045260245ffd5b7f4e487b71000000000000000000000000000000000000000000000000000000005f52602260045260245ffd5b5f6002820490506001821680610e7757607f821691505b602082108103610e8a57610e89610e33565b5b50919050565b5f82825260208201905092915050565b7f596f7520617265206e6f74207065726d697474656400000000000000000000005f82015250565b5f610ed4601583610e90565b9150610edf82610ea0565b602082019050919050565b5f6020820190508181035f830152610f0181610ec8565b9050919050565b7f47726f7720757020612062697420616e642074727920616761696e21000000005f82015250565b5f610f3c601c83610e90565b9150610f4782610f08565b602082019050919050565b5f6020820190508181035f830152610f6981610f30565b9050919050565b7f546869732068756d616e20646f6573206e6f74206578697374000000000000005f82015250565b5f610fa4601983610e90565b9150610faf82610f70565b602082019050919050565b5f6020820190508181035f830152610fd181610f98565b9050919050565b5f819050815f5260205f209050919050565b5f6020601f8301049050919050565b5f82821b905092915050565b5f600883026110347fffffffffffffffffffffffffffffffffffffffffffffffffffffffffffffffff82610ff9565b61103e8683610ff9565b95508019841693508086168417925050509392505050565b5f819050919050565b5f61107961107461106f84610941565b611056565b610941565b9050919050565b5f819050919050565b6110928361105f565b6110a661109e82611080565b848454611005565b825550505050565b5f90565b6110ba6110ae565b6110c5818484611089565b505050565b5b818110156110e8576110dd5f826110b2565b6001810190506110cb565b5050565b601f82111561112d576110fe81610fd8565b61110784610fea565b81016020851015611116578190505b61112a61112285610fea565b8301826110ca565b50505b505050565b5f82821c905092915050565b5f61114d5f1984600802611132565b1980831691505092915050565b5f611165838361113e565b9150826002028217905092915050565b61117e826109de565b67ffffffffffffffff81111561119757611196610b44565b5b6111a18254610e60565b6111ac8282856110ec565b5f60209050601f8311600181146111dd575f84156111cb578287015190505b6111d5858261115a565b86555061123c565b601f1984166111eb86610fd8565b5f5b82811015611212578489015182556001820191506020850194506020810190506111ed565b8683101561122f578489015161122b601f89168261113e565b8355505b6001600288020188555050505b505050505050565b5f8154905061125281610e60565b9050919050565b81810361126757505061133c565b61127082611244565b67ffffffffffffffff81111561128957611288610b44565b5b6112938254610e60565b61129e8282856110ec565b5f601f8311600181146112cb575f84156112b9578287015490505b6112c3858261115a565b865550611335565b601f1984166112d987610fd8565b96506112e486610fd8565b5f5b8281101561130b578489015482556001820191506001850194506020810190506112e6565b868310156113285784890154611324601f89168261113e565b8355505b6001600288020188555050505b5050505050505b565b7f4e487b71000000000000000000000000000000000000000000000000000000005f52603160045260245ffd5b7f596f7520617265206e6f74207065726d697474656420000000000000000000005f82015250565b5f61139f601683610e90565b91506113aa8261136b565b602082019050919050565b5f6020820190508181035f8301526113cc81611393565b9050919050565b5f6113dd82610941565b91506113e883610941565b9250828201905080821115611400576113ff610da6565b5b9291505056fea2646970667358221220a25bca99938d7cd1f24eee097e90e3662963aa32eab2b5c6c434338a02c1b10a64736f6c63430008180033",
					"opcodes": "PUSH1 0x80 PUSH1 0x40 MSTORE CALLVALUE DUP1 ISZERO PUSH2 0xF JUMPI PUSH0 DUP1 REVERT JUMPDEST POP CALLER PUSH0 DUP1 PUSH2 0x100 EXP DUP2 SLOAD DUP2 PUSH20 0xFFFFFFFFFFFFFFFFFFFFFFFFFFFFFFFFFFFFFFFF MUL NOT AND SWAP1 DUP4 PUSH20 0xFFFFFFFFFFFFFFFFFFFFFFFFFFFFFFFFFFFFFFFF AND MUL OR SWAP1 SSTORE POP PUSH2 0x143C DUP1 PUSH2 0x5C PUSH0 CODECOPY PUSH0 RETURN INVALID PUSH1 0x80 PUSH1 0x40 MSTORE CALLVALUE DUP1 ISZERO PUSH2 0xF JUMPI PUSH0 DUP1 REVERT JUMPDEST POP PUSH1 0x4 CALLDATASIZE LT PUSH2 0x55 JUMPI PUSH0 CALLDATALOAD PUSH1 0xE0 SHR DUP1 PUSH4 0x642F9163 EQ PUSH2 0x59 JUMPI DUP1 PUSH4 0x6D627FA8 EQ PUSH2 0x89 JUMPI DUP1 PUSH4 0x8DA5CB5B EQ PUSH2 0xA5 JUMPI DUP1 PUSH4 0xB645307D EQ PUSH2 0xC3 JUMPI DUP1 PUSH4 0xE7C0994A EQ PUSH2 0xDF JUMPI JUMPDEST PUSH0 DUP1 REVERT JUMPDEST PUSH2 0x73 PUSH1 0x4 DUP1 CALLDATASIZE SUB DUP2 ADD SWAP1 PUSH2 0x6E SWAP2 SWAP1 PUSH2 0x974 JUMP JUMPDEST PUSH2 0xFB JUMP JUMPDEST PUSH1 0x40 MLOAD PUSH2 0x80 SWAP2 SWAP1 PUSH2 0xAF2 JUMP JUMPDEST PUSH1 0x40 MLOAD DUP1 SWAP2 SUB SWAP1 RETURN JUMPDEST PUSH2 0xA3 PUSH1 0x4 DUP1 CALLDATASIZE SUB DUP2 ADD SWAP1 PUSH2 0x9E SWAP2 SWAP1 PUSH2 0xC92 JUMP JUMPDEST PUSH2 0x24A JUMP JUMPDEST STOP JUMPDEST PUSH2 0xAD PUSH2 0x419 JUMP JUMPDEST PUSH1 0x40 MLOAD PUSH2 0xBA SWAP2 SWAP1 PUSH2 0xD21 JUMP JUMPDEST PUSH1 0x40 MLOAD DUP1 SWAP2 SUB SWAP1 RETURN JUMPDEST PUSH2 0xDD PUSH1 0x4 DUP1 CALLDATASIZE SUB DUP2 ADD SWAP1 PUSH2 0xD8 SWAP2 SWAP1 PUSH2 0x974 JUMP JUMPDEST PUSH2 0x43C JUMP JUMPDEST STOP JUMPDEST PUSH2 0xF9 PUSH1 0x4 DUP1 CALLDATASIZE SUB DUP2 ADD SWAP1 PUSH2 0xF4 SWAP2 SWAP1 PUSH2 0xD3A JUMP JUMPDEST PUSH2 0x6BF JUMP JUMPDEST STOP JUMPDEST PUSH2 0x103 PUSH2 0x89A JUMP JUMPDEST PUSH1 0x1 DUP1 DUP4 PUSH2 0x111 SWAP2 SWAP1 PUSH2 0xDD3 JUMP JUMPDEST DUP2 SLOAD DUP2 LT PUSH2 0x122 JUMPI PUSH2 0x121 PUSH2 0xE06 JUMP JUMPDEST JUMPDEST SWAP1 PUSH0 MSTORE PUSH1 0x20 PUSH0 KECCAK256 SWAP1 PUSH1 0x4 MUL ADD PUSH1 0x40 MLOAD DUP1 PUSH1 0x80 ADD PUSH1 0x40 MSTORE SWAP1 DUP2 PUSH0 DUP3 ADD PUSH0 SWAP1 SLOAD SWAP1 PUSH2 0x100 EXP SWAP1 DIV PUSH20 0xFFFFFFFFFFFFFFFFFFFFFFFFFFFFFFFFFFFFFFFF AND PUSH20 0xFFFFFFFFFFFFFFFFFFFFFFFFFFFFFFFFFFFFFFFF AND PUSH20 0xFFFFFFFFFFFFFFFFFFFFFFFFFFFFFFFFFFFFFFFF AND DUP2 MSTORE PUSH1 0x20 ADD PUSH1 0x1 DUP3 ADD DUP1 SLOAD PUSH2 0x19D SWAP1 PUSH2 0xE60 JUMP JUMPDEST DUP1 PUSH1 0x1F ADD PUSH1 0x20 DUP1 SWAP2 DIV MUL PUSH1 0x20 ADD PUSH1 0x40 MLOAD SWAP1 DUP2 ADD PUSH1 0x40 MSTORE DUP1 SWAP3 SWAP2 SWAP1 DUP2 DUP2 MSTORE PUSH1 0x20 ADD DUP3 DUP1 SLOAD PUSH2 0x1C9 SWAP1 PUSH2 0xE60 JUMP JUMPDEST DUP1 ISZERO PUSH2 0x214 JUMPI DUP1 PUSH1 0x1F LT PUSH2 0x1EB JUMPI PUSH2 0x100 DUP1 DUP4 SLOAD DIV MUL DUP4 MSTORE SWAP2 PUSH1 0x20 ADD SWAP2 PUSH2 0x214 JUMP JUMPDEST DUP3 ADD SWAP2 SWAP1 PUSH0 MSTORE PUSH1 0x20 PUSH0 KECCAK256 SWAP1 JUMPDEST DUP2 SLOAD DUP2 MSTORE SWAP1 PUSH1 0x1 ADD SWAP1 PUSH1 0x20 ADD DUP1 DUP4 GT PUSH2 0x1F7 JUMPI DUP3 SWAP1 SUB PUSH1 0x1F AND DUP3 ADD SWAP2 JUMPDEST POP POP POP POP POP DUP2 MSTORE PUSH1 0x20 ADD PUSH1 0x2 DUP3 ADD PUSH0 SWAP1 SLOAD SWAP1 PUSH2 0x100 EXP SWAP1 DIV PUSH1 0xFF AND PUSH1 0xFF AND PUSH1 0xFF AND DUP2 MSTORE PUSH1 0x20 ADD PUSH1 0x3 DUP3 ADD SLOAD DUP2 MSTORE POP POP SWAP1 POP SWAP2 SWAP1 POP JUMP JUMPDEST CALLER PUSH20 0xFFFFFFFFFFFFFFFFFFFFFFFFFFFFFFFFFFFFFFFF AND PUSH0 DUP1 SLOAD SWAP1 PUSH2 0x100 EXP SWAP1 DIV PUSH20 0xFFFFFFFFFFFFFFFFFFFFFFFFFFFFFFFFFFFFFFFF AND PUSH20 0xFFFFFFFFFFFFFFFFFFFFFFFFFFFFFFFFFFFFFFFF AND EQ PUSH2 0x2D7 JUMPI PUSH1 0x40 MLOAD PUSH32 0x8C379A000000000000000000000000000000000000000000000000000000000 DUP2 MSTORE PUSH1 0x4 ADD PUSH2 0x2CE SWAP1 PUSH2 0xEEA JUMP JUMPDEST PUSH1 0x40 MLOAD DUP1 SWAP2 SUB SWAP1 REVERT JUMPDEST PUSH1 0x12 DUP4 PUSH1 0xFF AND LT ISZERO PUSH2 0x31E JUMPI PUSH1 0x40 MLOAD PUSH32 0x8C379A000000000000000000000000000000000000000000000000000000000 DUP2 MSTORE PUSH1 0x4 ADD PUSH2 0x315 SWAP1 PUSH2 0xF52 JUMP JUMPDEST PUSH1 0x40 MLOAD DUP1 SWAP2 SUB SWAP1 REVERT JUMPDEST PUSH0 DUP5 GT DUP1 ISZERO PUSH2 0x332 JUMPI POP PUSH1 0x1 DUP1 SLOAD SWAP1 POP DUP5 GT ISZERO JUMPDEST PUSH2 0x371 JUMPI PUSH1 0x40 MLOAD PUSH32 0x8C379A000000000000000000000000000000000000000000000000000000000 DUP2 MSTORE PUSH1 0x4 ADD PUSH2 0x368 SWAP1 PUSH2 0xFBA JUMP JUMPDEST PUSH1 0x40 MLOAD DUP1 SWAP2 SUB SWAP1 REVERT JUMPDEST PUSH0 PUSH1 0x1 DUP1 DUP1 DUP1 SLOAD SWAP1 POP PUSH2 0x384 SWAP2 SWAP1 PUSH2 0xDD3 JUMP JUMPDEST DUP2 SLOAD DUP2 LT PUSH2 0x395 JUMPI PUSH2 0x394 PUSH2 0xE06 JUMP JUMPDEST JUMPDEST SWAP1 PUSH0 MSTORE PUSH1 0x20 PUSH0 KECCAK256 SWAP1 PUSH1 0x4 MUL ADD SWAP1 POP DUP2 DUP2 PUSH0 ADD PUSH0 PUSH2 0x100 EXP DUP2 SLOAD DUP2 PUSH20 0xFFFFFFFFFFFFFFFFFFFFFFFFFFFFFFFFFFFFFFFF MUL NOT AND SWAP1 DUP4 PUSH20 0xFFFFFFFFFFFFFFFFFFFFFFFFFFFFFFFFFFFFFFFF AND MUL OR SWAP1 SSTORE POP DUP3 DUP2 PUSH1 0x1 ADD SWAP1 DUP2 PUSH2 0x3F5 SWAP2 SWAP1 PUSH2 0x1175 JUMP JUMPDEST POP DUP4 DUP2 PUSH1 0x2 ADD PUSH0 PUSH2 0x100 EXP DUP2 SLOAD DUP2 PUSH1 0xFF MUL NOT AND SWAP1 DUP4 PUSH1 0xFF AND MUL OR SWAP1 SSTORE POP POP POP POP POP POP JUMP JUMPDEST PUSH0 DUP1 SLOAD SWAP1 PUSH2 0x100 EXP SWAP1 DIV PUSH20 0xFFFFFFFFFFFFFFFFFFFFFFFFFFFFFFFFFFFFFFFF AND DUP2 JUMP JUMPDEST CALLER PUSH20 0xFFFFFFFFFFFFFFFFFFFFFFFFFFFFFFFFFFFFFFFF AND PUSH0 DUP1 SLOAD SWAP1 PUSH2 0x100 EXP SWAP1 DIV PUSH20 0xFFFFFFFFFFFFFFFFFFFFFFFFFFFFFFFFFFFFFFFF AND PUSH20 0xFFFFFFFFFFFFFFFFFFFFFFFFFFFFFFFFFFFFFFFF AND EQ PUSH2 0x4C9 JUMPI PUSH1 0x40 MLOAD PUSH32 0x8C379A000000000000000000000000000000000000000000000000000000000 DUP2 MSTORE PUSH1 0x4 ADD PUSH2 0x4C0 SWAP1 PUSH2 0xEEA JUMP JUMPDEST PUSH1 0x40 MLOAD DUP1 SWAP2 SUB SWAP1 REVERT JUMPDEST PUSH0 DUP2 GT DUP1 ISZERO PUSH2 0x4DD JUMPI POP PUSH1 0x1 DUP1 SLOAD SWAP1 POP DUP2 GT ISZERO JUMPDEST PUSH2 0x51C JUMPI PUSH1 0x40 MLOAD PUSH32 0x8C379A000000000000000000000000000000000000000000000000000000000 DUP2 MSTORE PUSH1 0x4 ADD PUSH2 0x513 SWAP1 PUSH2 0xFBA JUMP JUMPDEST PUSH1 0x40 MLOAD DUP1 SWAP2 SUB SWAP1 REVERT JUMPDEST PUSH0 PUSH1 0x1 DUP3 PUSH2 0x52A SWAP2 SWAP1 PUSH2 0xDD3 JUMP JUMPDEST SWAP1 POP PUSH1 0x1 DUP1 DUP1 SLOAD SWAP1 POP PUSH2 0x53D SWAP2 SWAP1 PUSH2 0xDD3 JUMP JUMPDEST DUP2 EQ PUSH2 0x644 JUMPI PUSH1 0x1 DUP1 DUP1 DUP1 SLOAD SWAP1 POP PUSH2 0x555 SWAP2 SWAP1 PUSH2 0xDD3 JUMP JUMPDEST DUP2 SLOAD DUP2 LT PUSH2 0x566 JUMPI PUSH2 0x565 PUSH2 0xE06 JUMP JUMPDEST JUMPDEST SWAP1 PUSH0 MSTORE PUSH1 0x20 PUSH0 KECCAK256 SWAP1 PUSH1 0x4 MUL ADD PUSH1 0x1 DUP3 DUP2 SLOAD DUP2 LT PUSH2 0x586 JUMPI PUSH2 0x585 PUSH2 0xE06 JUMP JUMPDEST JUMPDEST SWAP1 PUSH0 MSTORE PUSH1 0x20 PUSH0 KECCAK256 SWAP1 PUSH1 0x4 MUL ADD PUSH0 DUP3 ADD PUSH0 SWAP1 SLOAD SWAP1 PUSH2 0x100 EXP SWAP1 DIV PUSH20 0xFFFFFFFFFFFFFFFFFFFFFFFFFFFFFFFFFFFFFFFF AND DUP2 PUSH0 ADD PUSH0 PUSH2 0x100 EXP DUP2 SLOAD DUP2 PUSH20 0xFFFFFFFFFFFFFFFFFFFFFFFFFFFFFFFFFFFFFFFF MUL NOT AND SWAP1 DUP4 PUSH20 0xFFFFFFFFFFFFFFFFFFFFFFFFFFFFFFFFFFFFFFFF AND MUL OR SWAP1 SSTORE POP PUSH1 0x1 DUP3 ADD DUP2 PUSH1 0x1 ADD SWAP1 DUP2 PUSH2 0x609 SWAP2 SWAP1 PUSH2 0x1259 JUMP JUMPDEST POP PUSH1 0x2 DUP3 ADD PUSH0 SWAP1 SLOAD SWAP1 PUSH2 0x100 EXP SWAP1 DIV PUSH1 0xFF AND DUP2 PUSH1 0x2 ADD PUSH0 PUSH2 0x100 EXP DUP2 SLOAD DUP2 PUSH1 0xFF MUL NOT AND SWAP1 DUP4 PUSH1 0xFF AND MUL OR SWAP1 SSTORE POP PUSH1 0x3 DUP3 ADD SLOAD DUP2 PUSH1 0x3 ADD SSTORE SWAP1 POP POP JUMPDEST PUSH1 0x1 DUP1 SLOAD DUP1 PUSH2 0x656 JUMPI PUSH2 0x655 PUSH2 0x133E JUMP JUMPDEST JUMPDEST PUSH1 0x1 SWAP1 SUB DUP2 DUP2 SWAP1 PUSH0 MSTORE PUSH1 0x20 PUSH0 KECCAK256 SWAP1 PUSH1 0x4 MUL ADD PUSH0 DUP1 DUP3 ADD PUSH0 PUSH2 0x100 EXP DUP2 SLOAD SWAP1 PUSH20 0xFFFFFFFFFFFFFFFFFFFFFFFFFFFFFFFFFFFFFFFF MUL NOT AND SWAP1 SSTORE PUSH1 0x1 DUP3 ADD PUSH0 PUSH2 0x69D SWAP2 SWAP1 PUSH2 0x8D8 JUMP JUMPDEST PUSH1 0x2 DUP3 ADD PUSH0 PUSH2 0x100 EXP DUP2 SLOAD SWAP1 PUSH1 0xFF MUL NOT AND SWAP1 SSTORE PUSH1 0x3 DUP3 ADD PUSH0 SWAP1 SSTORE POP POP SWAP1 SSTORE POP POP JUMP JUMPDEST CALLER PUSH20 0xFFFFFFFFFFFFFFFFFFFFFFFFFFFFFFFFFFFFFFFF AND PUSH0 DUP1 SLOAD SWAP1 PUSH2 0x100 EXP SWAP1 DIV PUSH20 0xFFFFFFFFFFFFFFFFFFFFFFFFFFFFFFFFFFFFFFFF AND PUSH20 0xFFFFFFFFFFFFFFFFFFFFFFFFFFFFFFFFFFFFFFFF AND EQ PUSH2 0x74C JUMPI PUSH1 0x40 MLOAD PUSH32 0x8C379A000000000000000000000000000000000000000000000000000000000 DUP2 MSTORE PUSH1 0x4 ADD PUSH2 0x743 SWAP1 PUSH2 0x13B5 JUMP JUMPDEST PUSH1 0x40 MLOAD DUP1 SWAP2 SUB SWAP1 REVERT JUMPDEST PUSH1 0x12 DUP2 PUSH1 0xFF AND LT ISZERO PUSH2 0x793 JUMPI PUSH1 0x40 MLOAD PUSH32 0x8C379A000000000000000000000000000000000000000000000000000000000 DUP2 MSTORE PUSH1 0x4 ADD PUSH2 0x78A SWAP1 PUSH2 0xF52 JUMP JUMPDEST PUSH1 0x40 MLOAD DUP1 SWAP2 SUB SWAP1 REVERT JUMPDEST PUSH0 PUSH1 0x1 DUP1 DUP1 SLOAD SWAP1 POP PUSH2 0x7A5 SWAP2 SWAP1 PUSH2 0x13D3 JUMP JUMPDEST SWAP1 POP PUSH0 PUSH1 0x40 MLOAD DUP1 PUSH1 0x80 ADD PUSH1 0x40 MSTORE DUP1 DUP7 PUSH20 0xFFFFFFFFFFFFFFFFFFFFFFFFFFFFFFFFFFFFFFFF AND DUP2 MSTORE PUSH1 0x20 ADD DUP6 DUP2 MSTORE PUSH1 0x20 ADD DUP5 PUSH1 0xFF AND DUP2 MSTORE PUSH1 0x20 ADD DUP4 DUP2 MSTORE POP SWAP1 POP PUSH1 0x1 DUP2 SWAP1 DUP1 PUSH1 0x1 DUP2 SLOAD ADD DUP1 DUP3 SSTORE DUP1 SWAP2 POP POP PUSH1 0x1 SWAP1 SUB SWAP1 PUSH0 MSTORE PUSH1 0x20 PUSH0 KECCAK256 SWAP1 PUSH1 0x4 MUL ADD PUSH0 SWAP1 SWAP2 SWAP1 SWAP2 SWAP1 SWAP2 POP PUSH0 DUP3 ADD MLOAD DUP2 PUSH0 ADD PUSH0 PUSH2 0x100 EXP DUP2 SLOAD DUP2 PUSH20 0xFFFFFFFFFFFFFFFFFFFFFFFFFFFFFFFFFFFFFFFF MUL NOT AND SWAP1 DUP4 PUSH20 0xFFFFFFFFFFFFFFFFFFFFFFFFFFFFFFFFFFFFFFFF AND MUL OR SWAP1 SSTORE POP PUSH1 0x20 DUP3 ADD MLOAD DUP2 PUSH1 0x1 ADD SWAP1 DUP2 PUSH2 0x866 SWAP2 SWAP1 PUSH2 0x1175 JUMP JUMPDEST POP PUSH1 0x40 DUP3 ADD MLOAD DUP2 PUSH1 0x2 ADD PUSH0 PUSH2 0x100 EXP DUP2 SLOAD DUP2 PUSH1 0xFF MUL NOT AND SWAP1 DUP4 PUSH1 0xFF AND MUL OR SWAP1 SSTORE POP PUSH1 0x60 DUP3 ADD MLOAD DUP2 PUSH1 0x3 ADD SSTORE POP POP POP POP POP POP POP JUMP JUMPDEST PUSH1 0x40 MLOAD DUP1 PUSH1 0x80 ADD PUSH1 0x40 MSTORE DUP1 PUSH0 PUSH20 0xFFFFFFFFFFFFFFFFFFFFFFFFFFFFFFFFFFFFFFFF AND DUP2 MSTORE PUSH1 0x20 ADD PUSH1 0x60 DUP2 MSTORE PUSH1 0x20 ADD PUSH0 PUSH1 0xFF AND DUP2 MSTORE PUSH1 0x20 ADD PUSH0 DUP2 MSTORE POP SWAP1 JUMP JUMPDEST POP DUP1 SLOAD PUSH2 0x8E4 SWAP1 PUSH2 0xE60 JUMP JUMPDEST PUSH0 DUP3 SSTORE DUP1 PUSH1 0x1F LT PUSH2 0x8F5 JUMPI POP PUSH2 0x912 JUMP JUMPDEST PUSH1 0x1F ADD PUSH1 0x20 SWAP1 DIV SWAP1 PUSH0 MSTORE PUSH1 0x20 PUSH0 KECCAK256 SWAP1 DUP2 ADD SWAP1 PUSH2 0x911 SWAP2 SWAP1 PUSH2 0x915 JUMP JUMPDEST JUMPDEST POP JUMP JUMPDEST JUMPDEST DUP1 DUP3 GT ISZERO PUSH2 0x92C JUMPI PUSH0 DUP2 PUSH0 SWAP1 SSTORE POP PUSH1 0x1 ADD PUSH2 0x916 JUMP JUMPDEST POP SWAP1 JUMP JUMPDEST PUSH0 PUSH1 0x40 MLOAD SWAP1 POP SWAP1 JUMP JUMPDEST PUSH0 DUP1 REVERT JUMPDEST PUSH0 DUP1 REVERT JUMPDEST PUSH0 DUP2 SWAP1 POP SWAP2 SWAP1 POP JUMP JUMPDEST PUSH2 0x953 DUP2 PUSH2 0x941 JUMP JUMPDEST DUP2 EQ PUSH2 0x95D JUMPI PUSH0 DUP1 REVERT JUMPDEST POP JUMP JUMPDEST PUSH0 DUP2 CALLDATALOAD SWAP1 POP PUSH2 0x96E DUP2 PUSH2 0x94A JUMP JUMPDEST SWAP3 SWAP2 POP POP JUMP JUMPDEST PUSH0 PUSH1 0x20 DUP3 DUP5 SUB SLT ISZERO PUSH2 0x989 JUMPI PUSH2 0x988 PUSH2 0x939 JUMP JUMPDEST JUMPDEST PUSH0 PUSH2 0x996 DUP5 DUP3 DUP6 ADD PUSH2 0x960 JUMP JUMPDEST SWAP2 POP POP SWAP3 SWAP2 POP POP JUMP JUMPDEST PUSH0 PUSH20 0xFFFFFFFFFFFFFFFFFFFFFFFFFFFFFFFFFFFFFFFF DUP3 AND SWAP1 POP SWAP2 SWAP1 POP JUMP JUMPDEST PUSH0 PUSH2 0x9C8 DUP3 PUSH2 0x99F JUMP JUMPDEST SWAP1 POP SWAP2 SWAP1 POP JUMP JUMPDEST PUSH2 0x9D8 DUP2 PUSH2 0x9BE JUMP JUMPDEST DUP3 MSTORE POP POP JUMP JUMPDEST PUSH0 DUP2 MLOAD SWAP1 POP SWAP2 SWAP1 POP JUMP JUMPDEST PUSH0 DUP3 DUP3 MSTORE PUSH1 0x20 DUP3 ADD SWAP1 POP SWAP3 SWAP2 POP POP JUMP JUMPDEST PUSH0 JUMPDEST DUP4 DUP2 LT ISZERO PUSH2 0xA15 JUMPI DUP1 DUP3 ADD MLOAD DUP2 DUP5 ADD MSTORE PUSH1 0x20 DUP2 ADD SWAP1 POP PUSH2 0x9FA JUMP JUMPDEST PUSH0 DUP5 DUP5 ADD MSTORE POP POP POP POP JUMP JUMPDEST PUSH0 PUSH1 0x1F NOT PUSH1 0x1F DUP4 ADD AND SWAP1 POP SWAP2 SWAP1 POP JUMP JUMPDEST PUSH0 PUSH2 0xA3A DUP3 PUSH2 0x9DE JUMP JUMPDEST PUSH2 0xA44 DUP2 DUP6 PUSH2 0x9E8 JUMP JUMPDEST SWAP4 POP PUSH2 0xA54 DUP2 DUP6 PUSH1 0x20 DUP7 ADD PUSH2 0x9F8 JUMP JUMPDEST PUSH2 0xA5D DUP2 PUSH2 0xA20 JUMP JUMPDEST DUP5 ADD SWAP2 POP POP SWAP3 SWAP2 POP POP JUMP JUMPDEST PUSH0 PUSH1 0xFF DUP3 AND SWAP1 POP SWAP2 SWAP1 POP JUMP JUMPDEST PUSH2 0xA7D DUP2 PUSH2 0xA68 JUMP JUMPDEST DUP3 MSTORE POP POP JUMP JUMPDEST PUSH2 0xA8C DUP2 PUSH2 0x941 JUMP JUMPDEST DUP3 MSTORE POP POP JUMP JUMPDEST PUSH0 PUSH1 0x80 DUP4 ADD PUSH0 DUP4 ADD MLOAD PUSH2 0xAA7 PUSH0 DUP7 ADD DUP3 PUSH2 0x9CF JUMP JUMPDEST POP PUSH1 0x20 DUP4 ADD MLOAD DUP5 DUP3 SUB PUSH1 0x20 DUP7 ADD MSTORE PUSH2 0xABF DUP3 DUP3 PUSH2 0xA30 JUMP JUMPDEST SWAP2 POP POP PUSH1 0x40 DUP4 ADD MLOAD PUSH2 0xAD4 PUSH1 0x40 DUP7 ADD DUP3 PUSH2 0xA74 JUMP JUMPDEST POP PUSH1 0x60 DUP4 ADD MLOAD PUSH2 0xAE7 PUSH1 0x60 DUP7 ADD DUP3 PUSH2 0xA83 JUMP JUMPDEST POP DUP1 SWAP2 POP POP SWAP3 SWAP2 POP POP JUMP JUMPDEST PUSH0 PUSH1 0x20 DUP3 ADD SWAP1 POP DUP2 DUP2 SUB PUSH0 DUP4 ADD MSTORE PUSH2 0xB0A DUP2 DUP5 PUSH2 0xA92 JUMP JUMPDEST SWAP1 POP SWAP3 SWAP2 POP POP JUMP JUMPDEST PUSH2 0xB1B DUP2 PUSH2 0xA68 JUMP JUMPDEST DUP2 EQ PUSH2 0xB25 JUMPI PUSH0 DUP1 REVERT JUMPDEST POP JUMP JUMPDEST PUSH0 DUP2 CALLDATALOAD SWAP1 POP PUSH2 0xB36 DUP2 PUSH2 0xB12 JUMP JUMPDEST SWAP3 SWAP2 POP POP JUMP JUMPDEST PUSH0 DUP1 REVERT JUMPDEST PUSH0 DUP1 REVERT JUMPDEST PUSH32 0x4E487B7100000000000000000000000000000000000000000000000000000000 PUSH0 MSTORE PUSH1 0x41 PUSH1 0x4 MSTORE PUSH1 0x24 PUSH0 REVERT JUMPDEST PUSH2 0xB7A DUP3 PUSH2 0xA20 JUMP JUMPDEST DUP2 ADD DUP2 DUP2 LT PUSH8 0xFFFFFFFFFFFFFFFF DUP3 GT OR ISZERO PUSH2 0xB99 JUMPI PUSH2 0xB98 PUSH2 0xB44 JUMP JUMPDEST JUMPDEST DUP1 PUSH1 0x40 MSTORE POP POP POP JUMP JUMPDEST PUSH0 PUSH2 0xBAB PUSH2 0x930 JUMP JUMPDEST SWAP1 POP PUSH2 0xBB7 DUP3 DUP3 PUSH2 0xB71 JUMP JUMPDEST SWAP2 SWAP1 POP JUMP JUMPDEST PUSH0 PUSH8 0xFFFFFFFFFFFFFFFF DUP3 GT ISZERO PUSH2 0xBD6 JUMPI PUSH2 0xBD5 PUSH2 0xB44 JUMP JUMPDEST JUMPDEST PUSH2 0xBDF DUP3 PUSH2 0xA20 JUMP JUMPDEST SWAP1 POP PUSH1 0x20 DUP2 ADD SWAP1 POP SWAP2 SWAP1 POP JUMP JUMPDEST DUP3 DUP2 DUP4 CALLDATACOPY PUSH0 DUP4 DUP4 ADD MSTORE POP POP POP JUMP JUMPDEST PUSH0 PUSH2 0xC0C PUSH2 0xC07 DUP5 PUSH2 0xBBC JUMP JUMPDEST PUSH2 0xBA2 JUMP JUMPDEST SWAP1 POP DUP3 DUP2 MSTORE PUSH1 0x20 DUP2 ADD DUP5 DUP5 DUP5 ADD GT ISZERO PUSH2 0xC28 JUMPI PUSH2 0xC27 PUSH2 0xB40 JUMP JUMPDEST JUMPDEST PUSH2 0xC33 DUP5 DUP3 DUP6 PUSH2 0xBEC JUMP JUMPDEST POP SWAP4 SWAP3 POP POP POP JUMP JUMPDEST PUSH0 DUP3 PUSH1 0x1F DUP4 ADD SLT PUSH2 0xC4F JUMPI PUSH2 0xC4E PUSH2 0xB3C JUMP JUMPDEST JUMPDEST DUP2 CALLDATALOAD PUSH2 0xC5F DUP5 DUP3 PUSH1 0x20 DUP7 ADD PUSH2 0xBFA JUMP JUMPDEST SWAP2 POP POP SWAP3 SWAP2 POP POP JUMP JUMPDEST PUSH2 0xC71 DUP2 PUSH2 0x9BE JUMP JUMPDEST DUP2 EQ PUSH2 0xC7B JUMPI PUSH0 DUP1 REVERT JUMPDEST POP JUMP JUMPDEST PUSH0 DUP2 CALLDATALOAD SWAP1 POP PUSH2 0xC8C DUP2 PUSH2 0xC68 JUMP JUMPDEST SWAP3 SWAP2 POP POP JUMP JUMPDEST PUSH0 DUP1 PUSH0 DUP1 PUSH1 0x80 DUP6 DUP8 SUB SLT ISZERO PUSH2 0xCAA JUMPI PUSH2 0xCA9 PUSH2 0x939 JUMP JUMPDEST JUMPDEST PUSH0 PUSH2 0xCB7 DUP8 DUP3 DUP9 ADD PUSH2 0x960 JUMP JUMPDEST SWAP5 POP POP PUSH1 0x20 PUSH2 0xCC8 DUP8 DUP3 DUP9 ADD PUSH2 0xB28 JUMP JUMPDEST SWAP4 POP POP PUSH1 0x40 DUP6 ADD CALLDATALOAD PUSH8 0xFFFFFFFFFFFFFFFF DUP2 GT ISZERO PUSH2 0xCE9 JUMPI PUSH2 0xCE8 PUSH2 0x93D JUMP JUMPDEST JUMPDEST PUSH2 0xCF5 DUP8 DUP3 DUP9 ADD PUSH2 0xC3B JUMP JUMPDEST SWAP3 POP POP PUSH1 0x60 PUSH2 0xD06 DUP8 DUP3 DUP9 ADD PUSH2 0xC7E JUMP JUMPDEST SWAP2 POP POP SWAP3 SWAP6 SWAP2 SWAP5 POP SWAP3 POP JUMP JUMPDEST PUSH2 0xD1B DUP2 PUSH2 0x9BE JUMP JUMPDEST DUP3 MSTORE POP POP JUMP JUMPDEST PUSH0 PUSH1 0x20 DUP3 ADD SWAP1 POP PUSH2 0xD34 PUSH0 DUP4 ADD DUP5 PUSH2 0xD12 JUMP JUMPDEST SWAP3 SWAP2 POP POP JUMP JUMPDEST PUSH0 DUP1 PUSH0 PUSH1 0x60 DUP5 DUP7 SUB SLT ISZERO PUSH2 0xD51 JUMPI PUSH2 0xD50 PUSH2 0x939 JUMP JUMPDEST JUMPDEST PUSH0 PUSH2 0xD5E DUP7 DUP3 DUP8 ADD PUSH2 0xC7E JUMP JUMPDEST SWAP4 POP POP PUSH1 0x20 DUP5 ADD CALLDATALOAD PUSH8 0xFFFFFFFFFFFFFFFF DUP2 GT ISZERO PUSH2 0xD7F JUMPI PUSH2 0xD7E PUSH2 0x93D JUMP JUMPDEST JUMPDEST PUSH2 0xD8B DUP7 DUP3 DUP8 ADD PUSH2 0xC3B JUMP JUMPDEST SWAP3 POP POP PUSH1 0x40 PUSH2 0xD9C DUP7 DUP3 DUP8 ADD PUSH2 0xB28 JUMP JUMPDEST SWAP2 POP POP SWAP3 POP SWAP3 POP SWAP3 JUMP JUMPDEST PUSH32 0x4E487B7100000000000000000000000000000000000000000000000000000000 PUSH0 MSTORE PUSH1 0x11 PUSH1 0x4 MSTORE PUSH1 0x24 PUSH0 REVERT JUMPDEST PUSH0 PUSH2 0xDDD DUP3 PUSH2 0x941 JUMP JUMPDEST SWAP2 POP PUSH2 0xDE8 DUP4 PUSH2 0x941 JUMP JUMPDEST SWAP3 POP DUP3 DUP3 SUB SWAP1 POP DUP2 DUP2 GT ISZERO PUSH2 0xE00 JUMPI PUSH2 0xDFF PUSH2 0xDA6 JUMP JUMPDEST JUMPDEST SWAP3 SWAP2 POP POP JUMP JUMPDEST PUSH32 0x4E487B7100000000000000000000000000000000000000000000000000000000 PUSH0 MSTORE PUSH1 0x32 PUSH1 0x4 MSTORE PUSH1 0x24 PUSH0 REVERT JUMPDEST PUSH32 0x4E487B7100000000000000000000000000000000000000000000000000000000 PUSH0 MSTORE PUSH1 0x22 PUSH1 0x4 MSTORE PUSH1 0x24 PUSH0 REVERT JUMPDEST PUSH0 PUSH1 0x2 DUP3 DIV SWAP1 POP PUSH1 0x1 DUP3 AND DUP1 PUSH2 0xE77 JUMPI PUSH1 0x7F DUP3 AND SWAP2 POP JUMPDEST PUSH1 0x20 DUP3 LT DUP2 SUB PUSH2 0xE8A JUMPI PUSH2 0xE89 PUSH2 0xE33 JUMP JUMPDEST JUMPDEST POP SWAP2 SWAP1 POP JUMP JUMPDEST PUSH0 DUP3 DUP3 MSTORE PUSH1 0x20 DUP3 ADD SWAP1 POP SWAP3 SWAP2 POP POP JUMP JUMPDEST PUSH32 0x596F7520617265206E6F74207065726D69747465640000000000000000000000 PUSH0 DUP3 ADD MSTORE POP JUMP JUMPDEST PUSH0 PUSH2 0xED4 PUSH1 0x15 DUP4 PUSH2 0xE90 JUMP JUMPDEST SWAP2 POP PUSH2 0xEDF DUP3 PUSH2 0xEA0 JUMP JUMPDEST PUSH1 0x20 DUP3 ADD SWAP1 POP SWAP2 SWAP1 POP JUMP JUMPDEST PUSH0 PUSH1 0x20 DUP3 ADD SWAP1 POP DUP2 DUP2 SUB PUSH0 DUP4 ADD MSTORE PUSH2 0xF01 DUP2 PUSH2 0xEC8 JUMP JUMPDEST SWAP1 POP SWAP2 SWAP1 POP JUMP JUMPDEST PUSH32 0x47726F7720757020612062697420616E642074727920616761696E2100000000 PUSH0 DUP3 ADD MSTORE POP JUMP JUMPDEST PUSH0 PUSH2 0xF3C PUSH1 0x1C DUP4 PUSH2 0xE90 JUMP JUMPDEST SWAP2 POP PUSH2 0xF47 DUP3 PUSH2 0xF08 JUMP JUMPDEST PUSH1 0x20 DUP3 ADD SWAP1 POP SWAP2 SWAP1 POP JUMP JUMPDEST PUSH0 PUSH1 0x20 DUP3 ADD SWAP1 POP DUP2 DUP2 SUB PUSH0 DUP4 ADD MSTORE PUSH2 0xF69 DUP2 PUSH2 0xF30 JUMP JUMPDEST SWAP1 POP SWAP2 SWAP1 POP JUMP JUMPDEST PUSH32 0x546869732068756D616E20646F6573206E6F7420657869737400000000000000 PUSH0 DUP3 ADD MSTORE POP JUMP JUMPDEST PUSH0 PUSH2 0xFA4 PUSH1 0x19 DUP4 PUSH2 0xE90 JUMP JUMPDEST SWAP2 POP PUSH2 0xFAF DUP3 PUSH2 0xF70 JUMP JUMPDEST PUSH1 0x20 DUP3 ADD SWAP1 POP SWAP2 SWAP1 POP JUMP JUMPDEST PUSH0 PUSH1 0x20 DUP3 ADD SWAP1 POP DUP2 DUP2 SUB PUSH0 DUP4 ADD MSTORE PUSH2 0xFD1 DUP2 PUSH2 0xF98 JUMP JUMPDEST SWAP1 POP SWAP2 SWAP1 POP JUMP JUMPDEST PUSH0 DUP2 SWAP1 POP DUP2 PUSH0 MSTORE PUSH1 0x20 PUSH0 KECCAK256 SWAP1 POP SWAP2 SWAP1 POP JUMP JUMPDEST PUSH0 PUSH1 0x20 PUSH1 0x1F DUP4 ADD DIV SWAP1 POP SWAP2 SWAP1 POP JUMP JUMPDEST PUSH0 DUP3 DUP3 SHL SWAP1 POP SWAP3 SWAP2 POP POP JUMP JUMPDEST PUSH0 PUSH1 0x8 DUP4 MUL PUSH2 0x1034 PUSH32 0xFFFFFFFFFFFFFFFFFFFFFFFFFFFFFFFFFFFFFFFFFFFFFFFFFFFFFFFFFFFFFFFF DUP3 PUSH2 0xFF9 JUMP JUMPDEST PUSH2 0x103E DUP7 DUP4 PUSH2 0xFF9 JUMP JUMPDEST SWAP6 POP DUP1 NOT DUP5 AND SWAP4 POP DUP1 DUP7 AND DUP5 OR SWAP3 POP POP POP SWAP4 SWAP3 POP POP POP JUMP JUMPDEST PUSH0 DUP2 SWAP1 POP SWAP2 SWAP1 POP JUMP JUMPDEST PUSH0 PUSH2 0x1079 PUSH2 0x1074 PUSH2 0x106F DUP5 PUSH2 0x941 JUMP JUMPDEST PUSH2 0x1056 JUMP JUMPDEST PUSH2 0x941 JUMP JUMPDEST SWAP1 POP SWAP2 SWAP1 POP JUMP JUMPDEST PUSH0 DUP2 SWAP1 POP SWAP2 SWAP1 POP JUMP JUMPDEST PUSH2 0x1092 DUP4 PUSH2 0x105F JUMP JUMPDEST PUSH2 0x10A6 PUSH2 0x109E DUP3 PUSH2 0x1080 JUMP JUMPDEST DUP5 DUP5 SLOAD PUSH2 0x1005 JUMP JUMPDEST DUP3 SSTORE POP POP POP POP JUMP JUMPDEST PUSH0 SWAP1 JUMP JUMPDEST PUSH2 0x10BA PUSH2 0x10AE JUMP JUMPDEST PUSH2 0x10C5 DUP2 DUP5 DUP5 PUSH2 0x1089 JUMP JUMPDEST POP POP POP JUMP JUMPDEST JUMPDEST DUP2 DUP2 LT ISZERO PUSH2 0x10E8 JUMPI PUSH2 0x10DD PUSH0 DUP3 PUSH2 0x10B2 JUMP JUMPDEST PUSH1 0x1 DUP2 ADD SWAP1 POP PUSH2 0x10CB JUMP JUMPDEST POP POP JUMP JUMPDEST PUSH1 0x1F DUP3 GT ISZERO PUSH2 0x112D JUMPI PUSH2 0x10FE DUP2 PUSH2 0xFD8 JUMP JUMPDEST PUSH2 0x1107 DUP5 PUSH2 0xFEA JUMP JUMPDEST DUP2 ADD PUSH1 0x20 DUP6 LT ISZERO PUSH2 0x1116 JUMPI DUP2 SWAP1 POP JUMPDEST PUSH2 0x112A PUSH2 0x1122 DUP6 PUSH2 0xFEA JUMP JUMPDEST DUP4 ADD DUP3 PUSH2 0x10CA JUMP JUMPDEST POP POP JUMPDEST POP POP POP JUMP JUMPDEST PUSH0 DUP3 DUP3 SHR SWAP1 POP SWAP3 SWAP2 POP POP JUMP JUMPDEST PUSH0 PUSH2 0x114D PUSH0 NOT DUP5 PUSH1 0x8 MUL PUSH2 0x1132 JUMP JUMPDEST NOT DUP1 DUP4 AND SWAP2 POP POP SWAP3 SWAP2 POP POP JUMP JUMPDEST PUSH0 PUSH2 0x1165 DUP4 DUP4 PUSH2 0x113E JUMP JUMPDEST SWAP2 POP DUP3 PUSH1 0x2 MUL DUP3 OR SWAP1 POP SWAP3 SWAP2 POP POP JUMP JUMPDEST PUSH2 0x117E DUP3 PUSH2 0x9DE JUMP JUMPDEST PUSH8 0xFFFFFFFFFFFFFFFF DUP2 GT ISZERO PUSH2 0x1197 JUMPI PUSH2 0x1196 PUSH2 0xB44 JUMP JUMPDEST JUMPDEST PUSH2 0x11A1 DUP3 SLOAD PUSH2 0xE60 JUMP JUMPDEST PUSH2 0x11AC DUP3 DUP3 DUP6 PUSH2 0x10EC JUMP JUMPDEST PUSH0 PUSH1 0x20 SWAP1 POP PUSH1 0x1F DUP4 GT PUSH1 0x1 DUP2 EQ PUSH2 0x11DD JUMPI PUSH0 DUP5 ISZERO PUSH2 0x11CB JUMPI DUP3 DUP8 ADD MLOAD SWAP1 POP JUMPDEST PUSH2 0x11D5 DUP6 DUP3 PUSH2 0x115A JUMP JUMPDEST DUP7 SSTORE POP PUSH2 0x123C JUMP JUMPDEST PUSH1 0x1F NOT DUP5 AND PUSH2 0x11EB DUP7 PUSH2 0xFD8 JUMP JUMPDEST PUSH0 JUMPDEST DUP3 DUP2 LT ISZERO PUSH2 0x1212 JUMPI DUP5 DUP10 ADD MLOAD DUP3 SSTORE PUSH1 0x1 DUP3 ADD SWAP2 POP PUSH1 0x20 DUP6 ADD SWAP5 POP PUSH1 0x20 DUP2 ADD SWAP1 POP PUSH2 0x11ED JUMP JUMPDEST DUP7 DUP4 LT ISZERO PUSH2 0x122F JUMPI DUP5 DUP10 ADD MLOAD PUSH2 0x122B PUSH1 0x1F DUP10 AND DUP3 PUSH2 0x113E JUMP JUMPDEST DUP4 SSTORE POP JUMPDEST PUSH1 0x1 PUSH1 0x2 DUP9 MUL ADD DUP9 SSTORE POP POP POP JUMPDEST POP POP POP POP POP POP JUMP JUMPDEST PUSH0 DUP2 SLOAD SWAP1 POP PUSH2 0x1252 DUP2 PUSH2 0xE60 JUMP JUMPDEST SWAP1 POP SWAP2 SWAP1 POP JUMP JUMPDEST DUP2 DUP2 SUB PUSH2 0x1267 JUMPI POP POP PUSH2 0x133C JUMP JUMPDEST PUSH2 0x1270 DUP3 PUSH2 0x1244 JUMP JUMPDEST PUSH8 0xFFFFFFFFFFFFFFFF DUP2 GT ISZERO PUSH2 0x1289 JUMPI PUSH2 0x1288 PUSH2 0xB44 JUMP JUMPDEST JUMPDEST PUSH2 0x1293 DUP3 SLOAD PUSH2 0xE60 JUMP JUMPDEST PUSH2 0x129E DUP3 DUP3 DUP6 PUSH2 0x10EC JUMP JUMPDEST PUSH0 PUSH1 0x1F DUP4 GT PUSH1 0x1 DUP2 EQ PUSH2 0x12CB JUMPI PUSH0 DUP5 ISZERO PUSH2 0x12B9 JUMPI DUP3 DUP8 ADD SLOAD SWAP1 POP JUMPDEST PUSH2 0x12C3 DUP6 DUP3 PUSH2 0x115A JUMP JUMPDEST DUP7 SSTORE POP PUSH2 0x1335 JUMP JUMPDEST PUSH1 0x1F NOT DUP5 AND PUSH2 0x12D9 DUP8 PUSH2 0xFD8 JUMP JUMPDEST SWAP7 POP PUSH2 0x12E4 DUP7 PUSH2 0xFD8 JUMP JUMPDEST PUSH0 JUMPDEST DUP3 DUP2 LT ISZERO PUSH2 0x130B JUMPI DUP5 DUP10 ADD SLOAD DUP3 SSTORE PUSH1 0x1 DUP3 ADD SWAP2 POP PUSH1 0x1 DUP6 ADD SWAP5 POP PUSH1 0x20 DUP2 ADD SWAP1 POP PUSH2 0x12E6 JUMP JUMPDEST DUP7 DUP4 LT ISZERO PUSH2 0x1328 JUMPI DUP5 DUP10 ADD SLOAD PUSH2 0x1324 PUSH1 0x1F DUP10 AND DUP3 PUSH2 0x113E JUMP JUMPDEST DUP4 SSTORE POP JUMPDEST PUSH1 0x1 PUSH1 0x2 DUP9 MUL ADD DUP9 SSTORE POP POP POP JUMPDEST POP POP POP POP POP POP JUMPDEST JUMP JUMPDEST PUSH32 0x4E487B7100000000000000000000000000000000000000000000000000000000 PUSH0 MSTORE PUSH1 0x31 PUSH1 0x4 MSTORE PUSH1 0x24 PUSH0 REVERT JUMPDEST PUSH32 0x596F7520617265206E6F74207065726D69747465642000000000000000000000 PUSH0 DUP3 ADD MSTORE POP JUMP JUMPDEST PUSH0 PUSH2 0x139F PUSH1 0x16 DUP4 PUSH2 0xE90 JUMP JUMPDEST SWAP2 POP PUSH2 0x13AA DUP3 PUSH2 0x136B JUMP JUMPDEST PUSH1 0x20 DUP3 ADD SWAP1 POP SWAP2 SWAP1 POP JUMP JUMPDEST PUSH0 PUSH1 0x20 DUP3 ADD SWAP1 POP DUP2 DUP2 SUB PUSH0 DUP4 ADD MSTORE PUSH2 0x13CC DUP2 PUSH2 0x1393 JUMP JUMPDEST SWAP1 POP SWAP2 SWAP1 POP JUMP JUMPDEST PUSH0 PUSH2 0x13DD DUP3 PUSH2 0x941 JUMP JUMPDEST SWAP2 POP PUSH2 0x13E8 DUP4 PUSH2 0x941 JUMP JUMPDEST SWAP3 POP DUP3 DUP3 ADD SWAP1 POP DUP1 DUP3 GT ISZERO PUSH2 0x1400 JUMPI PUSH2 0x13FF PUSH2 0xDA6 JUMP JUMPDEST JUMPDEST SWAP3 SWAP2 POP POP JUMP INVALID LOG2 PUSH5 0x6970667358 0x22 SLT KECCAK256 LOG2 JUMPDEST 0xCA SWAP10 SWAP4 DUP14 PUSH29 0xD1F24EEE097E90E3662963AA32EAB2B5C6C434338A02C1B10A64736F6C PUSH4 0x43000818 STOP CALLER "
				},
				"gasEstimates": {
					"creation": {
						"codeDepositCost": "1036000",
						"executionCost": "25337",
						"totalCost": "1061337"
					},
					"external": {
						"addStudent(address,string,uint8)": "infinite",
						"deleteStudent(uint256)": "infinite",
						"getStudent(uint256)": "infinite",
						"owner()": "2527",
						"updateStude(uint256,uint8,string,address)": "infinite"
					},
					"internal": {
						"updateStudentId()": "infinite"
					}
				},
				"methodIdentifiers": {
					"addStudent(address,string,uint8)": "e7c0994a",
					"deleteStudent(uint256)": "b645307d",
					"getStudent(uint256)": "642f9163",
					"owner()": "8da5cb5b",
					"updateStude(uint256,uint8,string,address)": "6d627fa8"
				}
			},
			"storageLayout": {
				"storage": [
					{
						"astId": 3,
						"contract": "contracts/StudentBook.sol:StudentBook",
						"label": "owner",
						"offset": 0,
						"slot": "0",
						"type": "t_address"
					},
					{
						"astId": 25,
						"contract": "contracts/StudentBook.sol:StudentBook",
						"label": "students",
						"offset": 0,
						"slot": "1",
						"type": "t_array(t_struct(Student)12_storage)dyn_storage"
					}
				],
				"types": {
					"t_address": {
						"encoding": "inplace",
						"label": "address",
						"numberOfBytes": "20"
					},
					"t_array(t_struct(Student)12_storage)dyn_storage": {
						"base": "t_struct(Student)12_storage",
						"encoding": "dynamic_array",
						"label": "struct StudentBook.Student[]",
						"numberOfBytes": "32"
					},
					"t_string_storage": {
						"encoding": "bytes",
						"label": "string",
						"numberOfBytes": "32"
					},
					"t_struct(Student)12_storage": {
						"encoding": "inplace",
						"label": "struct StudentBook.Student",
						"members": [
							{
								"astId": 5,
								"contract": "contracts/StudentBook.sol:StudentBook",
								"label": "studentAddress",
								"offset": 0,
								"slot": "0",
								"type": "t_address"
							},
							{
								"astId": 7,
								"contract": "contracts/StudentBook.sol:StudentBook",
								"label": "name",
								"offset": 0,
								"slot": "1",
								"type": "t_string_storage"
							},
							{
								"astId": 9,
								"contract": "contracts/StudentBook.sol:StudentBook",
								"label": "age",
								"offset": 0,
								"slot": "2",
								"type": "t_uint8"
							},
							{
								"astId": 11,
								"contract": "contracts/StudentBook.sol:StudentBook",
								"label": "studentId",
								"offset": 0,
								"slot": "3",
								"type": "t_uint256"
							}
						],
						"numberOfBytes": "128"
					},
					"t_uint256": {
						"encoding": "inplace",
						"label": "uint256",
						"numberOfBytes": "32"
					},
					"t_uint8": {
						"encoding": "inplace",
						"label": "uint8",
						"numberOfBytes": "1"
					}
				}
			},
			"userdoc": {
				"kind": "user",
				"methods": {},
				"version": 1
			}
		}
	}
}