{
	"data": {
		"bytecode": {
			"linkReferences": {},
			"object": "608060405234801561000f575f80fd5b50335f806101000a81548173ffffffffffffffffffffffffffffffffffffffff021916908373ffffffffffffffffffffffffffffffffffffffff1602179055506113d08061005c5f395ff3fe608060405234801561000f575f80fd5b5060043610610055575f3560e01c8063642f9163146100595780638da5cb5b14610089578063b645307d146100a7578063c2dc2712146100c3578063e7c0994a146100df575b5f80fd5b610073600480360381019061006e9190610970565b6100fb565b6040516100809190610aee565b60405180910390f35b61009161024a565b60405161009e9190610b1d565b60405180910390f35b6100c160048036038101906100bc9190610970565b61026d565b005b6100dd60048036038101906100d89190610cb6565b6104f0565b005b6100f960048036038101906100f49190610d36565b6106bb565b005b610103610896565b600180836101119190610dcf565b8154811061012257610121610e02565b5b905f5260205f2090600402016040518060800160405290815f82015f9054906101000a900473ffffffffffffffffffffffffffffffffffffffff1673ffffffffffffffffffffffffffffffffffffffff1673ffffffffffffffffffffffffffffffffffffffff168152602001600182015481526020016002820180546101a790610e5c565b80601f01602080910402602001604051908101604052809291908181526020018280546101d390610e5c565b801561021e5780601f106101f55761010080835404028352916020019161021e565b820191905f5260205f20905b81548152906001019060200180831161020157829003601f168201915b50505050508152602001600382015f9054906101000a900460ff1660ff1660ff16815250509050919050565b5f8054906101000a900473ffffffffffffffffffffffffffffffffffffffff1681565b3373ffffffffffffffffffffffffffffffffffffffff165f8054906101000a900473ffffffffffffffffffffffffffffffffffffffff1673ffffffffffffffffffffffffffffffffffffffff16146102fa576040517f08c379a00000000000000000000000000000000000000000000000000000000081526004016102f190610ee6565b60405180910390fd5b5f8111801561030e57506001805490508111155b61034d576040517f08c379a000000000000000000000000000000000000000000000000000000000815260040161034490610f4e565b60405180910390fd5b5f60018261035b9190610dcf565b90506001808054905061036e9190610dcf565b81146104755760018080805490506103869190610dcf565b8154811061039757610396610e02565b5b905f5260205f209060040201600182815481106103b7576103b6610e02565b5b905f5260205f2090600402015f82015f9054906101000a900473ffffffffffffffffffffffffffffffffffffffff16815f015f6101000a81548173ffffffffffffffffffffffffffffffffffffffff021916908373ffffffffffffffffffffffffffffffffffffffff1602179055506001820154816001015560028201816002019081610444919061111e565b50600382015f9054906101000a900460ff16816003015f6101000a81548160ff021916908360ff1602179055509050505b600180548061048757610486611203565b5b600190038181905f5260205f2090600402015f8082015f6101000a81549073ffffffffffffffffffffffffffffffffffffffff0219169055600182015f9055600282015f6104d591906108d4565b600382015f6101000a81549060ff0219169055505090555050565b3373ffffffffffffffffffffffffffffffffffffffff165f8054906101000a900473ffffffffffffffffffffffffffffffffffffffff1673ffffffffffffffffffffffffffffffffffffffff161461057d576040517f08c379a000000000000000000000000000000000000000000000000000000000815260040161057490610ee6565b60405180910390fd5b5f8111801561059157506001805490508111155b6105d0576040517f08c379a00000000000000000000000000000000000000000000000000000000081526004016105c790610f4e565b60405180910390fd5b60128260ff161015610617576040517f08c379a000000000000000000000000000000000000000000000000000000000815260040161060e9061127a565b60405180910390fd5b5f600180836106269190610dcf565b8154811061063757610636610e02565b5b905f5260205f209060040201905084815f015f6101000a81548173ffffffffffffffffffffffffffffffffffffffff021916908373ffffffffffffffffffffffffffffffffffffffff160217905550838160020190816106979190611298565b5082816003015f6101000a81548160ff021916908360ff1602179055505050505050565b3373ffffffffffffffffffffffffffffffffffffffff165f8054906101000a900473ffffffffffffffffffffffffffffffffffffffff1673ffffffffffffffffffffffffffffffffffffffff1614610748576040517f08c379a000000000000000000000000000000000000000000000000000000000815260040161073f90610ee6565b60405180910390fd5b60128160ff16101561078f576040517f08c379a00000000000000000000000000000000000000000000000000000000081526004016107869061127a565b60405180910390fd5b5f600180805490506107a19190611367565b90505f60405180608001604052808673ffffffffffffffffffffffffffffffffffffffff1681526020018381526020018581526020018460ff168152509050600181908060018154018082558091505060019003905f5260205f2090600402015f909190919091505f820151815f015f6101000a81548173ffffffffffffffffffffffffffffffffffffffff021916908373ffffffffffffffffffffffffffffffffffffffff16021790555060208201518160010155604082015181600201908161086c9190611298565b506060820151816003015f6101000a81548160ff021916908360ff16021790555050505050505050565b60405180608001604052805f73ffffffffffffffffffffffffffffffffffffffff1681526020015f8152602001606081526020015f60ff1681525090565b5080546108e090610e5c565b5f825580601f106108f1575061090e565b601f0160209004905f5260205f209081019061090d9190610911565b5b50565b5b80821115610928575f815f905550600101610912565b5090565b5f604051905090565b5f80fd5b5f80fd5b5f819050919050565b61094f8161093d565b8114610959575f80fd5b50565b5f8135905061096a81610946565b92915050565b5f6020828403121561098557610984610935565b5b5f6109928482850161095c565b91505092915050565b5f73ffffffffffffffffffffffffffffffffffffffff82169050919050565b5f6109c48261099b565b9050919050565b6109d4816109ba565b82525050565b6109e38161093d565b82525050565b5f81519050919050565b5f82825260208201905092915050565b5f5b83811015610a20578082015181840152602081019050610a05565b5f8484015250505050565b5f601f19601f8301169050919050565b5f610a45826109e9565b610a4f81856109f3565b9350610a5f818560208601610a03565b610a6881610a2b565b840191505092915050565b5f60ff82169050919050565b610a8881610a73565b82525050565b5f608083015f830151610aa35f8601826109cb565b506020830151610ab660208601826109da565b5060408301518482036040860152610ace8282610a3b565b9150506060830151610ae36060860182610a7f565b508091505092915050565b5f6020820190508181035f830152610b068184610a8e565b905092915050565b610b17816109ba565b82525050565b5f602082019050610b305f830184610b0e565b92915050565b610b3f816109ba565b8114610b49575f80fd5b50565b5f81359050610b5a81610b36565b92915050565b5f80fd5b5f80fd5b7f4e487b71000000000000000000000000000000000000000000000000000000005f52604160045260245ffd5b610b9e82610a2b565b810181811067ffffffffffffffff82111715610bbd57610bbc610b68565b5b80604052505050565b5f610bcf61092c565b9050610bdb8282610b95565b919050565b5f67ffffffffffffffff821115610bfa57610bf9610b68565b5b610c0382610a2b565b9050602081019050919050565b828183375f83830152505050565b5f610c30610c2b84610be0565b610bc6565b905082815260208101848484011115610c4c57610c4b610b64565b5b610c57848285610c10565b509392505050565b5f82601f830112610c7357610c72610b60565b5b8135610c83848260208601610c1e565b91505092915050565b610c9581610a73565b8114610c9f575f80fd5b50565b5f81359050610cb081610c8c565b92915050565b5f805f8060808587031215610cce57610ccd610935565b5b5f610cdb87828801610b4c565b945050602085013567ffffffffffffffff811115610cfc57610cfb610939565b5b610d0887828801610c5f565b9350506040610d1987828801610ca2565b9250506060610d2a8782880161095c565b91505092959194509250565b5f805f60608486031215610d4d57610d4c610935565b5b5f610d5a86828701610b4c565b935050602084013567ffffffffffffffff811115610d7b57610d7a610939565b5b610d8786828701610c5f565b9250506040610d9886828701610ca2565b9150509250925092565b7f4e487b71000000000000000000000000000000000000000000000000000000005f52601160045260245ffd5b5f610dd98261093d565b9150610de48361093d565b9250828203905081811115610dfc57610dfb610da2565b5b92915050565b7f4e487b71000000000000000000000000000000000000000000000000000000005f52603260045260245ffd5b7f4e487b71000000000000000000000000000000000000000000000000000000005f52602260045260245ffd5b5f6002820490506001821680610e7357607f821691505b602082108103610e8657610e85610e2f565b5b50919050565b5f82825260208201905092915050565b7f596f7520617265206e6f7420617574686f72697a6564000000000000000000005f82015250565b5f610ed0601683610e8c565b9150610edb82610e9c565b602082019050919050565b5f6020820190508181035f830152610efd81610ec4565b9050919050565b7f5468697320697320616e20696e76616c69642073747564656e740000000000005f82015250565b5f610f38601a83610e8c565b9150610f4382610f04565b602082019050919050565b5f6020820190508181035f830152610f6581610f2c565b9050919050565b5f81549050610f7a81610e5c565b9050919050565b5f819050815f5260205f209050919050565b5f6020601f8301049050919050565b5f82821b905092915050565b5f60088302610fdd7fffffffffffffffffffffffffffffffffffffffffffffffffffffffffffffffff82610fa2565b610fe78683610fa2565b95508019841693508086168417925050509392505050565b5f819050919050565b5f61102261101d6110188461093d565b610fff565b61093d565b9050919050565b5f819050919050565b61103b83611008565b61104f61104782611029565b848454610fae565b825550505050565b5f90565b611063611057565b61106e818484611032565b505050565b5b81811015611091576110865f8261105b565b600181019050611074565b5050565b601f8211156110d6576110a781610f81565b6110b084610f93565b810160208510156110bf578190505b6110d36110cb85610f93565b830182611073565b50505b505050565b5f82821c905092915050565b5f6110f65f19846008026110db565b1980831691505092915050565b5f61110e83836110e7565b9150826002028217905092915050565b81810361112c575050611201565b61113582610f6c565b67ffffffffffffffff81111561114e5761114d610b68565b5b6111588254610e5c565b611163828285611095565b5f601f831160018114611190575f841561117e578287015490505b6111888582611103565b8655506111fa565b601f19841661119e87610f81565b96506111a986610f81565b5f5b828110156111d0578489015482556001820191506001850194506020810190506111ab565b868310156111ed57848901546111e9601f8916826110e7565b8355505b6001600288020188555050505b5050505050505b565b7f4e487b71000000000000000000000000000000000000000000000000000000005f52603160045260245ffd5b7f596f7520617265206e6f7420757020746f2061676500000000000000000000005f82015250565b5f611264601583610e8c565b915061126f82611230565b602082019050919050565b5f6020820190508181035f83015261129181611258565b9050919050565b6112a1826109e9565b67ffffffffffffffff8111156112ba576112b9610b68565b5b6112c48254610e5c565b6112cf828285611095565b5f60209050601f831160018114611300575f84156112ee578287015190505b6112f88582611103565b86555061135f565b601f19841661130e86610f81565b5f5b8281101561133557848901518255600182019150602085019450602081019050611310565b86831015611352578489015161134e601f8916826110e7565b8355505b6001600288020188555050505b505050505050565b5f6113718261093d565b915061137c8361093d565b925082820190508082111561139457611393610da2565b5b9291505056fea2646970667358221220cb93b8e5ba8e6e2bd593e9ec7ddbc2449d0c2aa1588760d7805c75f5eb1faf4c64736f6c63430008180033",
			"opcodes": "PUSH1 0x80 PUSH1 0x40 MSTORE CALLVALUE DUP1 ISZERO PUSH2 0xF JUMPI PUSH0 DUP1 REVERT JUMPDEST POP CALLER PUSH0 DUP1 PUSH2 0x100 EXP DUP2 SLOAD DUP2 PUSH20 0xFFFFFFFFFFFFFFFFFFFFFFFFFFFFFFFFFFFFFFFF MUL NOT AND SWAP1 DUP4 PUSH20 0xFFFFFFFFFFFFFFFFFFFFFFFFFFFFFFFFFFFFFFFF AND MUL OR SWAP1 SSTORE POP PUSH2 0x13D0 DUP1 PUSH2 0x5C PUSH0 CODECOPY PUSH0 RETURN INVALID PUSH1 0x80 PUSH1 0x40 MSTORE CALLVALUE DUP1 ISZERO PUSH2 0xF JUMPI PUSH0 DUP1 REVERT JUMPDEST POP PUSH1 0x4 CALLDATASIZE LT PUSH2 0x55 JUMPI PUSH0 CALLDATALOAD PUSH1 0xE0 SHR DUP1 PUSH4 0x642F9163 EQ PUSH2 0x59 JUMPI DUP1 PUSH4 0x8DA5CB5B EQ PUSH2 0x89 JUMPI DUP1 PUSH4 0xB645307D EQ PUSH2 0xA7 JUMPI DUP1 PUSH4 0xC2DC2712 EQ PUSH2 0xC3 JUMPI DUP1 PUSH4 0xE7C0994A EQ PUSH2 0xDF JUMPI JUMPDEST PUSH0 DUP1 REVERT JUMPDEST PUSH2 0x73 PUSH1 0x4 DUP1 CALLDATASIZE SUB DUP2 ADD SWAP1 PUSH2 0x6E SWAP2 SWAP1 PUSH2 0x970 JUMP JUMPDEST PUSH2 0xFB JUMP JUMPDEST PUSH1 0x40 MLOAD PUSH2 0x80 SWAP2 SWAP1 PUSH2 0xAEE JUMP JUMPDEST PUSH1 0x40 MLOAD DUP1 SWAP2 SUB SWAP1 RETURN JUMPDEST PUSH2 0x91 PUSH2 0x24A JUMP JUMPDEST PUSH1 0x40 MLOAD PUSH2 0x9E SWAP2 SWAP1 PUSH2 0xB1D JUMP JUMPDEST PUSH1 0x40 MLOAD DUP1 SWAP2 SUB SWAP1 RETURN JUMPDEST PUSH2 0xC1 PUSH1 0x4 DUP1 CALLDATASIZE SUB DUP2 ADD SWAP1 PUSH2 0xBC SWAP2 SWAP1 PUSH2 0x970 JUMP JUMPDEST PUSH2 0x26D JUMP JUMPDEST STOP JUMPDEST PUSH2 0xDD PUSH1 0x4 DUP1 CALLDATASIZE SUB DUP2 ADD SWAP1 PUSH2 0xD8 SWAP2 SWAP1 PUSH2 0xCB6 JUMP JUMPDEST PUSH2 0x4F0 JUMP JUMPDEST STOP JUMPDEST PUSH2 0xF9 PUSH1 0x4 DUP1 CALLDATASIZE SUB DUP2 ADD SWAP1 PUSH2 0xF4 SWAP2 SWAP1 PUSH2 0xD36 JUMP JUMPDEST PUSH2 0x6BB JUMP JUMPDEST STOP JUMPDEST PUSH2 0x103 PUSH2 0x896 JUMP JUMPDEST PUSH1 0x1 DUP1 DUP4 PUSH2 0x111 SWAP2 SWAP1 PUSH2 0xDCF JUMP JUMPDEST DUP2 SLOAD DUP2 LT PUSH2 0x122 JUMPI PUSH2 0x121 PUSH2 0xE02 JUMP JUMPDEST JUMPDEST SWAP1 PUSH0 MSTORE PUSH1 0x20 PUSH0 KECCAK256 SWAP1 PUSH1 0x4 MUL ADD PUSH1 0x40 MLOAD DUP1 PUSH1 0x80 ADD PUSH1 0x40 MSTORE SWAP1 DUP2 PUSH0 DUP3 ADD PUSH0 SWAP1 SLOAD SWAP1 PUSH2 0x100 EXP SWAP1 DIV PUSH20 0xFFFFFFFFFFFFFFFFFFFFFFFFFFFFFFFFFFFFFFFF AND PUSH20 0xFFFFFFFFFFFFFFFFFFFFFFFFFFFFFFFFFFFFFFFF AND PUSH20 0xFFFFFFFFFFFFFFFFFFFFFFFFFFFFFFFFFFFFFFFF AND DUP2 MSTORE PUSH1 0x20 ADD PUSH1 0x1 DUP3 ADD SLOAD DUP2 MSTORE PUSH1 0x20 ADD PUSH1 0x2 DUP3 ADD DUP1 SLOAD PUSH2 0x1A7 SWAP1 PUSH2 0xE5C JUMP JUMPDEST DUP1 PUSH1 0x1F ADD PUSH1 0x20 DUP1 SWAP2 DIV MUL PUSH1 0x20 ADD PUSH1 0x40 MLOAD SWAP1 DUP2 ADD PUSH1 0x40 MSTORE DUP1 SWAP3 SWAP2 SWAP1 DUP2 DUP2 MSTORE PUSH1 0x20 ADD DUP3 DUP1 SLOAD PUSH2 0x1D3 SWAP1 PUSH2 0xE5C JUMP JUMPDEST DUP1 ISZERO PUSH2 0x21E JUMPI DUP1 PUSH1 0x1F LT PUSH2 0x1F5 JUMPI PUSH2 0x100 DUP1 DUP4 SLOAD DIV MUL DUP4 MSTORE SWAP2 PUSH1 0x20 ADD SWAP2 PUSH2 0x21E JUMP JUMPDEST DUP3 ADD SWAP2 SWAP1 PUSH0 MSTORE PUSH1 0x20 PUSH0 KECCAK256 SWAP1 JUMPDEST DUP2 SLOAD DUP2 MSTORE SWAP1 PUSH1 0x1 ADD SWAP1 PUSH1 0x20 ADD DUP1 DUP4 GT PUSH2 0x201 JUMPI DUP3 SWAP1 SUB PUSH1 0x1F AND DUP3 ADD SWAP2 JUMPDEST POP POP POP POP POP DUP2 MSTORE PUSH1 0x20 ADD PUSH1 0x3 DUP3 ADD PUSH0 SWAP1 SLOAD SWAP1 PUSH2 0x100 EXP SWAP1 DIV PUSH1 0xFF AND PUSH1 0xFF AND PUSH1 0xFF AND DUP2 MSTORE POP POP SWAP1 POP SWAP2 SWAP1 POP JUMP JUMPDEST PUSH0 DUP1 SLOAD SWAP1 PUSH2 0x100 EXP SWAP1 DIV PUSH20 0xFFFFFFFFFFFFFFFFFFFFFFFFFFFFFFFFFFFFFFFF AND DUP2 JUMP JUMPDEST CALLER PUSH20 0xFFFFFFFFFFFFFFFFFFFFFFFFFFFFFFFFFFFFFFFF AND PUSH0 DUP1 SLOAD SWAP1 PUSH2 0x100 EXP SWAP1 DIV PUSH20 0xFFFFFFFFFFFFFFFFFFFFFFFFFFFFFFFFFFFFFFFF AND PUSH20 0xFFFFFFFFFFFFFFFFFFFFFFFFFFFFFFFFFFFFFFFF AND EQ PUSH2 0x2FA JUMPI PUSH1 0x40 MLOAD PUSH32 0x8C379A000000000000000000000000000000000000000000000000000000000 DUP2 MSTORE PUSH1 0x4 ADD PUSH2 0x2F1 SWAP1 PUSH2 0xEE6 JUMP JUMPDEST PUSH1 0x40 MLOAD DUP1 SWAP2 SUB SWAP1 REVERT JUMPDEST PUSH0 DUP2 GT DUP1 ISZERO PUSH2 0x30E JUMPI POP PUSH1 0x1 DUP1 SLOAD SWAP1 POP DUP2 GT ISZERO JUMPDEST PUSH2 0x34D JUMPI PUSH1 0x40 MLOAD PUSH32 0x8C379A000000000000000000000000000000000000000000000000000000000 DUP2 MSTORE PUSH1 0x4 ADD PUSH2 0x344 SWAP1 PUSH2 0xF4E JUMP JUMPDEST PUSH1 0x40 MLOAD DUP1 SWAP2 SUB SWAP1 REVERT JUMPDEST PUSH0 PUSH1 0x1 DUP3 PUSH2 0x35B SWAP2 SWAP1 PUSH2 0xDCF JUMP JUMPDEST SWAP1 POP PUSH1 0x1 DUP1 DUP1 SLOAD SWAP1 POP PUSH2 0x36E SWAP2 SWAP1 PUSH2 0xDCF JUMP JUMPDEST DUP2 EQ PUSH2 0x475 JUMPI PUSH1 0x1 DUP1 DUP1 DUP1 SLOAD SWAP1 POP PUSH2 0x386 SWAP2 SWAP1 PUSH2 0xDCF JUMP JUMPDEST DUP2 SLOAD DUP2 LT PUSH2 0x397 JUMPI PUSH2 0x396 PUSH2 0xE02 JUMP JUMPDEST JUMPDEST SWAP1 PUSH0 MSTORE PUSH1 0x20 PUSH0 KECCAK256 SWAP1 PUSH1 0x4 MUL ADD PUSH1 0x1 DUP3 DUP2 SLOAD DUP2 LT PUSH2 0x3B7 JUMPI PUSH2 0x3B6 PUSH2 0xE02 JUMP JUMPDEST JUMPDEST SWAP1 PUSH0 MSTORE PUSH1 0x20 PUSH0 KECCAK256 SWAP1 PUSH1 0x4 MUL ADD PUSH0 DUP3 ADD PUSH0 SWAP1 SLOAD SWAP1 PUSH2 0x100 EXP SWAP1 DIV PUSH20 0xFFFFFFFFFFFFFFFFFFFFFFFFFFFFFFFFFFFFFFFF AND DUP2 PUSH0 ADD PUSH0 PUSH2 0x100 EXP DUP2 SLOAD DUP2 PUSH20 0xFFFFFFFFFFFFFFFFFFFFFFFFFFFFFFFFFFFFFFFF MUL NOT AND SWAP1 DUP4 PUSH20 0xFFFFFFFFFFFFFFFFFFFFFFFFFFFFFFFFFFFFFFFF AND MUL OR SWAP1 SSTORE POP PUSH1 0x1 DUP3 ADD SLOAD DUP2 PUSH1 0x1 ADD SSTORE PUSH1 0x2 DUP3 ADD DUP2 PUSH1 0x2 ADD SWAP1 DUP2 PUSH2 0x444 SWAP2 SWAP1 PUSH2 0x111E JUMP JUMPDEST POP PUSH1 0x3 DUP3 ADD PUSH0 SWAP1 SLOAD SWAP1 PUSH2 0x100 EXP SWAP1 DIV PUSH1 0xFF AND DUP2 PUSH1 0x3 ADD PUSH0 PUSH2 0x100 EXP DUP2 SLOAD DUP2 PUSH1 0xFF MUL NOT AND SWAP1 DUP4 PUSH1 0xFF AND MUL OR SWAP1 SSTORE POP SWAP1 POP POP JUMPDEST PUSH1 0x1 DUP1 SLOAD DUP1 PUSH2 0x487 JUMPI PUSH2 0x486 PUSH2 0x1203 JUMP JUMPDEST JUMPDEST PUSH1 0x1 SWAP1 SUB DUP2 DUP2 SWAP1 PUSH0 MSTORE PUSH1 0x20 PUSH0 KECCAK256 SWAP1 PUSH1 0x4 MUL ADD PUSH0 DUP1 DUP3 ADD PUSH0 PUSH2 0x100 EXP DUP2 SLOAD SWAP1 PUSH20 0xFFFFFFFFFFFFFFFFFFFFFFFFFFFFFFFFFFFFFFFF MUL NOT AND SWAP1 SSTORE PUSH1 0x1 DUP3 ADD PUSH0 SWAP1 SSTORE PUSH1 0x2 DUP3 ADD PUSH0 PUSH2 0x4D5 SWAP2 SWAP1 PUSH2 0x8D4 JUMP JUMPDEST PUSH1 0x3 DUP3 ADD PUSH0 PUSH2 0x100 EXP DUP2 SLOAD SWAP1 PUSH1 0xFF MUL NOT AND SWAP1 SSTORE POP POP SWAP1 SSTORE POP POP JUMP JUMPDEST CALLER PUSH20 0xFFFFFFFFFFFFFFFFFFFFFFFFFFFFFFFFFFFFFFFF AND PUSH0 DUP1 SLOAD SWAP1 PUSH2 0x100 EXP SWAP1 DIV PUSH20 0xFFFFFFFFFFFFFFFFFFFFFFFFFFFFFFFFFFFFFFFF AND PUSH20 0xFFFFFFFFFFFFFFFFFFFFFFFFFFFFFFFFFFFFFFFF AND EQ PUSH2 0x57D JUMPI PUSH1 0x40 MLOAD PUSH32 0x8C379A000000000000000000000000000000000000000000000000000000000 DUP2 MSTORE PUSH1 0x4 ADD PUSH2 0x574 SWAP1 PUSH2 0xEE6 JUMP JUMPDEST PUSH1 0x40 MLOAD DUP1 SWAP2 SUB SWAP1 REVERT JUMPDEST PUSH0 DUP2 GT DUP1 ISZERO PUSH2 0x591 JUMPI POP PUSH1 0x1 DUP1 SLOAD SWAP1 POP DUP2 GT ISZERO JUMPDEST PUSH2 0x5D0 JUMPI PUSH1 0x40 MLOAD PUSH32 0x8C379A000000000000000000000000000000000000000000000000000000000 DUP2 MSTORE PUSH1 0x4 ADD PUSH2 0x5C7 SWAP1 PUSH2 0xF4E JUMP JUMPDEST PUSH1 0x40 MLOAD DUP1 SWAP2 SUB SWAP1 REVERT JUMPDEST PUSH1 0x12 DUP3 PUSH1 0xFF AND LT ISZERO PUSH2 0x617 JUMPI PUSH1 0x40 MLOAD PUSH32 0x8C379A000000000000000000000000000000000000000000000000000000000 DUP2 MSTORE PUSH1 0x4 ADD PUSH2 0x60E SWAP1 PUSH2 0x127A JUMP JUMPDEST PUSH1 0x40 MLOAD DUP1 SWAP2 SUB SWAP1 REVERT JUMPDEST PUSH0 PUSH1 0x1 DUP1 DUP4 PUSH2 0x626 SWAP2 SWAP1 PUSH2 0xDCF JUMP JUMPDEST DUP2 SLOAD DUP2 LT PUSH2 0x637 JUMPI PUSH2 0x636 PUSH2 0xE02 JUMP JUMPDEST JUMPDEST SWAP1 PUSH0 MSTORE PUSH1 0x20 PUSH0 KECCAK256 SWAP1 PUSH1 0x4 MUL ADD SWAP1 POP DUP5 DUP2 PUSH0 ADD PUSH0 PUSH2 0x100 EXP DUP2 SLOAD DUP2 PUSH20 0xFFFFFFFFFFFFFFFFFFFFFFFFFFFFFFFFFFFFFFFF MUL NOT AND SWAP1 DUP4 PUSH20 0xFFFFFFFFFFFFFFFFFFFFFFFFFFFFFFFFFFFFFFFF AND MUL OR SWAP1 SSTORE POP DUP4 DUP2 PUSH1 0x2 ADD SWAP1 DUP2 PUSH2 0x697 SWAP2 SWAP1 PUSH2 0x1298 JUMP JUMPDEST POP DUP3 DUP2 PUSH1 0x3 ADD PUSH0 PUSH2 0x100 EXP DUP2 SLOAD DUP2 PUSH1 0xFF MUL NOT AND SWAP1 DUP4 PUSH1 0xFF AND MUL OR SWAP1 SSTORE POP POP POP POP POP POP JUMP JUMPDEST CALLER PUSH20 0xFFFFFFFFFFFFFFFFFFFFFFFFFFFFFFFFFFFFFFFF AND PUSH0 DUP1 SLOAD SWAP1 PUSH2 0x100 EXP SWAP1 DIV PUSH20 0xFFFFFFFFFFFFFFFFFFFFFFFFFFFFFFFFFFFFFFFF AND PUSH20 0xFFFFFFFFFFFFFFFFFFFFFFFFFFFFFFFFFFFFFFFF AND EQ PUSH2 0x748 JUMPI PUSH1 0x40 MLOAD PUSH32 0x8C379A000000000000000000000000000000000000000000000000000000000 DUP2 MSTORE PUSH1 0x4 ADD PUSH2 0x73F SWAP1 PUSH2 0xEE6 JUMP JUMPDEST PUSH1 0x40 MLOAD DUP1 SWAP2 SUB SWAP1 REVERT JUMPDEST PUSH1 0x12 DUP2 PUSH1 0xFF AND LT ISZERO PUSH2 0x78F JUMPI PUSH1 0x40 MLOAD PUSH32 0x8C379A000000000000000000000000000000000000000000000000000000000 DUP2 MSTORE PUSH1 0x4 ADD PUSH2 0x786 SWAP1 PUSH2 0x127A JUMP JUMPDEST PUSH1 0x40 MLOAD DUP1 SWAP2 SUB SWAP1 REVERT JUMPDEST PUSH0 PUSH1 0x1 DUP1 DUP1 SLOAD SWAP1 POP PUSH2 0x7A1 SWAP2 SWAP1 PUSH2 0x1367 JUMP JUMPDEST SWAP1 POP PUSH0 PUSH1 0x40 MLOAD DUP1 PUSH1 0x80 ADD PUSH1 0x40 MSTORE DUP1 DUP7 PUSH20 0xFFFFFFFFFFFFFFFFFFFFFFFFFFFFFFFFFFFFFFFF AND DUP2 MSTORE PUSH1 0x20 ADD DUP4 DUP2 MSTORE PUSH1 0x20 ADD DUP6 DUP2 MSTORE PUSH1 0x20 ADD DUP5 PUSH1 0xFF AND DUP2 MSTORE POP SWAP1 POP PUSH1 0x1 DUP2 SWAP1 DUP1 PUSH1 0x1 DUP2 SLOAD ADD DUP1 DUP3 SSTORE DUP1 SWAP2 POP POP PUSH1 0x1 SWAP1 SUB SWAP1 PUSH0 MSTORE PUSH1 0x20 PUSH0 KECCAK256 SWAP1 PUSH1 0x4 MUL ADD PUSH0 SWAP1 SWAP2 SWAP1 SWAP2 SWAP1 SWAP2 POP PUSH0 DUP3 ADD MLOAD DUP2 PUSH0 ADD PUSH0 PUSH2 0x100 EXP DUP2 SLOAD DUP2 PUSH20 0xFFFFFFFFFFFFFFFFFFFFFFFFFFFFFFFFFFFFFFFF MUL NOT AND SWAP1 DUP4 PUSH20 0xFFFFFFFFFFFFFFFFFFFFFFFFFFFFFFFFFFFFFFFF AND MUL OR SWAP1 SSTORE POP PUSH1 0x20 DUP3 ADD MLOAD DUP2 PUSH1 0x1 ADD SSTORE PUSH1 0x40 DUP3 ADD MLOAD DUP2 PUSH1 0x2 ADD SWAP1 DUP2 PUSH2 0x86C SWAP2 SWAP1 PUSH2 0x1298 JUMP JUMPDEST POP PUSH1 0x60 DUP3 ADD MLOAD DUP2 PUSH1 0x3 ADD PUSH0 PUSH2 0x100 EXP DUP2 SLOAD DUP2 PUSH1 0xFF MUL NOT AND SWAP1 DUP4 PUSH1 0xFF AND MUL OR SWAP1 SSTORE POP POP POP POP POP POP POP POP JUMP JUMPDEST PUSH1 0x40 MLOAD DUP1 PUSH1 0x80 ADD PUSH1 0x40 MSTORE DUP1 PUSH0 PUSH20 0xFFFFFFFFFFFFFFFFFFFFFFFFFFFFFFFFFFFFFFFF AND DUP2 MSTORE PUSH1 0x20 ADD PUSH0 DUP2 MSTORE PUSH1 0x20 ADD PUSH1 0x60 DUP2 MSTORE PUSH1 0x20 ADD PUSH0 PUSH1 0xFF AND DUP2 MSTORE POP SWAP1 JUMP JUMPDEST POP DUP1 SLOAD PUSH2 0x8E0 SWAP1 PUSH2 0xE5C JUMP JUMPDEST PUSH0 DUP3 SSTORE DUP1 PUSH1 0x1F LT PUSH2 0x8F1 JUMPI POP PUSH2 0x90E JUMP JUMPDEST PUSH1 0x1F ADD PUSH1 0x20 SWAP1 DIV SWAP1 PUSH0 MSTORE PUSH1 0x20 PUSH0 KECCAK256 SWAP1 DUP2 ADD SWAP1 PUSH2 0x90D SWAP2 SWAP1 PUSH2 0x911 JUMP JUMPDEST JUMPDEST POP JUMP JUMPDEST JUMPDEST DUP1 DUP3 GT ISZERO PUSH2 0x928 JUMPI PUSH0 DUP2 PUSH0 SWAP1 SSTORE POP PUSH1 0x1 ADD PUSH2 0x912 JUMP JUMPDEST POP SWAP1 JUMP JUMPDEST PUSH0 PUSH1 0x40 MLOAD SWAP1 POP SWAP1 JUMP JUMPDEST PUSH0 DUP1 REVERT JUMPDEST PUSH0 DUP1 REVERT JUMPDEST PUSH0 DUP2 SWAP1 POP SWAP2 SWAP1 POP JUMP JUMPDEST PUSH2 0x94F DUP2 PUSH2 0x93D JUMP JUMPDEST DUP2 EQ PUSH2 0x959 JUMPI PUSH0 DUP1 REVERT JUMPDEST POP JUMP JUMPDEST PUSH0 DUP2 CALLDATALOAD SWAP1 POP PUSH2 0x96A DUP2 PUSH2 0x946 JUMP JUMPDEST SWAP3 SWAP2 POP POP JUMP JUMPDEST PUSH0 PUSH1 0x20 DUP3 DUP5 SUB SLT ISZERO PUSH2 0x985 JUMPI PUSH2 0x984 PUSH2 0x935 JUMP JUMPDEST JUMPDEST PUSH0 PUSH2 0x992 DUP5 DUP3 DUP6 ADD PUSH2 0x95C JUMP JUMPDEST SWAP2 POP POP SWAP3 SWAP2 POP POP JUMP JUMPDEST PUSH0 PUSH20 0xFFFFFFFFFFFFFFFFFFFFFFFFFFFFFFFFFFFFFFFF DUP3 AND SWAP1 POP SWAP2 SWAP1 POP JUMP JUMPDEST PUSH0 PUSH2 0x9C4 DUP3 PUSH2 0x99B JUMP JUMPDEST SWAP1 POP SWAP2 SWAP1 POP JUMP JUMPDEST PUSH2 0x9D4 DUP2 PUSH2 0x9BA JUMP JUMPDEST DUP3 MSTORE POP POP JUMP JUMPDEST PUSH2 0x9E3 DUP2 PUSH2 0x93D JUMP JUMPDEST DUP3 MSTORE POP POP JUMP JUMPDEST PUSH0 DUP2 MLOAD SWAP1 POP SWAP2 SWAP1 POP JUMP JUMPDEST PUSH0 DUP3 DUP3 MSTORE PUSH1 0x20 DUP3 ADD SWAP1 POP SWAP3 SWAP2 POP POP JUMP JUMPDEST PUSH0 JUMPDEST DUP4 DUP2 LT ISZERO PUSH2 0xA20 JUMPI DUP1 DUP3 ADD MLOAD DUP2 DUP5 ADD MSTORE PUSH1 0x20 DUP2 ADD SWAP1 POP PUSH2 0xA05 JUMP JUMPDEST PUSH0 DUP5 DUP5 ADD MSTORE POP POP POP POP JUMP JUMPDEST PUSH0 PUSH1 0x1F NOT PUSH1 0x1F DUP4 ADD AND SWAP1 POP SWAP2 SWAP1 POP JUMP JUMPDEST PUSH0 PUSH2 0xA45 DUP3 PUSH2 0x9E9 JUMP JUMPDEST PUSH2 0xA4F DUP2 DUP6 PUSH2 0x9F3 JUMP JUMPDEST SWAP4 POP PUSH2 0xA5F DUP2 DUP6 PUSH1 0x20 DUP7 ADD PUSH2 0xA03 JUMP JUMPDEST PUSH2 0xA68 DUP2 PUSH2 0xA2B JUMP JUMPDEST DUP5 ADD SWAP2 POP POP SWAP3 SWAP2 POP POP JUMP JUMPDEST PUSH0 PUSH1 0xFF DUP3 AND SWAP1 POP SWAP2 SWAP1 POP JUMP JUMPDEST PUSH2 0xA88 DUP2 PUSH2 0xA73 JUMP JUMPDEST DUP3 MSTORE POP POP JUMP JUMPDEST PUSH0 PUSH1 0x80 DUP4 ADD PUSH0 DUP4 ADD MLOAD PUSH2 0xAA3 PUSH0 DUP7 ADD DUP3 PUSH2 0x9CB JUMP JUMPDEST POP PUSH1 0x20 DUP4 ADD MLOAD PUSH2 0xAB6 PUSH1 0x20 DUP7 ADD DUP3 PUSH2 0x9DA JUMP JUMPDEST POP PUSH1 0x40 DUP4 ADD MLOAD DUP5 DUP3 SUB PUSH1 0x40 DUP7 ADD MSTORE PUSH2 0xACE DUP3 DUP3 PUSH2 0xA3B JUMP JUMPDEST SWAP2 POP POP PUSH1 0x60 DUP4 ADD MLOAD PUSH2 0xAE3 PUSH1 0x60 DUP7 ADD DUP3 PUSH2 0xA7F JUMP JUMPDEST POP DUP1 SWAP2 POP POP SWAP3 SWAP2 POP POP JUMP JUMPDEST PUSH0 PUSH1 0x20 DUP3 ADD SWAP1 POP DUP2 DUP2 SUB PUSH0 DUP4 ADD MSTORE PUSH2 0xB06 DUP2 DUP5 PUSH2 0xA8E JUMP JUMPDEST SWAP1 POP SWAP3 SWAP2 POP POP JUMP JUMPDEST PUSH2 0xB17 DUP2 PUSH2 0x9BA JUMP JUMPDEST DUP3 MSTORE POP POP JUMP JUMPDEST PUSH0 PUSH1 0x20 DUP3 ADD SWAP1 POP PUSH2 0xB30 PUSH0 DUP4 ADD DUP5 PUSH2 0xB0E JUMP JUMPDEST SWAP3 SWAP2 POP POP JUMP JUMPDEST PUSH2 0xB3F DUP2 PUSH2 0x9BA JUMP JUMPDEST DUP2 EQ PUSH2 0xB49 JUMPI PUSH0 DUP1 REVERT JUMPDEST POP JUMP JUMPDEST PUSH0 DUP2 CALLDATALOAD SWAP1 POP PUSH2 0xB5A DUP2 PUSH2 0xB36 JUMP JUMPDEST SWAP3 SWAP2 POP POP JUMP JUMPDEST PUSH0 DUP1 REVERT JUMPDEST PUSH0 DUP1 REVERT JUMPDEST PUSH32 0x4E487B7100000000000000000000000000000000000000000000000000000000 PUSH0 MSTORE PUSH1 0x41 PUSH1 0x4 MSTORE PUSH1 0x24 PUSH0 REVERT JUMPDEST PUSH2 0xB9E DUP3 PUSH2 0xA2B JUMP JUMPDEST DUP2 ADD DUP2 DUP2 LT PUSH8 0xFFFFFFFFFFFFFFFF DUP3 GT OR ISZERO PUSH2 0xBBD JUMPI PUSH2 0xBBC PUSH2 0xB68 JUMP JUMPDEST JUMPDEST DUP1 PUSH1 0x40 MSTORE POP POP POP JUMP JUMPDEST PUSH0 PUSH2 0xBCF PUSH2 0x92C JUMP JUMPDEST SWAP1 POP PUSH2 0xBDB DUP3 DUP3 PUSH2 0xB95 JUMP JUMPDEST SWAP2 SWAP1 POP JUMP JUMPDEST PUSH0 PUSH8 0xFFFFFFFFFFFFFFFF DUP3 GT ISZERO PUSH2 0xBFA JUMPI PUSH2 0xBF9 PUSH2 0xB68 JUMP JUMPDEST JUMPDEST PUSH2 0xC03 DUP3 PUSH2 0xA2B JUMP JUMPDEST SWAP1 POP PUSH1 0x20 DUP2 ADD SWAP1 POP SWAP2 SWAP1 POP JUMP JUMPDEST DUP3 DUP2 DUP4 CALLDATACOPY PUSH0 DUP4 DUP4 ADD MSTORE POP POP POP JUMP JUMPDEST PUSH0 PUSH2 0xC30 PUSH2 0xC2B DUP5 PUSH2 0xBE0 JUMP JUMPDEST PUSH2 0xBC6 JUMP JUMPDEST SWAP1 POP DUP3 DUP2 MSTORE PUSH1 0x20 DUP2 ADD DUP5 DUP5 DUP5 ADD GT ISZERO PUSH2 0xC4C JUMPI PUSH2 0xC4B PUSH2 0xB64 JUMP JUMPDEST JUMPDEST PUSH2 0xC57 DUP5 DUP3 DUP6 PUSH2 0xC10 JUMP JUMPDEST POP SWAP4 SWAP3 POP POP POP JUMP JUMPDEST PUSH0 DUP3 PUSH1 0x1F DUP4 ADD SLT PUSH2 0xC73 JUMPI PUSH2 0xC72 PUSH2 0xB60 JUMP JUMPDEST JUMPDEST DUP2 CALLDATALOAD PUSH2 0xC83 DUP5 DUP3 PUSH1 0x20 DUP7 ADD PUSH2 0xC1E JUMP JUMPDEST SWAP2 POP POP SWAP3 SWAP2 POP POP JUMP JUMPDEST PUSH2 0xC95 DUP2 PUSH2 0xA73 JUMP JUMPDEST DUP2 EQ PUSH2 0xC9F JUMPI PUSH0 DUP1 REVERT JUMPDEST POP JUMP JUMPDEST PUSH0 DUP2 CALLDATALOAD SWAP1 POP PUSH2 0xCB0 DUP2 PUSH2 0xC8C JUMP JUMPDEST SWAP3 SWAP2 POP POP JUMP JUMPDEST PUSH0 DUP1 PUSH0 DUP1 PUSH1 0x80 DUP6 DUP8 SUB SLT ISZERO PUSH2 0xCCE JUMPI PUSH2 0xCCD PUSH2 0x935 JUMP JUMPDEST JUMPDEST PUSH0 PUSH2 0xCDB DUP8 DUP3 DUP9 ADD PUSH2 0xB4C JUMP JUMPDEST SWAP5 POP POP PUSH1 0x20 DUP6 ADD CALLDATALOAD PUSH8 0xFFFFFFFFFFFFFFFF DUP2 GT ISZERO PUSH2 0xCFC JUMPI PUSH2 0xCFB PUSH2 0x939 JUMP JUMPDEST JUMPDEST PUSH2 0xD08 DUP8 DUP3 DUP9 ADD PUSH2 0xC5F JUMP JUMPDEST SWAP4 POP POP PUSH1 0x40 PUSH2 0xD19 DUP8 DUP3 DUP9 ADD PUSH2 0xCA2 JUMP JUMPDEST SWAP3 POP POP PUSH1 0x60 PUSH2 0xD2A DUP8 DUP3 DUP9 ADD PUSH2 0x95C JUMP JUMPDEST SWAP2 POP POP SWAP3 SWAP6 SWAP2 SWAP5 POP SWAP3 POP JUMP JUMPDEST PUSH0 DUP1 PUSH0 PUSH1 0x60 DUP5 DUP7 SUB SLT ISZERO PUSH2 0xD4D JUMPI PUSH2 0xD4C PUSH2 0x935 JUMP JUMPDEST JUMPDEST PUSH0 PUSH2 0xD5A DUP7 DUP3 DUP8 ADD PUSH2 0xB4C JUMP JUMPDEST SWAP4 POP POP PUSH1 0x20 DUP5 ADD CALLDATALOAD PUSH8 0xFFFFFFFFFFFFFFFF DUP2 GT ISZERO PUSH2 0xD7B JUMPI PUSH2 0xD7A PUSH2 0x939 JUMP JUMPDEST JUMPDEST PUSH2 0xD87 DUP7 DUP3 DUP8 ADD PUSH2 0xC5F JUMP JUMPDEST SWAP3 POP POP PUSH1 0x40 PUSH2 0xD98 DUP7 DUP3 DUP8 ADD PUSH2 0xCA2 JUMP JUMPDEST SWAP2 POP POP SWAP3 POP SWAP3 POP SWAP3 JUMP JUMPDEST PUSH32 0x4E487B7100000000000000000000000000000000000000000000000000000000 PUSH0 MSTORE PUSH1 0x11 PUSH1 0x4 MSTORE PUSH1 0x24 PUSH0 REVERT JUMPDEST PUSH0 PUSH2 0xDD9 DUP3 PUSH2 0x93D JUMP JUMPDEST SWAP2 POP PUSH2 0xDE4 DUP4 PUSH2 0x93D JUMP JUMPDEST SWAP3 POP DUP3 DUP3 SUB SWAP1 POP DUP2 DUP2 GT ISZERO PUSH2 0xDFC JUMPI PUSH2 0xDFB PUSH2 0xDA2 JUMP JUMPDEST JUMPDEST SWAP3 SWAP2 POP POP JUMP JUMPDEST PUSH32 0x4E487B7100000000000000000000000000000000000000000000000000000000 PUSH0 MSTORE PUSH1 0x32 PUSH1 0x4 MSTORE PUSH1 0x24 PUSH0 REVERT JUMPDEST PUSH32 0x4E487B7100000000000000000000000000000000000000000000000000000000 PUSH0 MSTORE PUSH1 0x22 PUSH1 0x4 MSTORE PUSH1 0x24 PUSH0 REVERT JUMPDEST PUSH0 PUSH1 0x2 DUP3 DIV SWAP1 POP PUSH1 0x1 DUP3 AND DUP1 PUSH2 0xE73 JUMPI PUSH1 0x7F DUP3 AND SWAP2 POP JUMPDEST PUSH1 0x20 DUP3 LT DUP2 SUB PUSH2 0xE86 JUMPI PUSH2 0xE85 PUSH2 0xE2F JUMP JUMPDEST JUMPDEST POP SWAP2 SWAP1 POP JUMP JUMPDEST PUSH0 DUP3 DUP3 MSTORE PUSH1 0x20 DUP3 ADD SWAP1 POP SWAP3 SWAP2 POP POP JUMP JUMPDEST PUSH32 0x596F7520617265206E6F7420617574686F72697A656400000000000000000000 PUSH0 DUP3 ADD MSTORE POP JUMP JUMPDEST PUSH0 PUSH2 0xED0 PUSH1 0x16 DUP4 PUSH2 0xE8C JUMP JUMPDEST SWAP2 POP PUSH2 0xEDB DUP3 PUSH2 0xE9C JUMP JUMPDEST PUSH1 0x20 DUP3 ADD SWAP1 POP SWAP2 SWAP1 POP JUMP JUMPDEST PUSH0 PUSH1 0x20 DUP3 ADD SWAP1 POP DUP2 DUP2 SUB PUSH0 DUP4 ADD MSTORE PUSH2 0xEFD DUP2 PUSH2 0xEC4 JUMP JUMPDEST SWAP1 POP SWAP2 SWAP1 POP JUMP JUMPDEST PUSH32 0x5468697320697320616E20696E76616C69642073747564656E74000000000000 PUSH0 DUP3 ADD MSTORE POP JUMP JUMPDEST PUSH0 PUSH2 0xF38 PUSH1 0x1A DUP4 PUSH2 0xE8C JUMP JUMPDEST SWAP2 POP PUSH2 0xF43 DUP3 PUSH2 0xF04 JUMP JUMPDEST PUSH1 0x20 DUP3 ADD SWAP1 POP SWAP2 SWAP1 POP JUMP JUMPDEST PUSH0 PUSH1 0x20 DUP3 ADD SWAP1 POP DUP2 DUP2 SUB PUSH0 DUP4 ADD MSTORE PUSH2 0xF65 DUP2 PUSH2 0xF2C JUMP JUMPDEST SWAP1 POP SWAP2 SWAP1 POP JUMP JUMPDEST PUSH0 DUP2 SLOAD SWAP1 POP PUSH2 0xF7A DUP2 PUSH2 0xE5C JUMP JUMPDEST SWAP1 POP SWAP2 SWAP1 POP JUMP JUMPDEST PUSH0 DUP2 SWAP1 POP DUP2 PUSH0 MSTORE PUSH1 0x20 PUSH0 KECCAK256 SWAP1 POP SWAP2 SWAP1 POP JUMP JUMPDEST PUSH0 PUSH1 0x20 PUSH1 0x1F DUP4 ADD DIV SWAP1 POP SWAP2 SWAP1 POP JUMP JUMPDEST PUSH0 DUP3 DUP3 SHL SWAP1 POP SWAP3 SWAP2 POP POP JUMP JUMPDEST PUSH0 PUSH1 0x8 DUP4 MUL PUSH2 0xFDD PUSH32 0xFFFFFFFFFFFFFFFFFFFFFFFFFFFFFFFFFFFFFFFFFFFFFFFFFFFFFFFFFFFFFFFF DUP3 PUSH2 0xFA2 JUMP JUMPDEST PUSH2 0xFE7 DUP7 DUP4 PUSH2 0xFA2 JUMP JUMPDEST SWAP6 POP DUP1 NOT DUP5 AND SWAP4 POP DUP1 DUP7 AND DUP5 OR SWAP3 POP POP POP SWAP4 SWAP3 POP POP POP JUMP JUMPDEST PUSH0 DUP2 SWAP1 POP SWAP2 SWAP1 POP JUMP JUMPDEST PUSH0 PUSH2 0x1022 PUSH2 0x101D PUSH2 0x1018 DUP5 PUSH2 0x93D JUMP JUMPDEST PUSH2 0xFFF JUMP JUMPDEST PUSH2 0x93D JUMP JUMPDEST SWAP1 POP SWAP2 SWAP1 POP JUMP JUMPDEST PUSH0 DUP2 SWAP1 POP SWAP2 SWAP1 POP JUMP JUMPDEST PUSH2 0x103B DUP4 PUSH2 0x1008 JUMP JUMPDEST PUSH2 0x104F PUSH2 0x1047 DUP3 PUSH2 0x1029 JUMP JUMPDEST DUP5 DUP5 SLOAD PUSH2 0xFAE JUMP JUMPDEST DUP3 SSTORE POP POP POP POP JUMP JUMPDEST PUSH0 SWAP1 JUMP JUMPDEST PUSH2 0x1063 PUSH2 0x1057 JUMP JUMPDEST PUSH2 0x106E DUP2 DUP5 DUP5 PUSH2 0x1032 JUMP JUMPDEST POP POP POP JUMP JUMPDEST JUMPDEST DUP2 DUP2 LT ISZERO PUSH2 0x1091 JUMPI PUSH2 0x1086 PUSH0 DUP3 PUSH2 0x105B JUMP JUMPDEST PUSH1 0x1 DUP2 ADD SWAP1 POP PUSH2 0x1074 JUMP JUMPDEST POP POP JUMP JUMPDEST PUSH1 0x1F DUP3 GT ISZERO PUSH2 0x10D6 JUMPI PUSH2 0x10A7 DUP2 PUSH2 0xF81 JUMP JUMPDEST PUSH2 0x10B0 DUP5 PUSH2 0xF93 JUMP JUMPDEST DUP2 ADD PUSH1 0x20 DUP6 LT ISZERO PUSH2 0x10BF JUMPI DUP2 SWAP1 POP JUMPDEST PUSH2 0x10D3 PUSH2 0x10CB DUP6 PUSH2 0xF93 JUMP JUMPDEST DUP4 ADD DUP3 PUSH2 0x1073 JUMP JUMPDEST POP POP JUMPDEST POP POP POP JUMP JUMPDEST PUSH0 DUP3 DUP3 SHR SWAP1 POP SWAP3 SWAP2 POP POP JUMP JUMPDEST PUSH0 PUSH2 0x10F6 PUSH0 NOT DUP5 PUSH1 0x8 MUL PUSH2 0x10DB JUMP JUMPDEST NOT DUP1 DUP4 AND SWAP2 POP POP SWAP3 SWAP2 POP POP JUMP JUMPDEST PUSH0 PUSH2 0x110E DUP4 DUP4 PUSH2 0x10E7 JUMP JUMPDEST SWAP2 POP DUP3 PUSH1 0x2 MUL DUP3 OR SWAP1 POP SWAP3 SWAP2 POP POP JUMP JUMPDEST DUP2 DUP2 SUB PUSH2 0x112C JUMPI POP POP PUSH2 0x1201 JUMP JUMPDEST PUSH2 0x1135 DUP3 PUSH2 0xF6C JUMP JUMPDEST PUSH8 0xFFFFFFFFFFFFFFFF DUP2 GT ISZERO PUSH2 0x114E JUMPI PUSH2 0x114D PUSH2 0xB68 JUMP JUMPDEST JUMPDEST PUSH2 0x1158 DUP3 SLOAD PUSH2 0xE5C JUMP JUMPDEST PUSH2 0x1163 DUP3 DUP3 DUP6 PUSH2 0x1095 JUMP JUMPDEST PUSH0 PUSH1 0x1F DUP4 GT PUSH1 0x1 DUP2 EQ PUSH2 0x1190 JUMPI PUSH0 DUP5 ISZERO PUSH2 0x117E JUMPI DUP3 DUP8 ADD SLOAD SWAP1 POP JUMPDEST PUSH2 0x1188 DUP6 DUP3 PUSH2 0x1103 JUMP JUMPDEST DUP7 SSTORE POP PUSH2 0x11FA JUMP JUMPDEST PUSH1 0x1F NOT DUP5 AND PUSH2 0x119E DUP8 PUSH2 0xF81 JUMP JUMPDEST SWAP7 POP PUSH2 0x11A9 DUP7 PUSH2 0xF81 JUMP JUMPDEST PUSH0 JUMPDEST DUP3 DUP2 LT ISZERO PUSH2 0x11D0 JUMPI DUP5 DUP10 ADD SLOAD DUP3 SSTORE PUSH1 0x1 DUP3 ADD SWAP2 POP PUSH1 0x1 DUP6 ADD SWAP5 POP PUSH1 0x20 DUP2 ADD SWAP1 POP PUSH2 0x11AB JUMP JUMPDEST DUP7 DUP4 LT ISZERO PUSH2 0x11ED JUMPI DUP5 DUP10 ADD SLOAD PUSH2 0x11E9 PUSH1 0x1F DUP10 AND DUP3 PUSH2 0x10E7 JUMP JUMPDEST DUP4 SSTORE POP JUMPDEST PUSH1 0x1 PUSH1 0x2 DUP9 MUL ADD DUP9 SSTORE POP POP POP JUMPDEST POP POP POP POP POP POP JUMPDEST JUMP JUMPDEST PUSH32 0x4E487B7100000000000000000000000000000000000000000000000000000000 PUSH0 MSTORE PUSH1 0x31 PUSH1 0x4 MSTORE PUSH1 0x24 PUSH0 REVERT JUMPDEST PUSH32 0x596F7520617265206E6F7420757020746F206167650000000000000000000000 PUSH0 DUP3 ADD MSTORE POP JUMP JUMPDEST PUSH0 PUSH2 0x1264 PUSH1 0x15 DUP4 PUSH2 0xE8C JUMP JUMPDEST SWAP2 POP PUSH2 0x126F DUP3 PUSH2 0x1230 JUMP JUMPDEST PUSH1 0x20 DUP3 ADD SWAP1 POP SWAP2 SWAP1 POP JUMP JUMPDEST PUSH0 PUSH1 0x20 DUP3 ADD SWAP1 POP DUP2 DUP2 SUB PUSH0 DUP4 ADD MSTORE PUSH2 0x1291 DUP2 PUSH2 0x1258 JUMP JUMPDEST SWAP1 POP SWAP2 SWAP1 POP JUMP JUMPDEST PUSH2 0x12A1 DUP3 PUSH2 0x9E9 JUMP JUMPDEST PUSH8 0xFFFFFFFFFFFFFFFF DUP2 GT ISZERO PUSH2 0x12BA JUMPI PUSH2 0x12B9 PUSH2 0xB68 JUMP JUMPDEST JUMPDEST PUSH2 0x12C4 DUP3 SLOAD PUSH2 0xE5C JUMP JUMPDEST PUSH2 0x12CF DUP3 DUP3 DUP6 PUSH2 0x1095 JUMP JUMPDEST PUSH0 PUSH1 0x20 SWAP1 POP PUSH1 0x1F DUP4 GT PUSH1 0x1 DUP2 EQ PUSH2 0x1300 JUMPI PUSH0 DUP5 ISZERO PUSH2 0x12EE JUMPI DUP3 DUP8 ADD MLOAD SWAP1 POP JUMPDEST PUSH2 0x12F8 DUP6 DUP3 PUSH2 0x1103 JUMP JUMPDEST DUP7 SSTORE POP PUSH2 0x135F JUMP JUMPDEST PUSH1 0x1F NOT DUP5 AND PUSH2 0x130E DUP7 PUSH2 0xF81 JUMP JUMPDEST PUSH0 JUMPDEST DUP3 DUP2 LT ISZERO PUSH2 0x1335 JUMPI DUP5 DUP10 ADD MLOAD DUP3 SSTORE PUSH1 0x1 DUP3 ADD SWAP2 POP PUSH1 0x20 DUP6 ADD SWAP5 POP PUSH1 0x20 DUP2 ADD SWAP1 POP PUSH2 0x1310 JUMP JUMPDEST DUP7 DUP4 LT ISZERO PUSH2 0x1352 JUMPI DUP5 DUP10 ADD MLOAD PUSH2 0x134E PUSH1 0x1F DUP10 AND DUP3 PUSH2 0x10E7 JUMP JUMPDEST DUP4 SSTORE POP JUMPDEST PUSH1 0x1 PUSH1 0x2 DUP9 MUL ADD DUP9 SSTORE POP POP POP JUMPDEST POP POP POP POP POP POP JUMP JUMPDEST PUSH0 PUSH2 0x1371 DUP3 PUSH2 0x93D JUMP JUMPDEST SWAP2 POP PUSH2 0x137C DUP4 PUSH2 0x93D JUMP JUMPDEST SWAP3 POP DUP3 DUP3 ADD SWAP1 POP DUP1 DUP3 GT ISZERO PUSH2 0x1394 JUMPI PUSH2 0x1393 PUSH2 0xDA2 JUMP JUMPDEST JUMPDEST SWAP3 SWAP2 POP POP JUMP INVALID LOG2 PUSH5 0x6970667358 0x22 SLT KECCAK256 0xCB SWAP4 0xB8 0xE5 0xBA DUP15 PUSH15 0x2BD593E9EC7DDBC2449D0C2AA15887 PUSH1 0xD7 DUP1 TLOAD PUSH22 0xF5EB1FAF4C64736F6C63430008180033000000000000 "
		},
		"gasEstimates": {
			"creation": {
				"codeDepositCost": "1014400",
				"executionCost": "25317",
				"totalCost": "1039717"
			},
			"external": {
				"addStudent(address,string,uint8)": "infinite",
				"deleteStudent(uint256)": "infinite",
				"getStudent(uint256)": "infinite",
				"owner()": "2505",
				"updateStudent(address,string,uint8,uint256)": "infinite"
			}
		},
		"methodIdentifiers": {
			"addStudent(address,string,uint8)": "e7c0994a",
			"deleteStudent(uint256)": "b645307d",
			"getStudent(uint256)": "642f9163",
			"owner()": "8da5cb5b",
			"updateStudent(address,string,uint8,uint256)": "c2dc2712"
		}
	},
	"abi": [
		{
			"inputs": [],
			"stateMutability": "nonpayable",
			"type": "constructor"
		},
		{
			"inputs": [
				{
					"internalType": "address",
					"name": "_studentAddr",
					"type": "address"
				},
				{
					"internalType": "string",
					"name": "_name",
					"type": "string"
				},
				{
					"internalType": "uint8",
					"name": "_age",
					"type": "uint8"
				}
			],
			"name": "addStudent",
			"outputs": [],
			"stateMutability": "nonpayable",
			"type": "function"
		},
		{
			"inputs": [
				{
					"internalType": "uint256",
					"name": "_studentId",
					"type": "uint256"
				}
			],
			"name": "deleteStudent",
			"outputs": [],
			"stateMutability": "nonpayable",
			"type": "function"
		},
		{
			"inputs": [
				{
					"internalType": "uint256",
					"name": "_studentId",
					"type": "uint256"
				}
			],
			"name": "getStudent",
			"outputs": [
				{
					"components": [
						{
							"internalType": "address",
							"name": "studentAddr",
							"type": "address"
						},
						{
							"internalType": "uint256",
							"name": "studentId",
							"type": "uint256"
						},
						{
							"internalType": "string",
							"name": "name",
							"type": "string"
						},
						{
							"internalType": "uint8",
							"name": "age",
							"type": "uint8"
						}
					],
					"internalType": "struct StudentRegistry.Student",
					"name": "",
					"type": "tuple"
				}
			],
			"stateMutability": "view",
			"type": "function"
		},
		{
			"inputs": [],
			"name": "owner",
			"outputs": [
				{
					"internalType": "address",
					"name": "",
					"type": "address"
				}
			],
			"stateMutability": "view",
			"type": "function"
		},
		{
			"inputs": [
				{
					"internalType": "address",
					"name": "_studentAddr",
					"type": "address"
				},
				{
					"internalType": "string",
					"name": "_name",
					"type": "string"
				},
				{
					"internalType": "uint8",
					"name": "_age",
					"type": "uint8"
				},
				{
					"internalType": "uint256",
					"name": "_studentId",
					"type": "uint256"
				}
			],
			"name": "updateStudent",
			"outputs": [],
			"stateMutability": "nonpayable",
			"type": "function"
		}
	]
}